:020000040000FA
:06000000A8EF3FF0120022
:06080000A8EF3FF012001A
:0608080075EF35F012004F
:0608180075EF35F012003F
:06082A0001007E7F0000CA
:0808300060000000330000002D
:08083800D9CFE6FFE1CFD9FFA3
:10084000FE0EDBCFE6FF040EE66E58EC36F0E55206
:10085000E552010EE66EB4EC3FF0E552E552E7CF0B
:10086000D9FF1200D9CFE6FFE1CFD9FFFE0EDBCFD3
:10087000E6FF040EE66EDFEC36F0E552E552010EBF
:10088000E66EB4EC3FF0E552E552E7CFD9FF120037
:10089000D9CFE6FFE1CFD9FFFB0EDBCFE6FF080E95
:1008A000E66E58EC36F0E552E552FC0EDBCFE6FF83
:1008B000080EE66E58EC36F0E552E552FD0EDBCF41
:1008C000E6FF080EE66E58EC36F0E552E552010EF2
:1008D000E66EB4EC3FF0E552E552E7CFD9FF1200E7
:1008E000D9CFE6FFE1CFD9FFFB0EDBCFE6FF080E45
:1008F000E66EDFEC36F0E552E552FC0EDBCFE6FFAC
:10090000080EE66EDFEC36F0E552E552FD0EDBCF69
:10091000E6FF080EE66EDFEC36F0E552E552010E1A
:10092000E66EB4EC3FF0E552E552E7CFD9FF120096
:10093000D9CFE6FFE1CFD9FF020EE1263AEC36F03F
:10094000080EE66E58EC37F0E552080EE66E58ECED
:1009500037F0E552DF6E080EE66E58EC37F0E552E0
:10096000E76E010EE7CFDBFF49EC36F0010EE66ED5
:10097000B4EC3FF0E552DECF14F0DDCF15F014C03B
:10098000F3FF15C0F4FFF56E020EE15C02E2E16ACE
:10099000E552E16EF550E552E7CFD9FF1200D9CF0D
:1009A000E6FFE1CFD9FF020EE1263AEC36F0080E61
:1009B000E66E9CEC37F0E552080EE66E9CEC37F0E4
:1009C000E552DF6E080EE66E9CEC37F0E552E76EFE
:1009D000010EE7CFDBFF49EC36F0010EE66EB4EC1A
:1009E0003FF0E552DECF14F0DDCF15F014C0F3FF79
:1009F00015C0F4FFF56E020EE15C02E2E16AE55219
:100A0000E16EF550E552E7CFD9FF1200D9CFE6FFEE
:100A1000E1CFD9FF040EE126D9CFE9FFDACFEAFF13
:100A2000FB0EDBCFEEFFFC0EDBCFEEFFFD0EDBCFD0
:100A3000EEFFFE0EDBCFEEFF0001920511E1E66A4C
:100A400011DFE552D9CFE9FFDACFEAFFEECFE6FFBB
:100A5000EECFE6FFEECFE6FFEFCFE6FF41DF10D0AF
:100A6000E66AEADEE552D9CFE9FFDACFEAFFEECF58
:100A7000E6FFEECFE6FFEECFE6FFEFCFE6FF08DFC3
:100A8000E552E552E552E552F56E040EE15C02E2F4
:100A9000E16AE552E16EF550E552E7CFD9FF120069
:100AA000E66AE66AE66AE66AB1DFE552E552E552D1
:100AB000E5521200E66A010EE66E040EE66EE66A84
:100AC000A5DFE552E552E552E5521200E66A020E54
:100AD000E66E040EE66EE66A99DFE552E552E552EF
:100AE000E5521200B60EE66E1B0EE66EBA0EE66E0C
:100AF000E66A8CDFE552E552E552E5521200B60E89
:100B0000E66E1B0EE66EBB0EE66EE66A7FDFE55212
:100B1000E552E552E5521200D9CFE6FFE1CFD9FF09
:100B2000FE0EDBCF14F0156A166A148A3C0E1512FD
:100B3000880E1612176A14C0E6FF15C0E6FF16C02D
:100B4000E6FF17C0E6FF62DFE552E552E552E552E7
:100B5000E552E7CFD9FF1200580EE66E050EE66E9D
:100B6000200EE66EE66A52DFE552E552E552E552A6
:100B7000380EE66E3B0EE66E880EE66EE66A46DFDF
:100B8000E552E552E552E552A90EE66E0A0EE66E12
:100B9000200EE66EE66A3ADFE552E552E552E5528E
:100BA000390EE66E3B0EE66E880EE66EE66A2EDFC6
:100BB000E552E552E552E5521200610EE66EE70E8F
:100BC000E66EA80EE66EE66A21DFE552E552E552D2
:100BD000E55266DF65DF020EE66EE66ADEEC33F0B4
:100BE000E552E5525DDF5CDF610EE66EE70EE66E14
:100BF000A90EE66EE66A0ADFE552E552E552E552D5
:100C00004FDF50EF05F0D9CFE6FFE1CFD9FF020E5D
:100C1000E1260001920506E1010EE66E23DEE552B3
:100C2000BEDE05D0010EE66E07DEE55281DEF3CFB3
:100C3000DEFFF4CFDDFFDECF14F0DDCF15F014C002
:100C4000F3FF15C0F4FFF56E020EE15C02E2E16A0B
:100C5000E552E16EF550E552E7CFD9FF120020DFF3
:100C60001FDF28DF50EF05F0D9CFE6FFE1CFD9FF36
:100C7000020EE12604EC38F0F2DFF00EE66E0F0E05
:100C8000E66E200EE66EE66AC1DEE552E552E552FA
:100C9000E552900EE66E010EE66E880EE66EE66A8E
:100CA000B5DEE552E552E552E552E66A030EE66E20
:100CB000EB0EE66EE66AAADEE552E552E552E55233
:100CC000800EE66E030EE66EEB0EE66EE66A9EDEC4
:100CD000E552E552E552E552B60EE66E0B0EE66EB3
:100CE000BA0EE66EE66A92DEE552E552E552E5524C
:100CF000D7DED6DEE66A10DFE552D2DE84DFF3CF40
:100D0000DEFFF4CFDDFFCCDED5DECADEB60EE66E4A
:100D10000B0EE66EBA0EE66EE66A78DEE552E55236
:100D2000E552E552BDDEBCDEE66AF6DEE552B8DE2F
:100D30006ADFF3CFEDF1F4CFEEF1B2DEBBDEB0DE71
:100D4000B5EC38F0DECF14F0DDCF15F014C0F3FFB2
:100D500015C0F4FFF56E020EE15C02E2E16AE552B5
:100D6000E16EF550E552E7CFD9FF1200D9CFE6FF8B
:100D7000E1CFD9FF130EE126030EF36E080EF3CF79
:100D8000DBFF0101026B036B01013F0E006F4C0E94
:100D9000E96E010EEA6E01014851EE5C4951EE58D0
:100DA0004A51EE584B51EE5803E20001606B71D28C
:100DB0000001605106E104EC38F00001010E606FA3
:100DC0004EDF480EE96E010EEA6EEE5001014C5DF9
:100DD000146EEE504D59156EEE504E59166EEE5083
:100DE0004F59176E020E1426000E152216221722D6
:100DF000030E096E0A6A0B6A0C6A14C004F015C06F
:100E000005F016C006F017C007F0D2EC3EF000C0A7
:100E100014F001C015F002C016F003C017F0D8900E
:100E20001732163215321432090E14C0DBFF0A0EC7
:100E300015C0DBFF0B0E16C0DBFF0C0E17C0DBFF6F
:100E4000090EDBCF05F00A0EDBCF06F00B0EDBCF71
:100E500007F00C0EDBCF08F00834000E081809E686
:100E6000D8803C0E0554000E0654000E0754000EA8
:100E700008540CE23C0EF36E090EF3CFDBFF0A0EB2
:100E8000DB6A0B0EDB6A0C0EDB6A02D00001606BC2
:100E9000090EDBCF02F1030EF36E080EF3CFDBFF7A
:100EA000080EDB50330802E2000E01D0010E1C6E6A
:100EB000080EDBCF14F0156A166A176A030E186E57
:100EC000196A1A6A1B6AD950090FE96EDACFEAFF6C
:100ED000EE501826EE501922EE501A22EE501B2228
:100EE0001B501718E8AE02D0173408D01450185C05
:100EF0001550195816501A5817501B5802E2000E78
:100F000001D0010E1C1401E1BAD1000E48C1DFFF6F
:100F1000010E49C1DBFF020EDB6A030EDB6AD9CF8B
:100F2000E9FFDACFEAFF040EE76ED890EF36010E44
:100F3000EB36020EEB36030EEB36E706F6E1040E57
:100F40004AC1DBFF050EDB6A060EDB6A070EDB6AB1
:100F5000D950040FE96EDACFEAFF040EE76ED8909D
:100F6000EF36010EEB36020EEB36030EEB36E706DC
:100F7000F6E1040EDBCF14F0050EDBCF15F0060E04
:100F8000DBCF16F0070EDBCF17F0168A14C0E6FF92
:100F900015C0E6FF16C0E6FF17C0E6FF37DDE552D5
:100FA000E552E552E552900EE66E010EE66E880EB1
:100FB000E66EE66A2BDDE552E552E552E552D9CF01
:100FC000E9FFDACFEAFFEECF14F0EECF15F0EECF67
:100FD00016F0EFCF17F0060E1412168A14C0E6FFB3
:100FE00015C0E6FF16C0E6FF17C0E6FF0FDDE552AD
:100FF000E552E552E552800EE66E030EE66EEB0E0C
:10100000E66EE66A03DDE552E552E552E55248DD5B
:10101000960EE66E1B0EE66EBA0EE66EE66AF6DC1D
:10102000E552E552E552E5523BDD3ADDB60EE66E9D
:10103000DB0EE66EBA0EE66EE66AE8DCE552E552D5
:10104000E552E5522DDD2CDDD60EE66EDB0EE66EAA
:10105000BA0EE66EE66ADADCE552E552E552E55292
:101060001FDD1EDD3FDD1CDD1BDD960EE66E1B0E5B
:10107000E66EBA0EE66EE66AC9DCE552E552E55266
:10108000E5520EDD0DDDB60EE66EDB0EE66EBA0E37
:10109000E66EE66ABBDCE552E552E552E55200DD5C
:1010A000FFDCD60EE66EDB0EE66EBA0EE66EE66A84
:1010B000ADDCE552E552E552E552F2DCF1DC12DD41
:1010C000EFDCEEDCE66A28DDE552EADC9CDD0D0EA5
:1010D000F3CFDBFF0E0EF4CFDBFFE2DC010EE66E9A
:1010E0001BDDE552DDDC8FDD0F0EF3CFDBFF100ED5
:1010F000F4CFDBFFD5DC020EE66E0EDDE552D0DC70
:1011000082DD110EF3CFDBFF120EF4CFDBFFC8DC64
:10111000080EDB50EA6A010FE96E010EEA220D0E9D
:10112000DBCFEFFF080EDB2ADB50EA6A010FE96E26
:10113000010EEA220E0EDBCFEFFF080EDB2ADB509A
:10114000EA6A010FE96E010EEA220F0EDBCFEFFF14
:10115000080EDB2ADB50EA6A010FE96E010EEA2273
:10116000110EDBCFEFFF080EDB2ADB50EA6A010F1E
:10117000E96E010EEA22120EDBCFEFFF080EDB2A2A
:10118000DB50EA6A010FE96E010EEA22100EDBCF96
:10119000EFFF080EDB2A030EE66EBEDCE55280DCB4
:1011A00032DD0D0EF3CFDBFF0E0EF4CFDBFF78DC6C
:1011B000040EE66EB1DCE55273DC25DD0F0EF3CFD5
:1011C000DBFF100EF4CFDBFF6BDC050EE66EA4DC5C
:1011D000E55266DC18DD110EF3CFDBFF120EF4CF03
:1011E000DBFF5EDC080EDB50EA6A010FE96E010EE0
:1011F000EA220D0EDBCFEFFF080EDB2ADB50EA6A96
:10120000010FE96E010EEA220E0EDBCFEFFF080E92
:10121000DB2ADB50EA6A010FE96E010EEA220F0EAB
:10122000DBCFEFFF080EDB2ADB50EA6A010FE96E25
:10123000010EEA22110EDBCFEFFF080EDB2ADB5096
:10124000EA6A010FE96E010EEA22120EDBCFEFFF10
:10125000080EDB2ADB50EA6A010FE96E010EEA2272
:10126000100EDBCFEFFF080EDB2A24DC19DC080EA2
:1012700001014827000E49234A234B2311D60101BF
:10128000010E036F0001605104E10101036BB5EC35
:1012900038F0F56E130EE15C02E2E16AE552E16EB0
:1012A000F550E552E7CFD9FF1200D9CFE6FFE1CFE5
:1012B000D9FF0B0EE126030EDF6E0101026B036BFB
:1012C00001013F0E006F4C0EE96E010EEA6E010146
:1012D0004851EE5C4951EE584A51EE584B51EE5888
:1012E00003E20001616BABD10001615158E1050ED1
:1012F00048C1DBFF060E49C1DBFF070EDB6A080EA3
:10130000DB6AD950050FE96EDACFEAFF040EE76E0B
:10131000D890EF36010EEB36020EEB36030EEB36AD
:10132000E706F6E104EC38F00001010E616F97DC8E
:10133000F00EE66E070EE66E200EE66EE66A06EC2E
:1013400005F0E552E552E552E552900EE66E010ECB
:10135000E66E880EE66EE66A06EC05F0E552E552AA
:10136000E552E552050EDBCF14F0060EDBCF15F08B
:10137000070EDBCF16F0080EDBCF17F0060E1412A7
:10138000168A14C0E6FF15C0E6FF16C0E6FF17C0B8
:10139000E6FF06EC05F0E552E552E552E552480E4F
:1013A000E96E010EEA6EEE5001014C5D146EEE50D6
:1013B0004D59156EEE504E59166EEE504F59176E30
:1013C000142A000E152216221722010E14C0DBFF6C
:1013D000020E15C0DBFF030E16C0DBFF040E17C0A4
:1013E000DBFF010EDBCF05F0020EDBCF06F0030EB4
:1013F000DBCF07F0040EDBCF08F00834000E08182E
:1014000009E6D880380E0554000E0654000E075425
:10141000000E08540CE2380EF36E010EF3CFDBFF22
:10142000020EDB6A030EDB6A040EDB6A02D00001E7
:10143000616B010EDBCF02F1030EDF6EDF5033086C
:1014400002E2000E01D0010E1C6EDFCF14F0156A0F
:10145000166A176A030E186E196A1A6A1B6AD9503F
:10146000010FE96EDACFEAFFEE501826EE5019228E
:10147000EE501A22EE501B221B501718E8AE02D075
:10148000173408D01450185C1550195816501A58B3
:1014900017501B5802E2000E01D0010E1C1401E18E
:1014A000C4D0800EE66E030EE66EEB0EE66EE66AC4
:1014B00006EC05F0E552E552E552E55272EC05F016
:1014C00050EC05F050EC05F072EC05F050EC05F036
:1014D00050EC05F072EC05F050EC05F050EC05F026
:1014E00072EC05F050EC05F050EC05F0E66A8CEC7F
:1014F00005F0E55250EC05F003EC06F0090EF3CFD1
:10150000DBFF0A0EF4CFDBFFDF50EA6A010FE96E62
:10151000010EEA22090EDBCFEFFFDF2ADF50EA6A75
:10152000010FE96E010EEA220A0EDBCFEFFFDF2A80
:1015300050EC05F0010EE66E8CEC05F0E55250EC37
:1015400005F003EC06F0090EF3CFDBFF0A0EF4CF33
:10155000DBFFDF50EA6A010FE96E010EEA22090E95
:10156000DBCFEFFFDF2ADF50EA6A010FE96E010EE1
:10157000EA220A0EDBCFEFFFDF2A50EC05F0020E65
:10158000E66E8CEC05F0E55250EC05F003EC06F04D
:10159000090EF3CFDBFF0A0EF4CFDBFFDF50EA6A60
:1015A000010FE96E010EEA22090EDBCFEFFFDF2A01
:1015B000DF50EA6A010FE96E010EEA220A0EDBCF64
:1015C000EFFFDF2A50EC05F0030EE66E8CEC05F021
:1015D000E55250EC05F003EC06F0090EF3CFDBFF0B
:1015E0000A0EF4CFDBFFDF50EA6A010FE96E010E4D
:1015F000EA22090EDBCFEFFFDF2ADF50EA6A010F94
:10160000E96E010EEA220A0EDBCFEFFFDF2A50EC73
:1016100005F05AEC05F050EC05F0080E01014827E2
:10162000000E49234A234B2309D70101010E036F02
:101630000001615104E10101036BB5EC38F0F56E76
:101640000B0EE15C02E2E16AE552E16EF550E55213
:10165000E7CFD9FF1200B6EC06F00101530E016F7F
:101660001200D9CFE6FFE1CFD9FF030EE12604EC4B
:1016700038F02FEC06F0800EE66E0F0EE66E200EB0
:10168000E66EE66A06EC05F0E552E552E552E552F3
:10169000900EE66E010EE66E880EE66EE66A06ECC9
:1016A00005F0E552E552E552E552E66A030EE66EB4
:1016B000EB0EE66EE66A06EC05F0E552E552E55201
:1016C000E552800EE66E030EE66EEB0EE66EE66AFF
:1016D00006EC05F0E552E552E552E552020EDB6AF2
:1016E000DBCF14F0070EE76E1418E8AE02D0E73433
:1016F00002D0E750145C61E2B60EE66E0B0EE66EA9
:10170000BA0EE66EE66A06EC05F0E552E552E552E1
:10171000E55250EC05F050EC05F0E66A8CEC05F073
:10172000E55250EC05F003EC06F0F3CFDEFFF4CF0A
:10173000DDFF020EDB50040DF350030FE96EEA6A81
:10174000E9BEEA68010EE926010EEA22DFCFEFFFCB
:10175000020EDB50040DF350040FE96EEA6AE9BE95
:10176000EA68010EE926010EEA22010EDBCFEFFF47
:10177000020EDB50040DF350050FE96EEA6AE9BE74
:10178000EA68010EE926010EEA22EF6A020EDB503A
:10179000040DF350060FE96EEA6AE9BEEA68010E2D
:1017A000E926010EEA22EF6A50EC05F05AEC05F04A
:1017B00050EC05F0020EDB2A93D7B5EC38F0020EA0
:1017C000DB50040DF3CF02F10101036B01013F0E69
:1017D000006FF56E030EE15C02E2E16AE552E16E34
:1017E000F550E552E7CFD9FF1200F7EF0BF004EC0C
:1017F00038F02FEC06F0510E0001725D5CE18A0EAC
:10180000E66EE66A240EE66EE66A06EC05F0E55240
:10181000E552E552E5520A0EE66E3B0EE66E880E84
:10182000E66EE66A06EC05F0E552E552E552E55251
:10183000800EE66E0F0EE66E200EE66EE66A06EC91
:1018400005F0E552E552E552E552900EE66E010EC6
:10185000E66E880EE66EE66A06EC05F0E552E552A5
:10186000E552E552670EE66EE66A200EE66EE66A1F
:1018700006EC05F0E552E552E552E552E66A030E44
:10188000E66EEB0EE66EE66A06EC05F0E552E55212
:10189000E552E552860EE66E1B0EE66EBB0EE66E58
:1018A000E66A06EC05F0E552E552E552E552ACEC8D
:1018B00005F0DDEC05F0FA0EE66E070EE66E240E7E
:1018C000E66EE66A06EC05F0E552E552E552E552B1
:1018D0000A0EE66E3B0EE66E880EE66EE66A06ECD3
:1018E00005F0E552E552E552E552ACEC05F0DDECD1
:1018F00005F0B5EF38F000018751E96EEA6AD8903B
:10190000E936EA36500EE926010EEA22EECFE3F17F
:10191000EFCFE4F10101E56B0001872B8751E96E00
:10192000EA6AD890E936EA36500EE926010EEA2234
:10193000EECFE6F1EFCFE7F10101E86B0001872B75
:101940008751E96EEA6AD890E936EA36500EE92600
:10195000010EEA22EECFE9F1EFCFEAF10101EB6BE4
:101960000001872B8751E96EEA6AD890E936EA369A
:10197000500EE926010EEA22EECF14F014C015F045
:10198000146A166A14500101E6131550E713165035
:10199000E8130001872B120050EC05F0B60EE66E3E
:1019A0000B0EE66EBB0EE66EE66A06EC05F0E5523F
:1019B000E552E552E55250EC05F050EC05F0B60E5C
:1019C000E66EDB0EE66EBB0EE66EE66A06EC05F032
:1019D000E552E552E552E55250EC05F050EC05F0C9
:1019E000B60EE66EEB0EE66EBB0EE66EE66A06EC33
:1019F00005F0E552E552E552E55250EC05F050ECA9
:101A000005F07FEC05F050EF05F0D9CFE6FFE1CF10
:101A1000D9FF0A0EE126400EDF6E4C0EE96E010E74
:101A2000EA6E01014851EE5C4951EE584A51EE58B8
:101A30004B51EE5803E20001626B71D20101030EBB
:101A4000EC6F0001625168E1010E626F0001876B6B
:101A5000400E875D0EE28751E96EEA6AD890E9365A
:101A6000EA36500EE926010EEA22EE6AED6A872B6D
:101A7000EFD7876B04EC38F0DFCF14F0156A166AE5
:101A8000176A14AE03D015681668176848C104F0C9
:101A900049C105F04AC106F04BC107F014C009F076
:101AA00015C00AF016C00BF017C00CF037EC3FF071
:101AB00000500101485D0101D26F015001014959F7
:101AC0000101D36F025001014A590101D46F035043
:101AD00001014B590101D56FDFCF14F0156A166A69
:101AE000176A14AE03D015681668176848C104F069
:101AF00049C105F04AC106F04BC107F014C009F016
:101B000015C00AF016C00BF017C00CF037EC3FF010
:101B100000C087F02FEC06F0D20EE96E010EEA6EDF
:101B2000EE5001014C5DEE504D59EE504E59EE50C5
:101B30004F5901E2DAD1030E010102250101EC5DEA
:101B400001E3D3D1DF500001875D37E2030E0101CD
:101B500002250101EC5D31E2EC29E96EEA6AE9BE99
:101B6000EA68010EE926010EEA22EF50176A176EA5
:101B7000166AECC1E9FFEA6AE9BEEA68010EE926E5
:101B8000010EEA22EF5000011624146E000E1720F9
:101B9000156E00018751E96EEA6AD890E936EA3697
:101BA000500EE926010EEA2214C0EEFF15C0EDFF2B
:101BB000872B020E0101EC27C5D7DF500001875D9E
:101BC00003E001010351A8E11A0EE66EE66A240E55
:101BD000E66EE66A06EC05F0E552E552E552E5529E
:101BE0000A0EE66E3B0EE66E880EE66EE66A06ECC0
:101BF00005F0E552E552E552E5520001876B010E12
:101C0000DB6ADBCF14F0070EE76E1418E8AE02D0E3
:101C1000143403D0E750D880145401E25BD1020E93
:101C2000D2C1DBFF030ED3C1DBFF040EDB6A050E5E
:101C3000DB6AD950020FE96EDACFEAFF040EE76ED5
:101C4000D890EF36010EEB36020EEB36030EEB3674
:101C5000E706F6E1060ED4C1DBFF070EDB6A080ECD
:101C6000DB6A090EDB6AD950060FE96EDACFEAFFAC
:101C7000040EE76ED890EF36010EEB36020EEB360F
:101C8000030EEB36E706F6E1060EDBCF14F0070E87
:101C9000DBCF15F0080EDBCF16F0090EDBCF17F007
:101CA000168A14C0E6FF15C0E6FF16C0E6FF17C08F
:101CB000E6FF06EC05F0E552E552E552E552900EDE
:101CC000E66E010EE66E880EE66EE66A06EC05F03C
:101CD000E552E552E552E552020EDBCF14F0030E59
:101CE000DBCF15F0040EDBCF16F0050EDBCF17F0BF
:101CF000070E1412168A14C0E6FF15C0E6FF16C0C0
:101D0000E6FF17C0E6FF06EC05F0E552E552E552A6
:101D1000E55250EC05F050EC05F0EDDD040E1F0B24
:101D2000E3C114F0E4C115F0E5C116F006E0D89067
:101D3000143615361636E806FAE1168A176A14C004
:101D4000E6FF15C0E6FF16C0E6FF17C0E6FF06EC8B
:101D500005F0E552E552E552E552040E1F0BE6C1CF
:101D600014F0E7C115F0E8C116F006E0D89014367B
:101D700015361636E806FAE11480168A176A14C07A
:101D8000E6FF15C0E6FF16C0E6FF17C0E6FF06EC4B
:101D900005F0E552E552E552E552040E1F0BE9C18C
:101DA00014F0EAC115F0EBC116F006E0D890143635
:101DB00015361636E806FAE11482168A176A14C038
:101DC000E6FF15C0E6FF16C0E6FF17C0E6FF06EC0B
:101DD00005F0E552E552E552E5528DDD040E1F0B8C
:101DE000E3C114F0E4C115F0E5C116F006E0D890A7
:101DF000143615361636E806FAE1030E1412168A62
:101E0000176A14C0E6FF15C0E6FF16C0E6FF17C04C
:101E1000E6FF06EC05F0E552E552E552E552040E08
:101E20001F0BE6C114F0E7C115F0E8C116F006E09B
:101E3000D890143615361636E806FAE11484168A58
:101E4000176A14C0E6FF15C0E6FF16C0E6FF17C00C
:101E5000E6FF06EC05F0E552E552E552E552040EC8
:101E60001F0BE9C114F0EAC115F0EBC116F006E052
:101E7000D890143615361636E806FAE1050E141217
:101E8000168A176A14C0E6FF15C0E6FF16C0E6FF03
:101E900017C0E6FF06EC05F0E552E552E552E552C3
:101EA000E66A030EE66EEB0EE66EE66A06EC05F0F9
:101EB000E552E552E552E5526FDD6EDD50EC05F07E
:101EC000080E0101D227000ED323D423D523010EFF
:101ED000DB2A97D6ACEC05F0DDEC05F05AEC05F00A
:101EE00050EC05F00001876B17D6D20EE96E010E9B
:101EF000EA6EEE5001014C5DEE504D59EE504E59D8
:101F0000EE504F5903E30101035102E10001626BFE
:101F10000001625102E1B5EC38F00101026BF56E8F
:101F20000A0EE15C02E2E16AE552E16EF550E5522B
:101F3000E7CFD9FF1200D9CFE6FFE1CFD9FF0C0ED2
:101F4000E126100EDF6E4C0EE96E010EEA6E010105
:101F50004851EE5C4951EE584A51EE584B51EE58FB
:101F600003E20001636BA2D20101030EEC6F0001DA
:101F7000635124E1010E636F0001876B400E875DA2
:101F80000EE28751E96EEA6AD890E936EA36500ED9
:101F9000E926010EEA22EE6AED6A872BEFD7876BFE
:101FA00004EC38F048C1DDF149C1DEF14AC1DFF18E
:101FB0004BC1E0F10001876B2FEC06F0DD0EE96EFE
:101FC000010EEA6EEE5001014C5DEE504D59EE509F
:101FD0004E59EE504F5901E24FD2030E0101022536
:101FE0000101EC5D01E348D2DF500001875D4CE266
:101FF000030E010102250101EC5D46E2EC29E96EC8
:10200000EA6AE9BEEA68010EE926010EEA22EF500B
:10201000E66E00018751E96EEA6AD890E936EA3641
:10202000500EE926010EEA22E552E750EE6EED6A07
:102030008751E96EEA6AD890E936EA36500EE92609
:10204000010EEA22EE50ED6EEF6AECC1E9FFEA6A9A
:10205000E9BEEA68010EE926010EEA22EF50146E8D
:10206000156A8751E96EEA6AD890E936EA36500E69
:10207000E926010EEA221450EE121550ED12872BBC
:10208000040E0101EC27B0D7DF500001875D03E0AB
:102090000101035193E15A0EE66EE66A240EE66EE4
:1020A000E66A06EC05F0E552E552E552E5520A0E05
:1020B000E66E3B0EE66E880EE66EE66A06EC05F00E
:1020C000E552E552E552E552060EDB6A070EDB6A81
:1020D000010EDB6ADBCF14F0030EE76E1418E8AED6
:1020E00002D0143403D0E750D880145401E2B9D19F
:1020F000020EDDC1DBFF030EDEC1DBFF040EDB6A77
:10210000050EDB6AD950020FE96EDACFEAFF040E42
:10211000E76ED890EF36010EEB36020EEB36030E6B
:10212000EB36E706F6E1F00EE66E070EE66E200EE1
:10213000E66EE66A06EC05F0E552E552E552E55238
:10214000900EE66E010EE66E880EE66EE66A06EC0E
:1021500005F0E552E552E552E552020EDBCF14F0F0
:10216000030EDBCF15F0040EDBCF16F0050EDBCF30
:1021700017F0070E1412168A14C0E6FF15C0E6FF0A
:1021800016C0E6FF17C0E6FF06EC05F0E552E55283
:10219000E552E552060EDBCFE9FF070EDBCFEAFF83
:1021A000010ED890E936EA36E806FBE1500EE92642
:1021B000010EEA22EECF14F0EFCF15F0080E14C096
:1021C000DBFF090E15C0DBFF0A0EDB6A0B0EDB6AB4
:1021D000040E186ED950080FE96EDACFEAFF1850D6
:1021E0001F0BEECF14F0EECF15F0EECF16F0EECFC2
:1021F00017F007E0D8901436153616361736E8066D
:10220000F9E1168A14C0E6FF15C0E6FF16C0E6FF26
:1022100017C0E6FF06EC05F0E552E552E552E5523F
:10222000010EE76E060EDBCFE9FF070EDBCFEAFFFC
:10223000E750E926000EEA22010ED890E936EA3688
:10224000E806FBE1500EE926010EEA22EECF14F07B
:10225000EFCF15F0080E14C0DBFF090E15C0DBFF31
:102260000A0EDB6A0B0EDB6A040E186ED950080FDB
:10227000E96EDACFEAFF18501F0BEECF14F0EECF65
:1022800015F0EECF16F0EECF17F007E0D890143629
:10229000153616361736E806F9E11480168A14C08A
:1022A000E6FF15C0E6FF16C0E6FF17C0E6FF06EC26
:1022B00005F0E552E552E552E552020EE76E060ED4
:1022C000DBCFE9FF070EDBCFEAFFE750E926000E80
:1022D000EA22010ED890E936EA36E806FBE1500E14
:1022E000E926010EEA22EECF14F0EFCF15F0080E2A
:1022F00014C0DBFF090E15C0DBFF0A0EDB6A0B0EF4
:10230000DB6A040E186ED950080FE96EDACFEAFFC7
:1023100018501F0BEECF14F0EECF15F0EECF16F0E5
:10232000EECF17F007E0D89014361536163617366C
:10233000E806F9E11482168A14C0E6FF15C0E6FF2C
:1023400016C0E6FF17C0E6FF06EC05F0E552E552C1
:10235000E552E552030EE76E060EDBCFE9FF070EEE
:10236000DBCFEAFFE750E926000EEA22010ED89003
:10237000E936EA36E806FBE1500EE926010EEA22CC
:10238000EECF14F0EFCF15F0080E14C0DBFF090EEE
:1023900015C0DBFF0A0EDB6A0B0EDB6A040E186E3B
:1023A000D950080FE96EDACFEAFF18501F0BEECFB5
:1023B00014F0EECF15F0EECF16F0EECF17F007E0E9
:1023C000D8901436153616361736E806F9E1030E9E
:1023D0001412168A14C0E6FF15C0E6FF16C0E6FF09
:1023E00017C0E6FF06EC05F0E552E552E552E5526E
:1023F000D950060FE96EDACFEAFF040EEE26000E82
:10240000ED22E66A030EE66EEB0EE66EE66A06EC79
:1024100005F0E552E552E552E55250EC05F07FEC4F
:1024200005F050EC05F050EC05F07FEC05F050ECB9
:1024300005F050EC05F07FEC05F050EC05F050ECA9
:1024400005F07FEC05F050EC05F050EC05F0080EBF
:102450000101DD27000EDE23DF23E023010EDB2A4E
:1024600039D6ACEC05F0DDEC05F05AEC05F050EC9B
:1024700005F00001876BA2D5DD0EE96E010EEA6E54
:10248000EE5001014C5DEE504D59EE504E59EE505C
:102490004F5903E30101035102E10001636B0001A5
:1024A000635102E1B5EC38F00101026BF56E0C0EE0
:1024B000E15C02E2E16AE552E16EF550E552E7CFF8
:1024C000D9FF120004EC38F02FEC06F02A0EE66E6D
:1024D000070EE66E240EE66EE66A06EC05F0E5529F
:1024E000E552E552E5520A0EE66E3B0EE66E880EA8
:1024F000E66EE66A06EC05F0E552E552E552E55275
:10250000ACEC05F0DDEC05F0B5EC38F005EC0DF0C9
:102510000101620E016F1200D9CFE6FFE1CFD9FFB2
:10252000050EE12604EC38F02FEC06F0070EE66EFF
:10253000E66A200EE66EE66A06EC05F0E552E55224
:10254000E552E552DF6ADFCF14F0070EE76E14188C
:10255000E8AE02D0E73402D0E750145C01E3FDD0CE
:102560008A0EE66EE66A240EE66EE66A06EC05F072
:10257000E552E552E552E5520A0EE66E3B0EE66E76
:10258000880EE66EE66A06EC05F0E552E552E55285
:10259000E552800EE66E0F0EE66E200EE66EE66ADF
:1025A00006EC05F0E552E552E552E552900EE66E76
:1025B000010EE66E880EE66EE66A06EC05F0E55260
:1025C000E552E552E552040EDF02F350040FE96EC6
:1025D000EA6AE9BEEA68010EE926010EEA22EFCFB7
:1025E00014F0010E14C0DBFF020EDB6A030EDB6A7F
:1025F000040EDB6AD950010FE96EDACFEAFFEF5023
:10260000EE6AEFCFF4FFEE6EEF50F4CFEEFFEF6E19
:10261000040EDF02F350030FE96EEA6AE9BEEA68CE
:10262000010EE926010EEA22EFCF14F0156A166AB0
:10263000176AD950010FE96EDACFEAFFEE50141293
:10264000EE501512EE501612EE501712010E14C075
:10265000DBFF020E15C0DBFF030E16C0DBFF040E0E
:1026600017C0DBFFD950010FE96EDACFEAFF040E85
:10267000E76ED890EF36010EEB36020EEB36030E06
:10268000EB36E706F6E1010EDBCF14F0020EDBCFEE
:1026900015F0030EDBCF16F0040EDBCF17F0168A11
:1026A00014C0E6FF15C0E6FF16C0E6FF17C0E6FF40
:1026B00006EC05F0E552E552E552E552E66A030EF6
:1026C000E66EEB0EE66EE66A06EC05F0E552E552C4
:1026D000E552E552960EE66E1B0EE66EBB0EE66EFA
:1026E000E66A06EC05F0E552E552E552E55250EC9B
:1026F00005F050EC05F0ACEC05F0610EE66EE70E6F
:10270000E66EA80EE66EE66A06EC05F0E552E552C6
:10271000E552E55250EC05F050EC05F07FC0E6FFC5
:1027200080C0E6FFA0EC33F0E552E552610EE66EA4
:10273000E70EE66EA90EE66EE66A06EC05F0E552D7
:10274000E552E552E55250EC05F050EC05F05AEC3C
:1027500005F050EC05F0DF2AF6D6B5EC38F0F56E52
:10276000050EE15C02E2E16AE552E16EF550E552E8
:06277000E7CFD9FF1200C3
:0A277600D9CFE6FFE1CFD9FFFE0E38
:10278000DBCFE6FF060EE66E58EC36F0E552E5527A
:10279000010EE66EE66AA0EC33F0E552E552E55232
:1027A000E7CFD9FF1200D9CFE6FFE1CFD9FF020E64
:1027B000E126FD0EDBCFDEFFDBCFDDFFE66A010E9B
:1027C000E66E58EC36F0E552E552DFCFE6FF080E34
:1027D000E66E58EC36F0E552E552010EDBCFE6FF2F
:1027E000060EE66E58EC36F0E552E552E66A010E4A
:1027F000E66E58EC36F0E552E552010EE66EE66AFA
:10280000A0EC33F0E552E552F56E020EE15C02E217
:10281000E16AE552E16EF550E552E7CFD9FF1200CB
:10282000D9CFE6FFE1CFD9FF020EE1263AEC36F030
:10283000010EE66E58EC37F0E552080EE66E58ECE5
:1028400037F0E552DF6E060EE66E58EC37F0E552D3
:10285000E76E010EE7CFDBFFE66E58EC37F0E5528E
:1028600049EC36F0010EE66EE66AA0EC33F0E55274
:10287000E552DECF14F0DDCF15F014C0F3FF15C024
:10288000F4FFF56E020EE15C02E2E16AE552E16EF0
:10289000F550E552E7CFD9FF1200D9CFE6FFE1CFDF
:1028A000D9FF020EE12604EC38F0E66A64DFE55257
:1028B000000EE66EE66A77DFE552E552060EE66E3A
:1028C0005ADFE552060EE66E56DFE552060EE66E5C
:1028D00052DFE552060EE66E4EDFE552060EE66E5C
:1028E0004ADFE552060EE66E46DFE552040EE66E5E
:1028F00042DFE55295DFF3CFDEFFF4CFDDFFB5EC2D
:1029000038F0DECF14F0DDCF15F014C0F3FF15C0A2
:10291000F4FFF56E020EE15C02E2E16AE552E16E5F
:10292000F550E552E7CFD9FF1200D9CFE6FFE1CF4E
:10293000D9FF0B0EE126030EF36E060EF3CFDBFF7D
:102940000101026B036B01013F0E006F4C0EE96E3B
:10295000010EEA6E01014851EE5C4951EE584A51B0
:10296000EE584B51EE5803E20001606B02D10001BA
:10297000605127E104EC38F00001010E606FDE6A5F
:10298000DE6ADE6ADD6ADD52DD52D9CFE9FFDACFD9
:10299000EAFF01014851EE5C4951EE584A51EE58A8
:1029A0004B51EE580EE2060EE66EE5DEE552D9CF4B
:1029B000E9FFDACFEAFFEE2A000EEE22EE22EE2247
:1029C000E4D7480EE96E010EEA6EEE5001014C5D4F
:1029D000146EEE504D59156EEE504E59166EEE5067
:1029E0004F59176E142A000E152216221722070EB1
:1029F00014C0DBFF080E15C0DBFF090E16C0DBFF9D
:102A00000A0E17C0DBFF070EDBCF05F0080EDBCF89
:102A100006F0090EDBCF07F00A0EDBCF08F0083412
:102A2000000E081809E6D8801E0E0554000E065444
:102A3000000E0754000E08540CE21E0EF36E070E33
:102A4000F3CFDBFF080EDB6A090EDB6A0A0EDB6AD6
:102A500002D00001606B070EDBCF04F0080EDBCF65
:102A600005F0090EDBCF06F00A0EDBCF07F0020EF1
:102A7000096E0A6A0B6A0C6AD2EC3EF000C002F1E1
:102A800048C1DFFF010E49C1DBFF020E4AC1DBFF77
:102A9000030E4BC1DBFFD950070FE96EDACFEAFF17
:102AA00001014851EE24146E4951EE20156E4A5131
:102AB000EE20166E4B51EE20176ED9CFE9FFDACF1C
:102AC000EAFF1450EE5C1550EE581650EE581750B1
:102AD000EE5833E2040EE66E4EDEE552A1DE040E41
:102AE000F3CFDBFF050EF4CFDBFF060EDBCFF3FFEA
:102AF000DB2AF350EA6A010FE96E010EEA22040EA6
:102B0000DBCFEFFF060EDBCFF3FFDB2AF350EA6AE1
:102B1000010FE96E010EEA22050EDBCFEFFF060E74
:102B2000E66E29DEE552D9CFE9FFDACFEAFFEE2AD9
:102B3000000EEE22EE22EE22AED70101010E036F4F
:102B4000D950070FE96EDACFEAFF01014851EE24B0
:102B5000486F4951EE20496F4A51EE204A6F4B5160
:102B6000EE204B6F0001605104E10101036BB5ECF5
:102B700038F0F56E0B0EE15C02E2E16AE552E16EBF
:102B8000F550E552E7CFD9FF1200D9CFE6FFE1CFEC
:102B9000D9FF0B0EE126030EF36E060EF3CFDBFF1B
:102BA0000101026B036B01013F0E006F4C0EE96ED9
:102BB000010EEA6E01014851EE5C4951EE584A514E
:102BC000EE584B51EE5803E20001616BE3D0000177
:102BD000615127E104EC38F00001010E616FDE6AFB
:102BE000DE6ADE6ADD6ADD52DD52D9CFE9FFDACF77
:102BF000EAFF01014851EE5C4951EE584A51EE5846
:102C00004B51EE580EE2060EE66EB5DDE552D9CF19
:102C1000E9FFDACFEAFFEE2A000EEE22EE22EE22E4
:102C2000E4D7480EE96E010EEA6EEE5001014C5DEC
:102C3000146EEE504D59156EEE504E59166EEE5004
:102C40004F59176E142A000E152216221722070E4E
:102C500014C0DBFF080E15C0DBFF090E16C0DBFF3A
:102C60000A0E17C0DBFF070EDBCF05F0080EDBCF27
:102C700006F0090EDBCF07F00A0EDBCF08F00834B0
:102C8000000E081809E6D8803C0E0554000E0654C4
:102C9000000E0754000E08540CE23C0EF36E070EB3
:102CA000F3CFDBFF080EDB6A090EDB6A0A0EDB6A74
:102CB00002D00001616B070EDBCF02F148C1DFFFDC
:102CC000010E49C1DBFF020E4AC1DBFF030E4BC1FF
:102CD000DBFFD950070FE96EDACFEAFF0101485157
:102CE000EE24146E4951EE20156E4A51EE20166EF8
:102CF0004B51EE20176ED9CFE9FFDACFEAFF14501F
:102D0000EE5C1550EE581650EE581750EE5826E26D
:102D1000050EE66E30DDE55283DD040EF3CFDBFFFA
:102D2000050EF4CFDBFF060EDBCFF3FFDB2AF350FB
:102D3000EA6A010FE96E010EEA22040EDBCFEFFF13
:102D4000060EE66E18DDE552D9CFE9FFDACFEAFFCD
:102D5000EE2A000EEE22EE22EE22BBD70101010E7A
:102D6000036FD950070FE96EDACFEAFF010148512E
:102D7000EE24486F4951EE20496F4A51EE204A6FC8
:102D80004B51EE204B6F0001615104E10101036BD7
:102D9000B5EC38F0F56E0B0EE15C02E2E16AE5524B
:102DA000E16EF550E552E7CFD9FF1200D9CFE6FF2B
:102DB000E1CFD9FF070EE126030EF36E040EF3CF29
:102DC000DBFF0101080E026F036B01013F0E006F74
:102DD00004EC38F0E66ACFDCE552000EE66EE66AF7
:102DE000E2DCE552E552DE6A200EDE6EDE6ADD6A66
:102DF000DD52DD52D9CFE9FFDACFEAFF01014851B8
:102E0000EE5C4951EE584A51EE584B51EE580EE2E5
:102E1000060EE66EB0DCE552D9CFE9FFDACFEAFF65
:102E2000EE2A000EEE22EE22EE22E4D748C1DFFFAA
:102E3000010E49C1DBFF020E4AC1DBFF030E4BC18D
:102E4000DBFFD9CFE9FFDACFEAFFEE5001014C5D9D
:102E5000EE504D59EE504E59EE504F5932E3040E9C
:102E6000E66E89DCE552DCDC050EF3CFDBFF060EF7
:102E7000F4CFDBFF040EDBCFF3FFDB2AF350EA6A6B
:102E8000010FE96E010EEA22050EDBCFEFFF040E03
:102E9000DBCFF3FFDB2AF350EA6A010FE96E010E84
:102EA000EA22060EDBCFEFFFE66E65DCE552D9CFF6
:102EB000E9FFDACFEAFFEE2A000EEE22EE22EE2242
:102EC000C0D7040EDB50FD0F0101026FB5EC38F0E6
:102ED000F56E070EE15C02E2E16AE552E16EF55043
:102EE000E552E7CFD9FF1200D6EF16F004EC38F028
:102EF000000171512E0A01E1D8D0030A01E1B0D0DE
:102F0000010A01E17ED0070A68E0010A01E1A8D0C8
:102F1000030A36E0010A01E02ED1E66A2CDCE55214
:102F2000000EE66EE66A3FDCE552E552020EE66E02
:102F300022DCE552E6683F0EE66E35DCE552E552EE
:102F4000090EE66E18DCE552080EE66E14DCE5525A
:102F5000000183517925146E84517A21156E14C0B5
:102F6000E6FFE66EA0EC33F0E552E552020EE66EA7
:102F7000BBEC13F0E552E6683F0EE66E14DC16D0AB
:102F8000090EE66EBBEC13F0E552080EE66EBBECE4
:102F900013F0E552000183517925146E84517A2192
:102FA000156E14C0E6FFE66EA0EC33F0E552E55274
:102FB0000B0EE66EBBEC13F0E552080EE66EBBECB2
:102FC00013F0E552000183517925146E84517A2162
:102FD000156E14C0E6FFE66E64D0E66ABBEC13F033
:102FE000E552000EE66EE66AD3EC13F0E552E552C8
:102FF000020EE66EBBEC13F0E552E6683F0EE66E9D
:1030000036D0E66ABBEC13F0E552000EE66EE66AD7
:10301000D3EC13F0E552E552090EE66EBBEC13F06B
:10302000E552080EE66EBBEC13F0E552030EE66EB9
:10303000E66ADEEC33F0E552E552110EE66EBBECCB
:1030400013F0E5520B0EE66EBBEC13F0E552030EE7
:10305000E66EE66ADEEC33F0E552E552110E87D0FB
:10306000E66ABBEC13F0E552000EE66EE66AD3ECBE
:1030700013F0E552E552090EE66EBBEC13F0E55293
:1030800083C0E6FF84C0E6FFA0EC33F0E552E552D2
:103090000B0EE66EBBEC13F0E55283C0E6FF84C076
:1030A000E6FFA0EC33F0E55265D0020EE66EBBEC15
:1030B00013F0E552E6683F0EE66ED3EC13F0E552EE
:1030C000E552010EE66EBBEC13F0E552070EE66E1C
:1030D000BBEC13F0E552080EE66EBBEC13F0E552C4
:1030E000000183517925146E84517A21156E14C024
:1030F000E6FFE66EA0EC33F0E552E552010EE66E17
:10310000BBEC13F0E552070EE66EBBEC13F0E55294
:10311000030EE66EBBEC13F0E552E6683F0EE66E7A
:10312000D3EC13F0E552E552010EE66EBBEC13F062
:10313000E552070EE66EBBEC13F0E552080EE66EA4
:10314000BBEC13F0E552000183517925146E8451D4
:103150007A21156E14C0E6FFE66EA0EC33F0E5525E
:10316000E552010EE66EBBEC13F0E552070EE66E7B
:10317000BBEC13F0E552B5EF38F0060EE66EBBEC93
:1031800013F0E552060EE66EBBEC13F0E552060EA8
:10319000E66EBBEC13F0E552060EE66EBBEC13F0E8
:1031A000E552060EE66EBBEC13F0E552060EE66E37
:1031B000BBEC13F0E552060EE66EBBEC13F0E552E5
:1031C000120004EC38F0000172512E0A01E179D0AE
:1031D000030A70E0010A3DE0070A20E0010A0FE05F
:1031E000030A0BE0010A01E0A6D0E66ABBEC13F08B
:1031F000E552000EE66EE66A6BD078DE9CD0E66A99
:10320000BBEC13F0E552F00EE66E3F0EE66ED3EC2B
:1032100013F0E552E552B1DF1F0E41D0E66ABBEC78
:1032200013F0E552F00EE66E3F0EE66ED3EC13F0AF
:10323000E552E552A2DF020EE66EBBEC13F0E5525A
:10324000E6683F0EE66ED3EC13F0E552E552090E48
:1032500026D0090EE66EBBEC13F0E55283C0E6FF04
:1032600084C0E6FFA0EC33F0E552E552E66ABBEC21
:1032700013F0E552000EE66EE66AD3EC13F0E55269
:10328000E552090EE66EBBEC13F0E55283C0E6FF93
:1032900084C0E6FFA0EC33F0E552E5520B0EE66E7B
:1032A000BBEC13F0E55283C0E6FF84C0E6FFA0EC60
:1032B00033F03FD0E66ABBEC13F0E552F00EE66E59
:1032C00005D0E66ABBEC13F0E552E6683F0EE66E09
:1032D000D3EC13F0E552E55250DF010EE66EBBEC85
:1032E00013F0E552070EE66EBBEC13F0E552080E44
:1032F000E66EBBEC13F0E552000183517925146EA4
:1033000084517A21156E14C0E6FFE66EA0EC33F00E
:10331000E552E552010EE66EBBEC13F0E552070EE6
:10332000E66EBBEC13F0E552320EE66EE66ADEECBA
:1033300033F0E552E552B5EF38F0D9CFE6FFE1CFF3
:10334000D9FF030EE12674C0DFFF4C0EE96E010EBB
:10335000EA6E01014851EE5C4951EE584A51EE586F
:103360004B51EE5803E20001626BA0D1030EF36EE5
:10337000020EF3CFDBFF0001625101E07BD00001C0
:10338000876B200E875D0EE28751E96EEA6AD8905E
:10339000E936EA36500EE926010EEA22EE6AED6AB7
:1033A000872BEFD7876B04EC38F00001010E626FBA
:1033B0000101D26BD36BD46BD56BDFCF18F0196AD8
:1033C0001A6A1B6A18AE03D019681A681B6848C1CC
:1033D00004F049C105F04AC106F04BC107F018C01E
:1033E00009F019C00AF01AC00BF01BC00CF037EC42
:1033F0003FF000500101485D146E01504959156EAF
:1034000002504A59166E03504B59176E1450010161
:10341000D25D1550D3591650D4591750D5590CE2D6
:10342000060EE66EBBEC13F0E5520101D22B000E46
:10343000D323D423D523C1D7DFCF14F0156A166A5E
:10344000176A14AE03D015681668176848C104F0EF
:1034500049C105F04AC106F04BC107F014C009F09C
:1034600015C00AF016C00BF017C00CF037EC3FF097
:1034700000C087F0D20EE96E010EEA6EEE50010137
:103480004C5DEE504D59EE504E59EE504F5901E201
:10349000F5D0030E01010225F36E020EDBCFF4FF1F
:1034A000F350F45C01E3EAD0DF500001875D43E2B2
:1034B000030E01010225F36E020EDBCFF4FFF35081
:1034C000F45C39E2020EDB28E96EEA6AE9BEEA68DA
:1034D000010EE926010EEA22EF50176A176E166AEE
:1034E000020EDBCFE9FFEA6AE9BEEA68010EE926CF
:1034F000010EEA22EF5000011624146E000E172070
:10350000156E00018751E96EEA6AD890E936EA360D
:10351000500EE926010EEA2214C0EEFF15C0EDFFA1
:10352000872B020E146EDBCFE7FFE850E726020E72
:10353000E7CFDBFFB9D7DF500001875D03E0010172
:10354000035198E10001876BDF50875D24E2020E92
:10355000E66EBBEC13F0E55200018751E96EEA6AB2
:10356000D890E936EA36500EE926010EEA22EECF6F
:10357000E6FFEFCFE6FFD3EC13F0E552E552DF04B0
:103580000001875D05E2060EE66EBBEC13F0E55226
:103590000001872BD9D700016D512E0A3BE0030AA9
:1035A0002CE0010A1BE0070A17E0010A06E0030A03
:1035B00004E0010A41E1180E21D0180EE66EBBECC2
:1035C00013F0E55279C0E6FF7AC0E6FFA0EC33F0D5
:1035D000E552E552170E2CD0080E1DD0180EE66EDF
:1035E000BBEC13F0E55279C0E6FF7AC0E6FFA0EC31
:1035F00033F0E552E5520A0E1BD0080EE66EBBEC26
:1036000013F0E55279C0E6FF7AC0E6FFA0EC33F094
:10361000E55211D0180EE66EBBEC13F0E55279C0FE
:10362000E6FF7AC0E6FFA0EC33F0E552E5520E0E5D
:10363000E66EBBEC13F0E552C80EE66EE66AA0EC4F
:1036400033F0E552E552060EE66EBBEC13F0E552A0
:10365000DFCF14F0156A166A176A14AE03D0156826
:103660001668176814500101D2271550D32316503D
:10367000D4231750D5230001876BFCD6D20EE96EF8
:10368000010EEA6EEE5001014C5DEE504D59EE50C8
:103690004E59EE504F5903E30101035102E100017D
:1036A000626B0001625102E1B5EC38F0F56E030E79
:1036B000E15C02E2E16AE552E16EF550E552E7CFE6
:1036C000D9FF1200D9CFE6FFE1CFD9FF030EE126E3
:1036D00075C0DFFF4C0EE96E010EEA6E0101485124
:1036E000EE5C4951EE584A51EE584B51EE5803E208
:1036F0000001636B5DD1030EF36E020EF3CFDBFFAF
:103700000001635101E076D00001876B200E875DD8
:1037100009E28751EA6A500FE96E010EEA22EF6A68
:10372000872BF4D7876B04EC38F00001010E636F30
:103730000101D66BD76BD86BD96BDFCF18F0196A44
:103740001A6A1B6A18AE03D019681A681B6848C148
:1037500004F049C105F04AC106F04BC107F018C09A
:1037600009F019C00AF01AC00BF01BC00CF037ECBE
:103770003FF000500101485D146E01504959156E2B
:1037800002504A59166E03504B59176E14500101DE
:10379000D65D1550D7591650D8591750D9590CE243
:1037A000060EE66EBBEC13F0E5520101D62B000EBF
:1037B000D723D823D923C1D7DFCF14F0156A166ACF
:1037C000176A14AE03D015681668176848C104F06C
:1037D00049C105F04AC106F04BC107F014C009F019
:1037E00015C00AF016C00BF017C00CF037EC3FF014
:1037F00000C087F0D60EE96E010EEA6EEE500101B0
:103800004C5DEE504D59EE504E59EE504F5901E27D
:10381000B7D0030E01010225F36E020EDBCFF4FFD9
:10382000F350F45C01E3ACD0DF500001875D3DE272
:10383000030E01010225F36E020EDBCFF4FFF350FD
:10384000F45C33E2020EDB28E96EEA6AE9BEEA685C
:10385000010EE926010EEA22EF50176A176E166A6A
:10386000020EDBCFE9FFEA6AE9BEEA68010EE9264B
:10387000010EEA22EF5000011624146E000E1720EC
:10388000156E00018751EA6A500FE96E010EEA22B7
:1038900014C0EFFF872B020E146EDBCFE7FFE8505A
:1038A000E726020EE7CFDBFFBFD7DF500001875DC1
:1038B00003E0010103519EE10001876BDF50875D4A
:1038C0001FE2030EE66EBBEC13F0E55200018751D8
:1038D000EA6A500FE96E010EEA22EF50E66EE66AE0
:1038E000D3EC13F0E552E552DF040001875D05E2F9
:1038F000060EE66EBBEC13F0E5520001872BDED717
:1039000000016E51290A0FE0010A1FE1080EE66E60
:10391000BBEC13F0E5527DC0E6FF7EC0E6FFA0ECF5
:1039200033F0E55211D0180EE66EBBEC13F0E55201
:1039300079C0E6FF7AC0E6FFA0EC33F0E552E5522D
:10394000170EE66EBBEC13F0E552060EE66EBBEC0E
:1039500013F0E552DFCF14F0156A166A176A14AE39
:1039600003D015681668176814500101D627155042
:10397000D7231650D8231750D9230001876B3AD785
:10398000D60EE96E010EEA6EEE5001014C5DEE506E
:103990004D59EE504E59EE504F5903E3010103517A
:1039A00002E10001636B0001635102E1B5EC38F004
:1039B000F56E030EE15C02E2E16AE552E16EF5505C
:1039C000E552E7CFD9FF1200D9CFE6FFE1CFD9FF0B
:1039D000060EE126030EF36EDB6E04EC38F0E66AA9
:1039E000BBEC13F0E552000EE66EE66AD3EC13F082
:1039F000E552E552DE6A200EDD6EDECF14F0DDCF3B
:103A000015F0166A176A01014851145C495115589E
:103A10004A5116584B5117580AE2060EE66EBBEC97
:103A200013F0E552DF2A010EE8E3DB2AE6D7DECF0A
:103A300014F0DDCF15F0166A176A145001014C5DC1
:103A400015504D5916504E5917504F5901E2D3D0C9
:103A50002A0E00016F5D12E1080EE66EBBEC13F05A
:103A6000E55281C0E6FF82C0E6FFA0EC33F0E552EC
:103A7000E552170EE66EBBEC13F0E552010EF36E45
:103A8000020EF3CFDBFFDBCF14F000017651D880BC
:103A9000145454E3030EDB28E96EEA6AE9BEEA68CF
:103AA000010EE926010EEA22EF50166E176A176E14
:103AB000166A030EDBCFE9FFEA6AE9BEEA68010E87
:103AC000E926010EEA22EF5000011624146E000EC2
:103AD0001720156E040E14C0DBFF050E15C0DBFFAA
:103AE000020E146E030EDBCFE7FF1450E726030E21
:103AF000E7CFDBFF010EDE26000EDD22020EE66EB2
:103B0000BBEC13F0E552040EDBCFE6FF050EDBCF76
:103B1000E6FFD3EC13F0E552E55200017651F36E67
:103B2000020EDBCFF4FFF350F45C05E2060EE66E06
:103B3000BBEC13F0E552020EDB2AA5D76F512E0A1B
:103B40003BE0030A2CE0010A1BE0070A17E0010A28
:103B500006E0030A04E0010A41E1180E21D0180E24
:103B6000E66EBBEC13F0E55281C0E6FF82C0E6FFD3
:103B7000A0EC33F0E552E552170E2CD0080E1DD004
:103B8000180EE66EBBEC13F0E55281C0E6FF82C072
:103B9000E6FFA0EC33F0E552E5520A0E1BD0080E0A
:103BA000E66EBBEC13F0E55281C0E6FF82C0E6FF93
:103BB000A0EC33F0E55211D0180EE66EBBEC13F01A
:103BC000E55281C0E6FF82C0E6FFA0EC33F0E5528B
:103BD000E5520E0EE66EBBEC13F0E552C80EE66E33
:103BE000E66AA0EC33F0E552E552060EE66EBBEC59
:103BF00013F0E5521CD7B5EC38F0F56E060EE15C1B
:103C000002E2E16AE552E16EF550E552E7CFD9FFF5
:103C10001200D9CFE6FFE1CFD9FF060EE12604EC72
:103C200038F0030EF36EDB6EE66ABBEC13F0E55280
:103C3000000EE66EE66AD3EC13F0E552E552DE6A5A
:103C4000200EDD6EDECF14F0DDCF15F0166A176A98
:103C500001014851145C495115584A5116584B51AD
:103C600017580AE2060EE66EBBEC13F0E552DF2AA7
:103C7000010EE8E3DB2AE6D7DECF14F0DDCF15F046
:103C8000166A176A145001014C5D15504D591650B3
:103C90004E5917504F5901E2BFD0010EF36E020E7C
:103CA000F3CFDBFFDBCF14F000017751D880145441
:103CB00054E3030EDB28E96EEA6AE9BEEA68010E06
:103CC000E926010EEA22EF50166E176A176E166A81
:103CD000030EDBCFE9FFEA6AE9BEEA68010EE926D6
:103CE000010EEA22EF5000011624146E000E172078
:103CF000156E040E14C0DBFF050E15C0DBFF020EAF
:103D0000146E030EDBCFE7FF1450E726030EE7CF58
:103D1000DBFF010EDE26000EDD22020EE66EBBEC9E
:103D200013F0E552040EDBCFE6FF050EDBCFE6FF16
:103D3000D3EC13F0E552E55200017751F36E020E19
:103D4000DBCFF4FFF350F45C05E2060EE66EBBEC4D
:103D500013F0E552020EDB2AA5D770512E0A3DE082
:103D6000030A2EE0010A1DE0070A19E0010A08E033
:103D7000030A04E0010A43E1180E23D0080E21D003
:103D8000180EE66EBBEC13F0E5527FC0E6FF80C074
:103D9000E6FFA0EC33F0E552E552170E2CD0080EEA
:103DA0001DD0180EE66EBBEC13F0E5527FC0E6FFA7
:103DB00080C0E6FFA0EC33F0E552E5520A0E1BD0BE
:103DC000080EE66EBBEC13F0E5527FC0E6FF80C044
:103DD000E6FFA0EC33F0E55211D0180EE66EBBEC16
:103DE00013F0E5527FC0E6FF80C0E6FFA0EC33F0A1
:103DF000E552E5520E0EE66EBBEC13F0E552C80E2E
:103E0000E66EE66AA0EC33F0E552E552060EE66E89
:103E1000BBEC13F0E55230D7B5EC38F0F56E060E7A
:103E2000E15C02E2E16AE552E16EF550E552E7CF6E
:043E3000D9FF1200A4
:0C3E3400000EE66EE66AF4D8E552E55296
:103E40001200A60EE66E9C0EE66EECD8E552E55228
:103E50001200A60EE66E8E0EE66EE4D8E552E5522E
:103E60001200D9CFE6FFE1CFD9FF040EE126D9CF6A
:103E7000E9FFDACFEAFFFB0EDBCFEEFFFC0EDBCF74
:103E8000EEFFFD0EDBCFEEFFFE0EDBCFEEFF020EF0
:103E9000DB50146E156AE8500E0E151214C0E6FFC2
:103EA00015C0E6FFBFD8E552E552F80EE66E6E0E7D
:103EB000E66EB8D8E552E552010EDB50146E156A75
:103EC000E8500E0E151214C0E6FF15C0E6FFAAD882
:103ED000E552E552F70EE66E6E0EE66EA3D8E55299
:103EE000E552DF50146E156AE8500E0E151214C01C
:103EF000E6FF15C0E6FF96D8E552E552F60EE66EEF
:103F00006E0EE66E8FD8E552E552F56E040EE15C5A
:103F100002E2E16AE552E16EF550E552E7CFD9FFE2
:103F20001200D9CFE6FFE1CFD9FFFE0EDBCF14F0B0
:103F3000156A166A3C0E1612176A16BE176814C068
:103F4000E6FF15C0E6FF16C0E6FF17C0E6FF89DFF3
:103F5000E552E552E552E552E552E7CFD9FF1200AE
:103F6000D9CFE6FFE1CFD9FFFE0EDBCFE6FF040E8F
:103F7000E66E58EC36F0E552E552010EE66EB4EC12
:103F80003FF0E552E552E7CFD9FF1200D9CFE6FF67
:103F9000E1CFD9FF020EE126FD0EDBCFDEFFDBCF46
:103FA000DDFFDFCFE6FF080EE66E58EC36F0E55297
:103FB000E552010EDBCFE6FF080EE66E58EC36F058
:103FC000E552E552010EE66EB4EC3FF0E552F56EB7
:103FD000020EE15C02E2E16AE552E16EF550E55263
:103FE000E7CFD9FF1200D9CFE6FFE1CFD9FFE652E4
:103FF0003AEC36F0080EE66E58EC37F0E552080E53
:10400000E66E58EC37F0E552DF6E49EC36F0010E03
:10401000E66EB4EC3FF0E552DF50E552E552E7CFF3
:10402000D9FF1200D9CFE6FFE1CFD9FFE66A98DFCA
:10403000E552FD0EDBCFE6FFFE0EDBCFE6FFA6DF8F
:10404000E552E552E552E7CFD9FF1200D9CFE6FF9E
:10405000E1CFD9FF0C0EE66E83DFE552FD0EDBCF1C
:10406000E6FFFE0EDBCFE6FF91DFE552E552E552BB
:10407000E7CFD9FF1200D9CFE6FFE1CFD9FF0D0E70
:10408000E66E6EDFE552FD0EDBCFE6FFFE0EDBCF08
:10409000E6FF7CDFE552E552E552E7CFD9FF12009B
:1040A000D9CFE6FFE1CFD9FF0F0EE66E59DFE5521B
:1040B000FD0EDBCFE6FFFE0EDBCFE6FF67DFE5524E
:1040C000E552E552E7CFD9FF1200D9CFE6FFE1CFA5
:1040D000D9FFE652B6EC35F0DF6ADFCF14F0030EFD
:1040E000E76E1418E8AE02D0E73402D0E750145C53
:1040F0000DE2A7EC35F0010EE66EE66AA0EC33F0B7
:10410000E552E55298EC35F0DF2AE7D7A7EC35F019
:10411000FD0EDBCFE6FFFE0EDBCFE6FFA0EC33F0BB
:10412000E552E55298EC35F0000EE66EE66A2EDFB9
:10413000E552E552E552E552E7CFD9FF1200D9CF5B
:10414000E6FFE1CFD9FF020EE12604EC38F0FE0EC7
:10415000E66EE6683F0EE66EE66A83DEE552E552FD
:10416000E552E552090EE66EFBDEE5523CDFDF6EFE
:10417000090EE66EF5DEE55236DFE76E010EE7CF9B
:10418000DBFFB5EC38F0DECF14F0DDCF15F014C056
:10419000F3FF15C0F4FFF56E020EE15C02E2E16A86
:1041A000E552E16EF550E552E7CFD9FF1200D9CFC5
:1041B000E6FFE1CFD9FF050EE126030EDF6E010118
:1041C000026B036B01013F0E006F4C0EE96E010E96
:1041D000EA6E01014851EE5C4951EE584A51EE58E1
:1041E0004B51EE5803E20001606BB1D00001605109
:1041F00012E104EC38F00001010E606F48C1E6FFE7
:1042000049C1E6FF4AC1E6FF4BC1E6FF2ADEE5529F
:10421000E552E552E552480EE96E010EEA6EEE50A7
:1042200001014C5D146EEE504D59156EEE504E5915
:10423000166EEE504F59176E142A000E15221622D4
:104240001722010E14C0DBFF020E15C0DBFF030EA8
:1042500016C0DBFF040E17C0DBFF010EDBCF05F03D
:10426000020EDBCF06F0030EDBCF07F0040EDBCF30
:1042700008F00834000E081809E6D8803C0E0554F2
:10428000000E0654000E0754000E08540CE23C0EBB
:10429000F36E010EF3CFDBFF020EDB6A030EDB6A67
:1042A000040EDB6A02D00001606B010EDBCF02F16D
:1042B000030EDF6EDFCF14F0156A166A176A010E5F
:1042C000DBCF18F0020EDBCF19F0030EDBCF1AF0B4
:1042D000040EDBCF1BF0030E1826000E19221A2243
:1042E0001B2217501B18E8AE02D01B3408D0185000
:1042F000145C195015581A5016581B50175811E2D3
:10430000090EE66E2DDEE5526EDEE66EDF50EA6ADD
:10431000010FE96E010EEA22E552E750EF6EDF2A47
:10432000C9D70101010E036FDB5001014827020EBE
:10433000DB504923030EDB504A23040EDB504B2392
:104340000001605104E10101036BB5EC38F0F56E3A
:10435000050EE15C02E2E16AE552E16EF550E552DC
:10436000E7CFD9FF1200D9CFE6FFE1CFD9FF0D0E7D
:10437000E126030EDF6E0101026B036B01013F0EAC
:10438000006F4C0EE96E010EEA6E01014851EE5CC1
:104390004951EE584A51EE584B51EE5803E2000194
:1043A000616B0BD1000161510DE104EC38F00001AB
:1043B000010E616FA60EE66E9E0EE66E33DEE552CE
:1043C000E5523FDD480EE96E010EEA6EEE50010146
:1043D0004C5D146EEE504D59156EEE504E59166EE2
:1043E000EE504F59176E142A000E1522162217226E
:1043F000010E14C0DBFF020E15C0DBFF030E16C05A
:10440000DBFF040E17C0DBFF010EDBCF05F0020E51
:10441000DBCF06F0030EDBCF07F0040EDBCF08F096
:104420000834000E081809E6D8803C0E0554000E2A
:104430000654000E0754000E08540CE23C0EF36EB6
:10444000010EF3CFDBFF020EDB6A030EDB6A040E04
:10445000DB6A02D00001616B010EDBCF02F1030EBB
:10446000DF6EDFCF14F0156A166A176A010EDBCF14
:1044700018F0020EDBCF19F0030EDBCF1AF0040E9A
:10448000DBCF1BF0030E1826000E19221A221B2266
:1044900017501B18E8AE02D01B3408D01850145C1B
:1044A000195015581A5016581B50175801E37BD055
:1044B000050E48C1DBFF060EDB6A070EDB6A080E3D
:1044C000DB6A090E49C1DBFF0A0EDB6A0B0EDB6AF1
:1044D0000C0EDB6A050EDBCF14F0060EDBCF15F0F9
:1044E000070EDBCF16F0080EDBCF17F00E0E1512FD
:1044F00014C0E6FF15C0E6FF95DDE552E552A90EB2
:10450000E66E6E0EE66E8EDDE552E552090EDBCFED
:1045100014F00A0EDBCF15F00B0EDBCF16F00C0EED
:10452000DBCF17F00E0E151214C0E6FF15C0E6FF24
:1045300079DDE552E552AA0EE66E6E0EE66E72DD8C
:10454000E552E552A60EE66E800EE66E6BDDE55294
:10455000E552A80EE66E500EE66E64DDE552E552B9
:10456000F50EE66E6E0EE66E5DDDE552E5523D0E31
:104570000001735D01E15EDC020EE66EF1DCE552E6
:1045800032DDE66EDF50EA6A010FE96E010EEA22C3
:10459000E552E750EF6E0101482B000E49234A23F4
:1045A0004B23DF2A5ED70101010E036F0001615129
:1045B00004E10101036BB5EC38F0F56E0D0EE15C22
:1045C00002E2E16AE552E16EF550E552E7CFD9FF2C
:1045D0001200EBEF22F0D9CFE6FFE1CFD9FFE65290
:1045E00004EC38F048C1E6FF49C1E6FF4AC1E6FFE6
:1045F0004BC1E6FF36DCE552E552E552E552DF6A93
:10460000DFCF14F0156A166A176A14AE03D0156866
:1046100016681768480EE96E010EEA6EEE50010149
:104620004C5D186EEE504D59196EEE504E591A6E83
:10463000EE504F591B6ED890183619361A361B3665
:104640001450185C1550195816501A5817501B580A
:1046500015E3090EE66E84DCE552C5DCE66E030E5A
:10466000DF24E96EEA6AE9BEEA68010EE926010E76
:10467000EA22E552E750EF6EDF2AC2D7B5EC38F0F8
:10468000DFCF02F10101036B01013F0E006FE55224
:10469000E552E7CFD9FF120004EC38F00001725167
:1046A000400A3EE07F0A28E0010A16E0030A03E020
:1046B000010A4BE109D029EC1FF0A60EE66E8C0E24
:1046C000E66EB0DCE552E552040EE66E2ADCE552F9
:1046D000800EE66EE66A36D0050EE66E22DCE55206
:1046E0003F0EE66EE66EB2DCE552E552040EE66E73
:1046F00018DCE5528F0E24D0050EE66E12DCE55272
:104700000A0EE66E010EE66EA1DCE552E552040EDD
:10471000E66E91EC1FF0E5528A0EE66E010E11D0A6
:10472000050EE66E91EC1FF0E552E668E6688EDC59
:10473000E552E552040EE66E91EC1FF0E552870E4D
:10474000E66EE66E83DCE552E5521AEC1FF0E66A8F
:10475000B0EC1FF0E55283C0E6FF84C0E6FFA0EC9A
:1047600033F0E552E552000EE66EE66A0FDCE552E4
:10477000E552B5EF38F04CEF23F0D9CFE6FFE1CFAB
:10478000D9FF030EE12674C0DFFF4C0EE96E010E67
:10479000EA6E01014851EE5C4951EE584A51EE581B
:1047A0004B51EE5803E20001626B97D1030EF36E9A
:1047B000020EF3CFDBFF0001625101E0B0D0010E29
:1047C000626F0001876B400E875D09E28751EA6ADC
:1047D000500FE96E010EEA22EF6A872BF4D7876B40
:1047E00004EC38F0DFCF14F0156A166A176A14AEBD
:1047F00003D015681668176848C104F049C105F070
:104800004AC106F04BC107F014C009F015C00AF008
:1048100016C00BF017C00CF037EC3FF00050010150
:10482000485D0101D26F0150010149590101D36F67
:10483000025001014A590101D46F035001014B5943
:104840000101D56FDFCF14F0156A166A176A14AE2E
:1048500003D015681668176848C104F049C105F00F
:104860004AC106F04BC107F014C009F015C00AF0A8
:1048700016C00BF017C00CF037EC3FF000C087F00B
:1048800000016D5102E13C0E6D6F04EC38F0000147
:104890006D51400A0AE07D0A08E0010A18E129EC9E
:1048A0001FF0A60EE66E8C0E0DD029EC1FF0A60EA2
:1048B000E66E8C0EE66E12EC20F0E552E552A60E86
:1048C000E66E840EE66E12EC20F0E552E552060E1E
:1048D000E66E91EC1FF0E552000EE66EE66A26ECFD
:1048E00020F0E552E55200016D51400A14E07F0AC4
:1048F00012E0010A05E0030A0EE0010A10E10BD004
:1049000021EC1FF0A60EE66E840EE66E12EC20F08F
:10491000E552E55204D029EC1FF021EC1FF0D20E35
:10492000E96E010EEA6EEE5001014C5DEE504D59FC
:10493000EE504E59EE504F5901E2B5D0030E010131
:104940000225F36E020EDBCFF4FFF350F45C01E3BB
:10495000AAD0DF500001875D2BE2030E0101022582
:10496000F36E020EDBCFF4FFF350F45C21E2020E93
:10497000DBCFE9FFEA6AE9BEEA68010EE926010E2B
:10498000EA22EF50E66E00018751EA6A500FE96EA5
:10499000010EEA22E552E750EF6E872B020E146EED
:1049A000DBCFE7FFE850E726020EE7CFDBFFD1D7EA
:1049B000DF500001875D03E001010351B0E1D2C186
:1049C000E6FFD3C1E6FFD4C1E6FFD5C1E6FF31EC77
:1049D0001FF0E552E552E552E5520001876BDF50CA
:1049E000875D4BE2020EDF5C875D1DE28729EA6A84
:1049F000500FE96E010EEA22EF50176A176E166A21
:104A00008751EA6A500FE96E010EEA22EF50000169
:104A10001624146E000E1720156E14C0E6FFE66E05
:104A20003BEC20F024D08729EA6A500FE96E010E92
:104A3000EA22EF50176A176E166A8751EA6A500F1A
:104A4000E96E010EEA22EF5000011624146E000EEA
:104A50001720156E14C0E6FFE66E50EC20F0E5520C
:104A6000E55279C0E6FF7AC0E6FF65EC20F0E5523A
:104A7000E552020E00018727B2D7DFCF14F0156A86
:104A8000166A176A14AE03D01568166817681450B2
:104A90000101D2271550D3231650D4231750D52304
:104AA0000001876B3CD7D20EE96E010EEA6EEE5024
:104AB00001014C5DEE504D59EE504E59EE504F599C
:104AC00003E30101035102E10001626B0001625145
:104AD00002E1B5EC38F00101026BF56E030EE15C0A
:104AE00002E2E16AE552E16EF550E552E7CFD9FF07
:104AF0001200D9CFE6FFE1CFD9FF030EE126010175
:104B0000DD51146E156A0E0E1512DDC1E6FF15C0DB
:104B1000E6FF12EC20F0E552E552A90EE66E6E0EAD
:104B2000E66E12EC20F0E552E5520101DE51146E02
:104B3000156A14500E0E1512DEC1E6FF15C0E6FF11
:104B400012EC20F0E552E552AA0EE66E6E0EE66E0D
:104B500012EC20F0E552E552FE0EDB50146E156AA1
:104B6000E8500E0E151214C0E6FF15C0E6FF12EC59
:104B700020F0E552E552A80EE66E6E0EE66E12ECDF
:104B800020F0E552E552A60EE66E840EE66E12ECBB
:104B900020F0E552E552550EE66E0E0EE66E12EC72
:104BA00020F0E552E552A70EE66E6E0EE66E12ECB0
:104BB00020F0E552E552AA0EE66E0E0EE66E12ECFD
:104BC00020F0E552E552A70EE66E6E0EE66E12EC90
:104BD00020F0E552E552A60EE66E820EE66E12EC6D
:104BE00020F0E552E5520A0EDF6E010EE66EE66A2F
:104BF000DEEC33F0E552E552DF06A60EE66E500E0F
:104C0000E66E12EC20F0E552E552F50EE66E6E0E01
:104C1000E66E12EC20F0E552E552020EE66EB0ECC4
:104C20001FF0E552F3EC1FF0E66ED950010FE96E6C
:104C3000DACFEAFFE552E750EE6EED6ADFCF14F00F
:104C4000000EE76E1418E8AE02D0143403D0E7501B
:104C5000D880145410E2020EE76E010EDBCF15F07F
:104C6000020EDBCF16F0E7501516166A020E151865
:104C700001E11650BAE0640EE66EE66AA0EC33F08D
:104C8000E552E552A60EE66E940EE66E12EC20F0AA
:104C9000E552E552F56E030EE15C02E2E16AE5528F
:104CA000E16EF550E552E7CFD9FF1200D9CFE6FF0C
:104CB000E1CFD9FF030EE1260101DD51146E156A23
:104CC0000E0E1512DDC1E6FF15C0E6FF12EC20F056
:104CD000E552E552A90EE66E6E0EE66E12EC20F07D
:104CE000E552E5520101DE51146E156A14500E0EA4
:104CF0001512DEC1E6FF15C0E6FF12EC20F0E5520A
:104D0000E552AA0EE66E6E0EE66E12EC20F0E5524B
:104D1000E552FE0EDB50146E156AE8500E0E1512A9
:104D200014C0E6FF15C0E6FF12EC20F0E552E55294
:104D3000A80EE66E6E0EE66E12EC20F0E552E5521D
:104D4000A60EE66E840EE66E12EC20F0E552E552F9
:104D5000A60EE66E820EE66E12EC20F0E552E552EB
:104D60000A0EDF6E010EE66EE66ADEEC33F0E55207
:104D7000E552DF06A60EE66E500EE66E12EC20F04F
:104D8000E552E552F50EE66E6E0EE66E12EC20F080
:104D9000E552E5521AEC1FF0020EE66EB0EC1FF081
:104DA000E552F3EC1FF0E66ED950010FE96EDACF51
:104DB000EAFFE552E750EE6EED6ADFCF14F0000E29
:104DC000E76E1418E8AE02D0143403D0E750D88050
:104DD000145410E2020EE76E010EDBCF15F0020E46
:104DE000DBCF16F0E7501516166A020E151801E112
:104DF0001650B8E0640EE66EE66AA0EC33F0E552B9
:104E0000E552A60EE66E940EE66E12EC20F0E55228
:104E1000E552F56E030EE15C02E2E16AE552E16EF5
:104E2000F550E552E7CFD9FF1200D9CFE6FFE1CF29
:104E3000D9FF0101DD51146E156A0E0E1512DDC188
:104E4000E6FF15C0E6FF12EC20F0E552E552A90E90
:104E5000E66E6E0EE66E12EC20F0E552E552FE0EA6
:104E6000DB50146E156AE8500E0E151214C0E6FFE2
:104E700015C0E6FF12EC20F0E552E552A80EE66EF2
:104E80006E0EE66E12EC20F0E552E552A60EE66ECE
:104E9000840EE66E12EC20F0E552E552550EE66EF9
:104EA0000E0EE66E12EC20F0E552E552A70EE66E0D
:104EB0006E0EE66E12EC20F0E552E552AA0EE66E9A
:104EC0000E0EE66E12EC20F0E552E552A70EE66EED
:104ED0006E0EE66E12EC20F0E552E552A60EE66E7E
:104EE000820EE66E12EC20F0E552E5521AEC1FF04D
:104EF000E66AB0EC1FF0E5527DC0E6FF7EC0E6FF3B
:104F0000A0EC33F0E552E552000EE66EE66AC6EC20
:104F10001FF0E552E552640EE66EE66AA0EC33F04F
:104F2000E552E552A60EE66E940EE66E12EC20F007
:104F3000E552E552E552E7CFD9FF1200D9CFE6FF9F
:104F4000E1CFD9FF020EE1264C0EE96E010EEA6EAA
:104F500001014851EE5C4951EE584A51EE584B510F
:104F6000EE5803E20001636B84D0DE52030EDD6E67
:104F7000000163511CE100016E5102E13C0E6E6FB5
:104F800004EC38F00001010E636F48C1DDF149C146
:104F9000DEF14AC1DFF14BC1E0F1A60EE66E9E0ED6
:104FA000E66E12EC20F0E552E55221EC1FF0DD0E2A
:104FB000E96E010EEA6EEE5001014C5DEE504D5966
:104FC000EE504E59EE504F593CE3030E01010225BD
:104FD000F36E010EDBCFF4FFF350F45C32E2010E0E
:104FE000DBCFE9FFEA6AE9BEEA68010EE926010EB5
:104FF000EA22EFCFDFFF00016E513E0A09E0030A0B
:1050000003E0010A09E108D0DFCFE6FF0EDF07D099
:10501000DFCFE6FF6EDD03D0DFCFE6FF47DEE552F0
:10502000020E146E010EDBCFE7FF1450E726010ECF
:10503000E7CFDBFF0101DD2B000EDE23DF23E023C2
:10504000B6D7DD0EE96E010EEA6EEE5001014C5D41
:10505000EE504D59EE504E59EE504F5903E30101B9
:10506000035102E10001636B0001635102E1B5EC01
:1050700038F0F56E020EE15C02E2E16AE552E16EA3
:10508000F550E552E7CFD9FF120000016F5102E160
:105090003C0E6F6F04EC38F00001000ED8806B55A9
:1050A000000E6C5516E229EC1FF0A60EE66E8C0E73
:1050B000E66E12EC20F0E552E552060EE66E91EC3B
:1050C0001FF0E552000EE66EE66A26EC20F0E5528F
:1050D000E55200016F513E0A09E0030A02E0010AAD
:1050E0000FE129EC1FF021EC1FF00AD021EC1FF09A
:1050F000A60EE66E840EE66E12EC20F0E552E55246
:1051000048C1E6FF49C1E6FF4AC1E6FF4BC1E6FFE1
:1051100031EC1FF0E552E552E552E552010105512F
:10512000176A05C117F0166A045100011624146E9F
:10513000000E1720156E14C0E6FFE66E3BEC20F063
:10514000E552E55201010751176A07C117F0166AC7
:10515000065100011624146E000E1720156E14C09F
:10516000E6FFE66E3BEC20F0E552E5520101095105
:10517000176A09C117F0166A085100011624146E47
:10518000000E1720156E14C0E6FFE66E3BEC20F013
:10519000E552E55201010B51176A0BC117F0166A6F
:1051A0000A5100011624146E000E1720156E14C04B
:1051B000E6FFE66E50EC20F0E552E55281C0E6FFD6
:1051C00082C0E6FF65EC20F0E552E552B5EF38F01D
:1051D000D9CFE6FFE1CFD9FFFD0EDBCFE6FFFE0E14
:1051E000DBCFE6FF50EC20F0E552E5527FC0E6FF52
:1051F00080C0E6FF65EC20F0E552E5523F0E00016D
:10520000705D08E11AEC1FF01AEC1FF01AEC1FF0A9
:105210001AEC1FF0DBC1E6FFDCC1E6FF12EC20F068
:10522000E552E552F60EE66E6E0EE66E12EC20F0DA
:10523000E552E5520101DB2B000EDC23E552E7CFFE
:10524000D9FF12000001705102E13C0E706F04ECB6
:1052500038F0000170513F0A15E0010A07E0030A27
:1052600011E0010A27E129EC1FF008D0A60EE66E36
:10527000840EE66E12EC20F0E552E552A60EE66EC4
:105280008C0E13D029EC1FF0A60EE66E8C0EE66E87
:1052900012EC20F0E552E552E66AEF0EE66E12ECF3
:1052A00020F0E552E552E66AF80EE66E12EC20F0C8
:1052B000E552E55248C1E6FF49C1E6FF4AC1E6FFB3
:1052C0004BC1E6FF31EC1FF0E552E552E552E552E5
:1052D0000101010EDB6F0E0EDC6F01010451E66E61
:1052E000E66A76DFE552E55201010651156A06C10C
:1052F00015F0146A14C0E6FF06C1E6FF69DFE55247
:10530000E55201010851E66EE66A62DFE552E552B8
:1053100001010A51156A0AC115F0146A14C0E6FFAA
:105320000AC1E6FF55DFE552E55201010C51E66E78
:10533000E66A4EDFE552E55201010E51156A0EC1D3
:1053400015F0146A14C0E6FF0EC1E6FF41DFE55216
:10535000E55201011051E66EE66A3ADFE552E55288
:1053600001011251156A12C115F0146A14C0E6FF4A
:1053700012C1E6FF2DDFE552E55201011451E66E40
:10538000E66A26DFE552E55201011651156A16C19B
:1053900015F0146A14C0E6FF16C1E6FF19DFE552E6
:1053A000E55201011851E66EE66A12DFE552E55258
:1053B00001011A51156A1AC115F0146A14C0E6FFEA
:1053C0001AC1E6FF05DFE552E55201011C51E66E08
:1053D000E66AFEDEE552E55201011E51156A1EC164
:1053E00015F0146A14C0E6FF1EC1E6FF50EC20F071
:1053F000E552E5527FC0E6FF80C0E6FF65EC20F095
:10540000E552E5523F0E0001705D08E11AEC1FF015
:105410001AEC1FF01AEC1FF01AEC1FF0B5EF38F081
:10542000D9CFE6FFE1CFD9FFFE0EDBCFE6FF060EB8
:10543000E66E58EC36F0E552E552010EE66EB4EC3D
:105440003FF0E552E552E7CFD9FF1200D9CFE6FF92
:10545000E1CFD9FFE66A010EE66E58EC36F0E55270
:10546000E552FD0EDBCFE6FF080EE66E58EC36F097
:10547000E552E552FE0EDBCFE6FF040EE66E58EC79
:1054800036F0E552E552E66A030EE66E58EC36F069
:10549000E552E552010EE66EB4EC3FF0E552E552FE
:1054A000E7CFD9FF1200D9CFE6FFE1CFD9FF020E37
:1054B000E1263AEC36F0010EE66E58EC37F0E55294
:1054C000080EE66E58EC37F0E552DF6E040EE66E1D
:1054D00058EC37F0E552E76E010EE7CFDBFF030E25
:1054E000E66E58EC37F0E55249EC36F0010EE66E08
:1054F000B4EC3FF0E552DECF14F0DDCF15F014C070
:10550000F3FF15C0F4FFF56E020EE15C02E2E16A02
:10551000E552E16EF550E552E7CFD9FF1200F36A8C
:10552000F46A1200D9CFE6FFE1CFD9FF0B0EE126D6
:10553000030EF36E060EF3CFDBFF0101026B036B6C
:1055400001013F0E006F4C0EE96E010EEA6E010183
:105550004851EE5C4951EE584A51EE584B51EE58C5
:1055600003E20001606B06D1000160512BE104EC05
:1055700038F0060EE66E54DFE5520001010E606F52
:10558000DE6ADE6ADE6ADD6ADD52DD52D9CFE9FF0E
:10559000DACFEAFF01014851EE5C4951EE584A5119
:1055A000EE584B51EE580EE2060EE66E39DFE5522C
:1055B000D9CFE9FFDACFEAFFEE2A000EEE22EE2283
:1055C000EE22E4D7480EE96E010EEA6EEE500101BC
:1055D0004C5D146EEE504D59156EEE504E59166ED0
:1055E000EE504F59176E142A000E1522162217225C
:1055F000070E14C0DBFF080E15C0DBFF090E16C036
:10560000DBFF0A0E17C0DBFF070EDBCF05F0080E2D
:10561000DBCF06F0090EDBCF07F00A0EDBCF08F078
:105620000834000E081809E6D8801E0E0554000E36
:105630000654000E0754000E08540CE21E0EF36EC2
:10564000070EF3CFDBFF080EDB6A090EDB6A0A0EDA
:10565000DB6A02D00001606B070EDBCF04F0080E9E
:10566000DBCF05F0090EDBCF06F00A0EDBCF07F02B
:10567000020E096E0A6A0B6A0C6AD2EC3EF000C098
:1056800002F148C1DFFF010E49C1DBFF020E4AC132
:10569000DBFF030E4BC1DBFFD950070FE96EDACFFA
:1056A000EAFF01014851EE24146E4951EE20156EB7
:1056B0004A51EE20166E4B51EE20176ED9CFE9FFFE
:1056C000DACFEAFF1450EE5C1550EE581650EE5843
:1056D0001750EE5833E2040EE66EA2DEE552E3DE2A
:1056E000040EF3CFDBFF050EF4CFDBFF060EDBCF9E
:1056F000F3FFDB2AF350EA6A010FE96E010EEA229A
:10570000040EDBCFEFFF060EDBCFF3FFDB2AF350F7
:10571000EA6A010FE96E010EEA22050EDBCFEFFF08
:10572000060EE66E7DDEE552D9CFE9FFDACFEAFF5D
:10573000EE2A000EEE22EE22EE22AED70101010E7D
:10574000036FD950070FE96EDACFEAFF0101485124
:10575000EE24486F4951EE20496F4A51EE204A6FBE
:105760004B51EE204B6F0001605104E10101036BCE
:10577000B5EC38F0F56E0B0EE15C02E2E16AE55241
:10578000E16EF550E552E7CFD9FF120092EF2AF013
:10579000D9CFE6FFE1CFD9FF070EE126030EF36E66
:1057A000040EF3CFDBFF0101080E026F036B010152
:1057B0003F0E006F04EC38F0060EE66E31DEE55267
:1057C000DE6ADE6ADE6ADD6ADD52DD52D9CFE9FFCC
:1057D000DACFEAFF01014851EE5C4951EE584A51D7
:1057E000EE584B51EE580EE2060EE66E19DEE5520B
:1057F000D9CFE9FFDACFEAFFEE2A000EEE22EE2241
:10580000EE22E4D748C1DFFF010E49C1DBFF020EE3
:105810004AC1DBFF030E4BC1DBFFD9CFE9FFDACF73
:10582000EAFFEE5001014C5DEE504D59EE504E59DD
:10583000EE504F5932E3040EE66EF2DDE55233DEF0
:10584000050EF3CFDBFF060EF4CFDBFF040EDBCF3C
:10585000F3FFDB2AF350EA6A010FE96E010EEA2238
:10586000050EDBCFEFFF040EDBCFF3FFDB2AF35097
:10587000EA6A010FE96E010EEA22060EDBCFEFFFA6
:10588000E66ECEDDE552D9CFE9FFDACFEAFFEE2AA8
:10589000000EEE22EE22EE22C0D7040EDB50FD0FEA
:1058A0000101026FB5EC38F0F56E070EE15C02E223
:1058B000E16AE552E16EF550E552E7CFD9FF1200FB
:1058C000D9CFE6FFE1CFD9FF030EE126DF6E01015C
:1058D000020E026F036B01013F0E006F04EC38F003
:1058E000040EE66E9DDDE552DEDDDE52F3CFDEFF17
:1058F000F4CFDDFFDD52DF50DF2AEA6A010FE96EE7
:10590000010EEA22010EDBCFEFFFDF50DF2AEA6A49
:10591000010FE96E010EEA22020EDBCFEFFF030E4C
:10592000DF5C0101026FB5EC38F0F56E030EE15C4F
:1059300002E2E16AE552E16EF550E552E7CFD9FFA8
:10594000120004EC38F0090EE66E6ADDE552000143
:1059500083517925146E84517A21156E14C0E6FFA7
:10596000E66EA0EC33F0E552E552B5EF38F0D9CF52
:10597000E6FFE1CFD9FF080EE12604EC38F0060E71
:10598000E66E4EDDE552FF0E00016711146E68C031
:1059900015F0010E1426000E1522040E14C0DBFFB4
:1059A000050E15C0DBFF060EDB6A070EDB6ADE6A3A
:1059B000DE6ADE6ADD6ADD52DD52040EDBCF14F0F2
:1059C000050EDBCF15F0060EDBCF16F0070EDBCF92
:1059D00017F0D9CFE9FFDACFEAFF030EEB50171823
:1059E000E8AE02D0173408D01450EE5C1550EE58D3
:1059F0001650EE581750EE580EE2060EE66E10DD09
:105A0000E552D9CFE9FFDACFEAFFEE2A000EEE2207
:105A1000EE22EE22D2D7090EE66E02DDE55200013B
:105A200083517925146E84517A21156E14C0E6FFD6
:105A3000E66EA0EC33F0E552E552B5EC38F0F56EC9
:105A4000080EE15C02E2E16AE552E16EF550E552D2
:105A5000E7CFD9FF1200D9CFE6FFE1CFD9FF040E7F
:105A6000E1264C0EE96E010EEA6E01014851EE5C32
:105A70004951EE584A51EE584B51EE5803E200019D
:105A8000626BA5D0DE52030EDD6E0001625127E18C
:105A900004EC38F0060EE66EC3DCE5520001010EA0
:105AA000626F0101D26BD36BD46BD56BD20EE96EF2
:105AB000010EEA6E01014851EE5C4951EE584A511F
:105AC000EE584B51EE580BE2060EE66EA9DCE5529D
:105AD0000101D22B000ED323D423D523E7D7D20E36
:105AE000E96E010EEA6EEE5001014C5DEE504D592B
:105AF000EE504E59EE504F5952E3030E010102256C
:105B0000F36E010EDBCFF4FFF350F45C48E2010EBC
:105B1000DBCFF3FFDB2AF350E96EEA6AE9BEEA68FD
:105B2000010EE926010EEA22020EEFCFDBFF010E85
:105B3000DBCFF3FFDB2AF350E96EEA6AE9BEEA68DD
:105B4000010EE926010EEA22030EEFCFDBFF020E63
:105B5000E66E66DCE552020EDBCFE6FF030EDBCF1E
:105B6000E6FF74DCE552E552080EE66E59DCE552BC
:105B700079C0E6FF7AC0E6FFA0EC33F0E552E552CB
:105B80000E0EE66E4DDCE552060EE66E49DCE55281
:105B90000101D22B000ED323D423D523A0D7D20EBC
:105BA000E96E010EEA6EEE5001014C5DEE504D596A
:105BB000EE504E59EE504F5903E30101035102E1FB
:105BC0000001626B0001625102E1B5EC38F0F56E44
:105BD000040EE15C02E2E16AE552E16EF550E55245
:105BE000E7CFD9FF12002BEF2DF02BEF2DF0D9CFFF
:105BF000E6FFE1CFD9FF020EE12604EC38F004C144
:105C0000DFFF010E05C1DBFF020EE66E09DCE55287
:105C1000DECFE6FFDDCFE6FF19DCE552E552080EE8
:105C2000E66E10EC2AF0E5527FC0E6FF80C0E6FF8A
:105C3000A0EC33F0E552E5520E0EE66E10EC2AF0C1
:105C4000E552B5EC38F0F56E020EE15C02E2E16A75
:0E5C5000E552E16EF550E552E7CFD9FF1200A4
:025C5E008A902A
:105C600093908B929492FA0E891692160101010E6E
:105C7000E16F15EC36F001010E0EE26F476B47C184
:105C800046F147C145F147C144F147C143F147C11E
:105C900042F147C141F10001280E666F0101FD91FB
:105CA0000101CD0EFE6F0101CB0EFF6F9282928635
:105CB000050EC26E0B0EC16E3B0EC06EC08E3EEC6A
:105CC00032F08A80FA0EE66EE66ADEEC33F0E552D8
:105CD000E5528B82FA0EE66EE66ADEEC33F0E552B0
:105CE000E5528A90FA0EE66EE66ADEEC33F0E55293
:105CF000E5528B921200060E0101F95D05E36D502D
:105D0000020B01E0120001D81200D9CFE6FFE1CF6B
:105D1000D9FF070EE126400EE66E010EE66E010E7B
:105D2000E66EF4EC3DF0E552E552E552000901E182
:105D300081D20101006B01010151FF0A01E154D23E
:105D40008C0A01E14BD2010A01E141D2030A01E1CF
:105D500039D2010A01E131D2130A01E129D2010A43
:105D600001E121D2030A01E119D2010A01E111D2B4
:105D7000340A01E10CD2070A01E107D2010A01E16C
:105D800002D2030A01E1FDD1140A01E1F7D1010AAF
:105D900001E1F1D1140A01E1CAD1120A01E195D160
:105DA000030A01E148D1010A01E133D17F0A01E18F
:105DB00025D1010A01E116D1050A01E1D6D0070A71
:105DC00001E1C7D0060A01E1B2D0030A01E1A5D082
:105DD000010A01E193D0050A01E188D07E0A39E089
:105DE000740A2AE0060A0CE0310A01E011D201012E
:105DF000100E036F0101046B0101040E006F09D244
:105E00000101010E006F0101025102E18A8013D0ED
:105E10000101020502E18B820ED0040E0101025D38
:105E200002E18A9008D0050E0101025D02E18B9229
:105E300002D00101006BEDD10101FDB102D03AECBD
:105E400032F0C3CF02F1C4CF03F10101030E006FA2
:105E5000E0D188C089F002C18AF0030E0101031568
:105E600000018B6F0001000ED8808A55000E8B5503
:105E700004E20001010E886F02D00001886B800EE1
:105E800001010315800803E10001020E886F400E36
:105E900001010315400803E10001030E886F050EA0
:105EA0008AC0DBFF060E8BC0DBFFD950050FE96E01
:105EB000DACFEAFF020E0F0B06E0EC52D890ED327B
:105EC000EF32E806FAE10001880507E1050EDBCFB5
:105ED000E6FF47EC32F0E55205D00001890502E10A
:105EE0006FEC32F00101010E006F93D1E0EC37F05E
:105EF0000101026F0101020E006F8BD10101010E41
:105F0000006F0101FDB185D10101025103E1050ED0
:105F1000C26E02D00D0EC26E7CD10101010E006F67
:105F200002C1BEFF02C18DF003C18CF072D101012C
:105F3000010E006FD4EC35F08B80FE0E9312C10E73
:105F400094129288929A898A02C1E1F115EC36F096
:105F500060D10101010E006F0101025103E13AEC31
:105F600036F002D049EC36F054D10101010E006F39
:105F70000101020503E104EC36F033D0100E0101FB
:105F8000025D03E1F3EC35F02CD0020E0101025D5D
:105F900003E1E5EC35F025D0200E0101025D03E1BF
:105FA000D4EC35F01ED0040E0101025D03E1C5EC16
:105FB00035F017D0400E0101025D03E1B6EC35F07B
:105FC00010D0080E0101025D03E1A7EC35F009D005
:105FD000800E0101025D03E198EC35F002D0010171
:105FE000006B17D10101010E006F03C1E6FF02C172
:105FF000E6FF58EC36F0E552E5520BD10101020EF6
:10600000006F02C1E6FF58EC37F0E5520101026F64
:1060100000D10101010E006F02C1E2F1120E010177
:10602000E25D02E10101026B210E0101E25D02E18C
:106030000101026BEED00101010E006F01C164F09D
:1060400002C165F003C166F004C167F005C168F0E4
:1060500006C169F007C16AF008C16BF009C16CF0B4
:106060000AC16DF00BC16EF00CC16FF00DC170F084
:106070000EC171F00FC172F010C173F011C174F054
:1060800012C175F013C176F014C177F015C178F024
:1060900016C179F017C17AF018C17BF019C17CF0F4
:1060A0001AC17DF01BC17EF01CC17FF01DC180F0C4
:1060B0001EC181F01FC182F020C183F021C184F094
:1060C00022C185F023C186F0A4D00101010E006F2A
:1060D00001014B6B04C14AF103C149F102C148F10E
:1060E00007C14CF101014D6B4E6B4F6B4EC14FF12F
:1060F0004DC14EF14CC14DF101014C6B01010651F6
:1061000001014C13000E4D134E134F134EC14FF1AE
:106110004DC14EF14CC14DF101014C6B01010551D6
:1061200001014C13000E4D134E134F1372D0010199
:10613000030E006F020E0101025D03E10101050E75
:10614000006F8AD8030EF3CFDBFF040EF4CFDBFF22
:10615000030EDBCF02F1040EDBCF03F1030EEDC122
:10616000DBFF040EEEC1DBFF030EDBCF04F1040EF8
:10617000DBCF05F14ED0D8EC34F04BD021EC35F02C
:1061800048D081D846D096D844D0ABD842D0C0D8D9
:1061900040D00101010E006FD2D83BD00101010EA9
:1061A000006FE4D836D00101010E006FF6D831D06F
:1061B0000101010E006F08D92CD00101010E006F02
:1061C0001AD927D00101010E006F2CD922D001016C
:1061D000020E006F3ED90101026F1BD00101030EB8
:1061E000006F9DEC34F015D06D96010EDB6A020E47
:1061F000DB6A010EDB06DBCF14F0020E01E2DB06E8
:10620000DBCF15F01450151001E0F3D7FF0001D0DB
:1062100000D0010100510EE004010CBF0BD000C101
:10622000E6FF010EE66E010EE66EBAEC3DF0E552B9
:10623000E552E552030E0001885D02E122EC33F0E5
:10624000F56E070EE15C02E2E16AE552E16EF5509F
:10625000E552E7CFD9FF12000101E2511E0A11E019
:106260000F0A0DE0010A09E01E0A05E0020A01E03A
:1062700012008FEF2AF04DEF14F09FEF20F0E4EFC3
:106280003BF034EF06F00101E2511E0A11E00F0A63
:106290000DE0010A09E01E0A05E0020A01E0120011
:1062A00092EF2AF095EF14F0D7EF20F0E6EF3BF0F5
:1062B000B6EF06F00101E2511E0A11E00F0A0DE0EF
:1062C000010A09E01E0A05E0020A01E01200C6EF19
