:020000040000FA
:0600000093EF3EF0120038
:0608000093EF3EF0120030
:060808005BEF35F0120069
:060818005BEF35F0120059
:06082A000100547D0000F6
:0808300060000000330000002D
:08083800D9CFE6FFE1CFD9FFA3
:10084000FE0EDBCFE6FF040EE66E3EEC36F0E55220
:10085000E552010EE66E9FEC3EF0E552E552E7CF21
:10086000D9FF1200D9CFE6FFE1CFD9FFFE0EDBCFD3
:10087000E6FF040EE66EC5EC36F0E552E552010ED9
:10088000E66E9FEC3EF0E552E552E7CFD9FF12004D
:10089000D9CFE6FFE1CFD9FFFB0EDBCFE6FF080E95
:1008A000E66E3EEC36F0E552E552FC0EDBCFE6FF9D
:1008B000080EE66E3EEC36F0E552E552FD0EDBCF5B
:1008C000E6FF080EE66E3EEC36F0E552E552010E0C
:1008D000E66E9FEC3EF0E552E552E7CFD9FF1200FD
:1008E000D9CFE6FFE1CFD9FFFB0EDBCFE6FF080E45
:1008F000E66EC5EC36F0E552E552FC0EDBCFE6FFC6
:10090000080EE66EC5EC36F0E552E552FD0EDBCF83
:10091000E6FF080EE66EC5EC36F0E552E552010E34
:10092000E66E9FEC3EF0E552E552E7CFD9FF1200AC
:10093000D9CFE6FFE1CFD9FF020EE12620EC36F059
:10094000080EE66E3EEC37F0E552080EE66E3EEC21
:1009500037F0E552DF6E080EE66E3EEC37F0E552FA
:10096000E76E010EE7CFDBFF2FEC36F0010EE66EEF
:100970009FEC3EF0E552DECF14F0DDCF15F014C051
:10098000F3FF15C0F4FFF56E020EE15C02E2E16ACE
:10099000E552E16EF550E552E7CFD9FF1200D9CF0D
:1009A000E6FFE1CFD9FF020EE12620EC36F0080E7B
:1009B000E66E82EC37F0E552080EE66E82EC37F018
:1009C000E552DF6E080EE66E82EC37F0E552E76E18
:1009D000010EE7CFDBFF2FEC36F0010EE66E9FEC49
:1009E0003EF0E552DECF14F0DDCF15F014C0F3FF7A
:1009F00015C0F4FFF56E020EE15C02E2E16AE55219
:100A0000E16EF550E552E7CFD9FF1200D9CFE6FFEE
:100A1000E1CFD9FF040EE126D9CFE9FFDACFEAFF13
:100A2000FB0EDBCFEEFFFC0EDBCFEEFFFD0EDBCFD0
:100A3000EEFFFE0EDBCFEEFF0001920511E1E66A4C
:100A400011DFE552D9CFE9FFDACFEAFFEECFE6FFBB
:100A5000EECFE6FFEECFE6FFEFCFE6FF41DF10D0AF
:100A6000E66AEADEE552D9CFE9FFDACFEAFFEECF58
:100A7000E6FFEECFE6FFEECFE6FFEFCFE6FF08DFC3
:100A8000E552E552E552E552F56E040EE15C02E2F4
:100A9000E16AE552E16EF550E552E7CFD9FF120069
:100AA000E66AE66AE66AE66AB1DFE552E552E552D1
:100AB000E5521200E66A010EE66E040EE66EE66A84
:100AC000A5DFE552E552E552E5521200E66A020E54
:100AD000E66E040EE66EE66A99DFE552E552E552EF
:100AE000E5521200B60EE66E1B0EE66EBA0EE66E0C
:100AF000E66A8CDFE552E552E552E5521200B60E89
:100B0000E66E1B0EE66EBB0EE66EE66A7FDFE55212
:100B1000E552E552E5521200D9CFE6FFE1CFD9FF09
:100B2000FE0EDBCF14F0156A166A148A3C0E1512FD
:100B3000880E1612176A14C0E6FF15C0E6FF16C02D
:100B4000E6FF17C0E6FF62DFE552E552E552E552E7
:100B5000E552E7CFD9FF1200580EE66E050EE66E9D
:100B6000200EE66EE66A52DFE552E552E552E552A6
:100B7000380EE66E3B0EE66E880EE66EE66A46DFDF
:100B8000E552E552E552E552A90EE66E0A0EE66E12
:100B9000200EE66EE66A3ADFE552E552E552E5528E
:100BA000390EE66E3B0EE66E880EE66EE66A2EDFC6
:100BB000E552E552E552E5521200610EE66EE70E8F
:100BC000E66EA80EE66EE66A21DFE552E552E552D2
:100BD000E55266DF65DF020EE66EE66AC4EC33F0CE
:100BE000E552E5525DDF5CDF610EE66EE70EE66E14
:100BF000A90EE66EE66A0ADFE552E552E552E552D5
:100C00004FDF50EF05F0D9CFE6FFE1CFD9FF020E5D
:100C1000E1260001920506E1010EE66E23DEE552B3
:100C2000BEDE05D0010EE66E07DEE55281DEF3CFB3
:100C3000DEFFF4CFDDFFDECF14F0DDCF15F014C002
:100C4000F3FF15C0F4FFF56E020EE15C02E2E16A0B
:100C5000E552E16EF550E552E7CFD9FF120020DFF3
:100C60001FDF28DF50EF05F0D9CFE6FFE1CFD9FF36
:100C7000020EE126EAEC37F0F2DFF00EE66E0F0E20
:100C8000E66E200EE66EE66AC1DEE552E552E552FA
:100C9000E552900EE66E010EE66E880EE66EE66A8E
:100CA000B5DEE552E552E552E552E66A030EE66E20
:100CB000EB0EE66EE66AAADEE552E552E552E55233
:100CC000800EE66E030EE66EEB0EE66EE66A9EDEC4
:100CD000E552E552E552E552B60EE66E0B0EE66EB3
:100CE000BA0EE66EE66A92DEE552E552E552E5524C
:100CF000D7DED6DEE66A10DFE552D2DE84DFF3CF40
:100D0000DEFFF4CFDDFFCCDED5DECADEB60EE66E4A
:100D10000B0EE66EBA0EE66EE66A78DEE552E55236
:100D2000E552E552BDDEBCDEE66AF6DEE552B8DE2F
:100D30006ADFF3CFEDF1F4CFEEF1B2DEBBDEB0DE71
:100D40007FEC38F0DECF14F0DDCF15F014C0F3FFE8
:100D500015C0F4FFF56E020EE15C02E2E16AE552B5
:100D6000E16EF550E552E7CFD9FF1200D9CFE6FF8B
:100D7000E1CFD9FF130EE126030EF36E080EF3CF79
:100D8000DBFF0101026B036B01013F0E006F4C0E94
:100D9000E96E010EEA6E01014851EE5C4951EE58D0
:100DA0004A51EE584B51EE5803E20001606B72D28B
:100DB0000001605101E07CD0EAEC37F00001010E47
:100DC000606F000E48C1DFFF010E49C1DBFF020E5C
:100DD000DB6A030EDB6AD9CFE9FFDACFEAFF040E44
:100DE000E76ED890EF36010EEB36020EEB36030EAF
:100DF000EB36E706F6E1040E4AC1DBFF050EDB6ABF
:100E0000060EDB6A070EDB6AD950040FE96EDACFF3
:100E1000EAFF040EE76ED890EF36010EEB36020EB5
:100E2000EB36030EEB36E706F6E119DF040EDBCFF7
:100E300014F0050EDBCF15F0060EDBCF16F0070E13
:100E4000DBCF17F0168A14C0E6FF15C0E6FF16C008
:100E5000E6FF17C0E6FFDADDE552E552E552E5525E
:100E6000900EE66E010EE66E880EE66EE66ACEDD48
:100E7000E552E552E552E552D9CFE9FFDACFEAFF74
:100E8000EECF14F0EECF15F0EECF16F0EFCF17F057
:100E9000060E1412168A14C0E6FF15C0E6FF16C02F
:100EA000E6FF17C0E6FFB2DDE552E552E552E55236
:100EB000480EE96E010EEA6EEE5001014C5D146EB3
:100EC000EE504D59156EEE504E59166EEE504F596C
:100ED000176E020E1426000E152216221722030E7C
:100EE000096E0A6A0B6A0C6A14C004F015C005F09A
:100EF00016C006F017C007F0A7EC3DF000C014F0D4
:100F000001C015F002C016F003C017F0D8901732D8
:100F1000163215321432090E14C0DBFF0A0E15C04A
:100F2000DBFF0B0E16C0DBFF0C0E17C0DBFF090E3C
:100F3000DBCF05F00A0EDBCF06F00B0EDBCF07F0A0
:100F40000C0EDBCF08F00834000E081809E6D88034
:100F50003C0E0554000E0654000E0754000E0854B3
:100F60000CE23C0EF36E090EF3CFDBFF0A0EDB6AD8
:100F70000B0EDB6A0C0EDB6A02D00001606B090EFF
:100F8000DBCF02F1030EF36E080EF3CFDBFF080E8A
:100F9000DB50330802E2000E01D0010E1C6E080E79
:100FA000DBCF14F0156A166A176A030E186E196AF9
:100FB0001A6A1B6AD950090FE96EDACFEAFFEE50C0
:100FC0001826EE501922EE501A22EE501B221B500A
:100FD0001718E8AE02D0173408D01450185C15501A
:100FE000195816501A5817501B5802E2000E01D01B
:100FF000010E1C1401E144D1800EE66E030EE66E74
:10100000EB0EE66EE66A02DDE552E552E552E55288
:1010100047DD960EE66E1B0EE66EBA0EE66EE66ACB
:10102000F5DCE552E552E552E5523ADD39DDB60E22
:10103000E66EDB0EE66EBA0EE66EE66AE7DCE552B9
:10104000E552E552E5522CDD2BDDD60EE66EDB0EC9
:10105000E66EBA0EE66EE66AD9DCE552E552E55276
:10106000E5521EDD1DDD3EDD1BDD1ADD960EE66E52
:101070001B0EE66EBA0EE66EE66AC8DCE552E55275
:10108000E552E5520DDD0CDDB60EE66EDB0EE66ECA
:10109000BA0EE66EE66ABADCE552E552E552E55272
:1010A000FFDCFEDCD60EE66EDB0EE66EBA0EE66EFA
:1010B000E66AACDCE552E552E552E552F1DCF0DCE3
:1010C00011DDEEDCEDDCE66A27DDE552E9DC9BDDD7
:1010D0000D0EF3CFDBFF0E0EF4CFDBFFE1DC010ED4
:1010E000E66E1ADDE552DCDC8EDD0F0EF3CFDBFFA2
:1010F000100EF4CFDBFFD4DC020EE66E0DDDE55200
:10110000CFDC81DD110EF3CFDBFF120EF4CFDBFF5E
:10111000C7DC080EDB50EA6A010FE96E010EEA2215
:101120000D0EDBCFEFFF080EDB2ADB50EA6A010F62
:10113000E96E010EEA220E0EDBCFEFFF080EDB2A6E
:10114000DB50EA6A010FE96E010EEA220F0EDBCFD7
:10115000EFFF080EDB2ADB50EA6A010FE96E010E91
:10116000EA22110EDBCFEFFF080EDB2ADB50EA6A22
:10117000010FE96E010EEA22120EDBCFEFFF080E1F
:10118000DB2ADB50EA6A010FE96E010EEA22100E3B
:10119000DBCFEFFF080EDB2A030EE66EBDDCE55267
:1011A0007FDC31DD0D0EF3CFDBFF0E0EF4CFDBFF66
:1011B00077DC040EE66EB0DCE55272DC24DD0F0E47
:1011C000F3CFDBFF100EF4CFDBFF6ADC050EE66E1B
:1011D000A3DCE55265DC17DD110EF3CFDBFF120E49
:1011E000F4CFDBFF5DDC080EDB50EA6A010FE96E2D
:1011F000010EEA220D0EDBCFEFFF080EDB2ADB50DB
:10120000EA6A010FE96E010EEA220E0EDBCFEFFF54
:10121000080EDB2ADB50EA6A010FE96E010EEA22B2
:101220000F0EDBCFEFFF080EDB2ADB50EA6A010F5F
:10123000E96E010EEA22110EDBCFEFFF080EDB2A6A
:10124000DB50EA6A010FE96E010EEA22120EDBCFD3
:10125000EFFF080EDB2ADB50EA6A010FE96E010E90
:10126000EA22100EDBCFEFFF080EDB2A23DC18DCAE
:10127000080E01014827000E49234A234B2387D635
:101280000101010E036F0001605104E10101036BD4
:101290007FEC38F0F56E130EE15C02E2E16AE55294
:1012A000E16EF550E552E7CFD9FF1200D9CFE6FF46
:1012B000E1CFD9FF0B0EE126030EDF6E0101026BB9
:1012C000036B01013F0E006F4C0EE96E010EEA6EDA
:1012D00001014851EE5C4951EE584A51EE584B51CC
:1012E000EE5803E20001616BABD10001615158E19E
:1012F000050E48C1DBFF060E49C1DBFF070EDB6AA6
:10130000080EDB6AD950050FE96EDACFEAFF040E4A
:10131000E76ED890EF36010EEB36020EEB36030E79
:10132000EB36E706F6E1EAEC37F00001010E616FFB
:1013300096DCF00EE66E070EE66E200EE66EE66AAE
:1013400006EC05F0E552E552E552E552900EE66EE8
:10135000010EE66E880EE66EE66A06EC05F0E552D2
:10136000E552E552E552050EDBCF14F0060EDBCF59
:1013700015F0070EDBCF16F0080EDBCF17F0060EC8
:101380001412168A14C0E6FF15C0E6FF16C0E6FF69
:1013900017C0E6FF06EC05F0E552E552E552E552CE
:1013A000480EE96E010EEA6EEE5001014C5D146EBE
:1013B000EE504D59156EEE504E59166EEE504F5977
:1013C000176E142A000E152216221722010E14C0C1
:1013D000DBFF020E15C0DBFF030E16C0DBFF040EA1
:1013E00017C0DBFF010EDBCF05F0020EDBCF06F0EE
:1013F000030EDBCF07F0040EDBCF08F00834000E3D
:10140000081809E6D880380E0554000E0654000E60
:101410000754000E08540CE2380EF36E010EF3CFA1
:10142000DBFF020EDB6A030EDB6A040EDB6A02D00E
:101430000001616B010EDBCF02F1030EDF6EDF50A6
:10144000330802E2000E01D0010E1C6EDFCF14F053
:10145000156A166A176A030E186E196A1A6A1B6AE9
:10146000D950010FE96EDACFEAFFEE501826EE50A0
:101470001922EE501A22EE501B221B501718E8AE0C
:1014800002D0173408D01450185C15501958165053
:101490001A5817501B5802E2000E01D0010E1C14FE
:1014A00001E1C4D0800EE66E030EE66EEB0EE66E32
:1014B000E66A06EC05F0E552E552E552E55272ECBB
:1014C00005F050EC05F050EC05F072EC05F050EC36
:1014D00005F050EC05F072EC05F050EC05F050EC26
:1014E00005F072EC05F050EC05F050EC05F0E66A02
:1014F0008CEC05F0E55250EC05F003EC06F0090E1B
:10150000F3CFDBFF0A0EF4CFDBFFDF50EA6A010FF7
:10151000E96E010EEA22090EDBCFEFFFDF2ADF5072
:10152000EA6A010FE96E010EEA220A0EDBCFEFFF35
:10153000DF2A50EC05F0010EE66E8CEC05F0E5526A
:1015400050EC05F003EC06F0090EF3CFDBFF0A0EBA
:10155000F4CFDBFFDF50EA6A010FE96E010EEA22E9
:10156000090EDBCFEFFFDF2ADF50EA6A010FE96ED9
:10157000010EEA220A0EDBCFEFFFDF2A50EC05F066
:10158000020EE66E8CEC05F0E55250EC05F003EC33
:1015900006F0090EF3CFDBFF0A0EF4CFDBFFDF50BE
:1015A000EA6A010FE96E010EEA22090EDBCFEFFFB6
:1015B000DF2ADF50EA6A010FE96E010EEA220A0E05
:1015C000DBCFEFFFDF2A50EC05F0030EE66E8CEC6C
:1015D00005F0E55250EC05F003EC06F0090EF3CFF0
:1015E000DBFF0A0EF4CFDBFFDF50EA6A010FE96E82
:1015F000010EEA22090EDBCFEFFFDF2ADF50EA6A95
:10160000010FE96E010EEA220A0EDBCFEFFFDF2A9F
:1016100050EC05F05AEC05F050EC05F0080E010115
:101620004827000E49234A234B2309D70101010E05
:10163000036F0001615104E10101036B7FEC38F09D
:10164000F56E0B0EE15C02E2E16AE552E16EF550E7
:10165000E552E7CFD9FF1200B6EC06F00101530EB8
:10166000016F1200D9CFE6FFE1CFD9FF030EE126CB
:10167000EAEC37F02FEC06F0800EE66E0F0EE66E09
:10168000200EE66EE66A06EC05F0E552E552E552FC
:10169000E552900EE66E010EE66E880EE66EE66A84
:1016A00006EC05F0E552E552E552E552E66A030E16
:1016B000E66EEB0EE66EE66A06EC05F0E552E552E4
:1016C000E552E552800EE66E030EE66EEB0EE66E18
:1016D000E66A06EC05F0E552E552E552E552020EE7
:1016E000DB6ADBCF14F0070EE76E1418E8AE02D009
:1016F000E73402D0E750145C61E2B60EE66E0B0EE2
:10170000E66EBA0EE66EE66A06EC05F0E552E552C4
:10171000E552E55250EC05F050EC05F0E66A8CEC31
:1017200005F0E55250EC05F003EC06F0F3CFDEFFD8
:10173000F4CFDDFF020EDB50040DF350030FE96E12
:10174000EA6AE9BEEA68010EE926010EEA22DFCF65
:10175000EFFF020EDB50040DF350040FE96EEA6A4E
:10176000E9BEEA68010EE926010EEA22010EDBCF8E
:10177000EFFF020EDB50040DF350050FE96EEA6A2D
:10178000E9BEEA68010EE926010EEA22EF6A020EBE
:10179000DB50040DF350060FE96EEA6AE9BEEA6811
:1017A000010EE926010EEA22EF6A50EC05F05AEC30
:1017B00005F050EC05F0020EDB2A93D77FEC38F0F1
:1017C000020EDB50040DF3CF02F10101036B0101A6
:1017D0003F0E006FF56E030EE15C02E2E16AE55236
:1017E000E16EF550E552E7CFD9FF1200F8EF0BF0AC
:1017F000EAEC37F02FEC06F0510E0001725D5CE16F
:101800008A0EE66EE66A240EE66EE66A06EC05F0DF
:10181000E552E552E552E5520A0EE66E3B0EE66EE3
:10182000880EE66EE66A06EC05F0E552E552E552F2
:10183000E552800EE66E0F0EE66E200EE66EE66A4C
:1018400006EC05F0E552E552E552E552900EE66EE3
:10185000010EE66E880EE66EE66A06EC05F0E552CD
:10186000E552E552E552670EE66EE66A200EE66E38
:10187000E66A06EC05F0E552E552E552E552E66A05
:10188000030EE66EEB0EE66EE66A06EC05F0E55238
:10189000E552E552E552860EE66E1B0EE66EBB0E75
:1018A000E66EE66A06EC05F0E552E552E552E552D1
:1018B000ACEC05F0DDEC05F0FA0EE66E070EE66E18
:1018C000240EE66EE66A06EC05F0E552E552E552B6
:1018D000E5520A0EE66E3B0EE66E880EE66EE66A8E
:1018E00006EC05F0E552E552E552E552ACEC05F0A8
:1018F000DDEC05F07FEF38F000018751E96EEA6A10
:10190000D890E936EA36500EE926010EEA22EECFEB
:10191000E3F1EFCFE4F10101E56B0001872B875183
:10192000E96EEA6AD890E936EA36500EE926010EE9
:10193000EA22EECFE6F1EFCFE7F10101E86B00011B
:10194000872B8751E96EEA6AD890E936EA36500E5D
:10195000E926010EEA22EECFE9F1EFCFEAF101012B
:10196000EB6B0001872B8751E96EEA6AD890E93664
:10197000EA36500EE926010EEA22EECF14F014C02A
:1019800015F0146A166A14500101E6131550E71396
:101990001650E8130001872B120050EC05F0B60E2C
:1019A000E66E0B0EE66EBB0EE66EE66A06EC05F022
:1019B000E552E552E552E55250EC05F050EC05F0E9
:1019C000B60EE66EDB0EE66EBB0EE66EE66A06EC63
:1019D00005F0E552E552E552E55250EC05F050ECC9
:1019E00005F0B60EE66EEB0EE66EBB0EE66EE66A30
:1019F00006EC05F0E552E552E552E55250EC05F0F3
:101A000050EC05F07FEC05F050EF05F0D9CFE6FF84
:101A1000E1CFD9FF0A0EE126400EDF6E4C0EE96ED3
:101A2000010EEA6E01014851EE5C4951EE584A51EF
:101A3000EE584B51EE5803E20001626B71D2010186
:101A4000030EEC6F0001625168E1010E626F00014C
:101A5000876B400E875D0EE28751E96EEA6AD89087
:101A6000E936EA36500EE926010EEA22EE6AED6A00
:101A7000872BEFD7876BEAEC37F0DFCF14F0156ACE
:101A8000166A176A14AE03D015681668176848C13D
:101A900004F049C105F04AC106F04BC107F014C07B
:101AA00009F015C00AF016C00BF017C00CF00CECD2
:101AB0003EF000500101485D0101D26F015001016B
:101AC00049590101D36F025001014A590101D46FF4
:101AD000035001014B590101D56FDFCF14F0156A96
:101AE000166A176A14AE03D015681668176848C1DD
:101AF00004F049C105F04AC106F04BC107F014C01B
:101B000009F015C00AF016C00BF017C00CF00CEC71
:101B10003EF000C087F02FEC06F0D20EE96E010E09
:101B2000EA6EEE5001014C5DEE504D59EE504E59AB
:101B3000EE504F5901E2DAD1030E010102250101F5
:101B4000EC5D01E3D3D1DF500001875D37E2030E86
:101B5000010102250101EC5D31E2EC29E96EEA6A3E
:101B6000E9BEEA68010EE926010EEA22EF50176A83
:101B7000176E166AECC1E9FFEA6AE9BEEA68010E6F
:101B8000E926010EEA22EF5000011624146E000E21
:101B90001720156E00018751E96EEA6AD890E93680
:101BA000EA36500EE926010EEA2214C0EEFF15C0F7
:101BB000EDFF872B020E0101EC27C5D7DF50000196
:101BC000875D03E001010351A8E11A0EE66EE66AA3
:101BD000240EE66EE66A06EC05F0E552E552E552A3
:101BE000E5520A0EE66E3B0EE66E880EE66EE66A7B
:101BF00006EC05F0E552E552E552E5520001876B2F
:101C0000010EDB6ADBCF14F0070EE76E1418E8AEA6
:101C100002D0143403D0E750D880145401E25BD1D1
:101C2000020ED2C1DBFF030ED3C1DBFF040EDB6A61
:101C3000050EDB6AD950020FE96EDACFEAFF040E17
:101C4000E76ED890EF36010EEB36020EEB36030E40
:101C5000EB36E706F6E1060ED4C1DBFF070EDB6AC2
:101C6000080EDB6A090EDB6AD950060FE96EDACF7F
:101C7000EAFF040EE76ED890EF36010EEB36020E47
:101C8000EB36030EEB36E706F6E1060EDBCF14F07B
:101C9000070EDBCF15F0080EDBCF16F0090EDBCFF9
:101CA00017F0168A14C0E6FF15C0E6FF16C0E6FF5F
:101CB00017C0E6FF06EC05F0E552E552E552E552A5
:101CC000900EE66E010EE66E880EE66EE66A06EC93
:101CD00005F0E552E552E552E552020EDBCF14F075
:101CE000030EDBCF15F0040EDBCF16F0050EDBCFB5
:101CF00017F0070E1412168A14C0E6FF15C0E6FF8F
:101D000016C0E6FF17C0E6FF06EC05F0E552E55207
:101D1000E552E55250EC05F050EC05F0EDDD040E17
:101D20001F0BE3C114F0E4C115F0E5C116F006E0A5
:101D3000D890143615361636E806FAE1168A176A70
:101D400014C0E6FF15C0E6FF16C0E6FF17C0E6FFA9
:101D500006EC05F0E552E552E552E552040E1F0B84
:101D6000E6C114F0E7C115F0E8C116F006E0D8901E
:101D7000143615361636E806FAE11480168A176A04
:101D800014C0E6FF15C0E6FF16C0E6FF17C0E6FF69
:101D900006EC05F0E552E552E552E552040E1F0B44
:101DA000E9C114F0EAC115F0EBC116F006E0D890D5
:101DB000143615361636E806FAE11482168A176AC2
:101DC00014C0E6FF15C0E6FF16C0E6FF17C0E6FF29
:101DD00006EC05F0E552E552E552E5528DDD040EC4
:101DE0001F0BE3C114F0E4C115F0E5C116F006E0E5
:101DF000D890143615361636E806FAE1030E14129A
:101E0000168A176A14C0E6FF15C0E6FF16C0E6FF83
:101E100017C0E6FF06EC05F0E552E552E552E55243
:101E2000040E1F0BE6C114F0E7C115F0E8C116F06F
:101E300006E0D890143615361636E806FAE1148412
:101E4000168A176A14C0E6FF15C0E6FF16C0E6FF43
:101E500017C0E6FF06EC05F0E552E552E552E55203
:101E6000040E1F0BE9C114F0EAC115F0EBC116F026
:101E700006E0D890143615361636E806FAE1050E57
:101E80001412168A176A14C0E6FF15C0E6FF16C0C2
:101E9000E6FF17C0E6FF06EC05F0E552E552E55215
:101EA000E552E66A030EE66EEB0EE66EE66A06ECB7
:101EB00005F0E552E552E552E5526FDD6EDD50EC7E
:101EC00005F0080E0101D227000ED323D423D52319
:101ED000010EDB2A97D6ACEC05F0DDEC05F05AECF0
:101EE00005F050EC05F00001876B17D6D20EE96EB5
:101EF000010EEA6EEE5001014C5DEE504D59EE5070
:101F00004E59EE504F5903E30101035102E1000124
:101F1000626B0001625102E17FEC38F00101026B5B
:101F2000F56E0A0EE15C02E2E16AE552E16EF550FF
:101F3000E552E7CFD9FF1200D9CFE6FFE1CFD9FFB5
:101F40000C0EE126100EDF6E4C0EE96E010EEA6EED
:101F500001014851EE5C4951EE584A51EE584B513F
:101F6000EE5803E20001636BA2D20101030EEC6F95
:101F70000001635124E1010E636F0001876B400E85
:101F8000875D0EE28751E96EEA6AD890E936EA3653
:101F9000500EE926010EEA22EE6AED6A872BEFD792
:101FA000876BEAEC37F048C1DDF149C1DEF14AC187
:101FB000DFF14BC1E0F10001876B2FEC06F0DD0E85
:101FC000E96E010EEA6EEE5001014C5DEE504D5986
:101FD000EE504E59EE504F5901E24FD2030E01011F
:101FE00002250101EC5D01E348D2DF500001875D6D
:101FF0004CE2030E010102250101EC5D46E2EC29F1
:10200000E96EEA6AE9BEEA68010EE926010EEA22F3
:10201000EF50E66E00018751E96EEA6AD890E93622
:10202000EA36500EE926010EEA22E552E750EE6E3E
:10203000ED6A8751E96EEA6AD890E936EA36500EC1
:10204000E926010EEA22EE50ED6EEF6AECC1E9FFDF
:10205000EA6AE9BEEA68010EE926010EEA22EF50BB
:10206000146E156A8751E96EEA6AD890E936EA3645
:10207000500EE926010EEA221450EE121550ED1210
:10208000872B040E0101EC27B0D7DF500001875DDC
:1020900003E00101035193E15A0EE66EE66A240E55
:1020A000E66EE66A06EC05F0E552E552E552E552C9
:1020B0000A0EE66E3B0EE66E880EE66EE66A06ECEB
:1020C00005F0E552E552E552E552060EDB6A070ED1
:1020D000DB6A010EDB6ADBCF14F0030EE76E141827
:1020E000E8AE02D0143403D0E750D880145401E293
:1020F000B9D1020EDDC1DBFF030EDEC1DBFF040E32
:10210000DB6A050EDB6AD950020FE96EDACFEAFF0F
:10211000040EE76ED890EF36010EEB36020EEB366A
:10212000030EEB36E706F6E1F00EE66E070EE66EFE
:10213000200EE66EE66A06EC05F0E552E552E55241
:10214000E552900EE66E010EE66E880EE66EE66AC9
:1021500006EC05F0E552E552E552E552020EDBCF02
:1021600014F0030EDBCF15F0040EDBCF16F0050ED6
:10217000DBCF17F0070E1412168A14C0E6FF15C045
:10218000E6FF16C0E6FF17C0E6FF06EC05F0E552D5
:10219000E552E552E552060EDBCFE9FF070EDBCF35
:1021A000EAFF010ED890E936EA36E806FBE1500E68
:1021B000E926010EEA22EECF14F0EFCF15F0080E5B
:1021C00014C0DBFF090E15C0DBFF0A0EDB6A0B0E25
:1021D000DB6A040E186ED950080FE96EDACFEAFFF9
:1021E00018501F0BEECF14F0EECF15F0EECF16F017
:1021F000EECF17F007E0D89014361536163617369E
:10220000E806F9E1168A14C0E6FF15C0E6FF16C01D
:10221000E6FF17C0E6FF06EC05F0E552E552E55291
:10222000E552010EE76E060EDBCFE9FF070EDBCFAE
:10223000EAFFE750E926000EEA22010ED890E936BF
:10224000EA36E806FBE1500EE926010EEA22EECF5F
:1022500014F0EFCF15F0080E14C0DBFF090E15C007
:10226000DBFF0A0EDB6A0B0EDB6A040E186ED95018
:10227000080FE96EDACFEAFF18501F0BEECF14F00B
:10228000EECF15F0EECF16F0EECF17F007E0D890B6
:102290001436153616361736E806F9E11480168A14
:1022A00014C0E6FF15C0E6FF16C0E6FF17C0E6FF44
:1022B00006EC05F0E552E552E552E552020EE76EF6
:1022C000060EDBCFE9FF070EDBCFEAFFE750E9267A
:1022D000000EEA22010ED890E936EA36E806FBE164
:1022E000500EE926010EEA22EECF14F0EFCF15F0E2
:1022F000080E14C0DBFF090E15C0DBFF0A0EDB6AF7
:102300000B0EDB6A040E186ED950080FE96EDACF97
:10231000EAFF18501F0BEECF14F0EECF15F0EECF02
:1023200016F0EECF17F007E0D890143615361636B3
:102330001736E806F9E11482168A14C0E6FF15C0C4
:10234000E6FF16C0E6FF17C0E6FF06EC05F0E55213
:10235000E552E552E552030EE76E060EDBCFE9FFCC
:10236000070EDBCFEAFFE750E926000EEA22010E56
:10237000D890E936EA36E806FBE1500EE926010E70
:10238000EA22EECF14F0EFCF15F0080E14C0DBFFF9
:10239000090E15C0DBFF0A0EDB6A0B0EDB6A040EAA
:1023A000186ED950080FE96EDACFEAFF18501F0BEC
:1023B000EECF14F0EECF15F0EECF16F0EECF17F013
:1023C00007E0D8901436153616361736E806F9E1C8
:1023D000030E1412168A14C0E6FF15C0E6FF16C0DD
:1023E000E6FF17C0E6FF06EC05F0E552E552E552C0
:1023F000E552D950060FE96EDACFEAFF040EEE2659
:10240000000EED22E66A030EE66EEB0EE66EE66A5D
:1024100006EC05F0E552E552E552E55250EC05F0C8
:102420007FEC05F050EC05F050EC05F07FEC05F08A
:1024300050EC05F050EC05F07FEC05F050EC05F0A9
:1024400050EC05F07FEC05F050EC05F050EC05F099
:10245000080E0101DD27000EDE23DF23E023010E3D
:10246000DB2A39D6ACEC05F0DDEC05F05AEC05F0D2
:1024700050EC05F00001876BA2D5DD0EE96E010E70
:10248000EA6EEE5001014C5DEE504D59EE504E5942
:10249000EE504F5903E30101035102E10001636B68
:1024A0000001635102E17FEC38F00101026BF56E2F
:1024B0000C0EE15C02E2E16AE552E16EF550E55294
:1024C000E7CFD9FF1200EAEC37F02FEC06F02A0E26
:1024D000E66E070EE66E240EE66EE66A06EC05F082
:1024E000E552E552E552E5520A0EE66E3B0EE66E07
:1024F000880EE66EE66A06EC05F0E552E552E55216
:10250000E552ACEC05F0DDEC05F07FEC38F006ECC4
:102510000DF00101620E016F1200D9CFE6FFE1CF8D
:10252000D9FF050EE126EAEC37F02FEC06F0070E96
:10253000E66EE66A200EE66EE66A06EC05F0E55207
:10254000E552E552E552DF6ADFCF14F0070EE76E81
:102550001418E8AE02D0E73402D0E750145C01E36F
:10256000FDD08A0EE66EE66A240EE66EE66A06EC9A
:1025700005F0E552E552E552E5520A0EE66E3B0ED5
:10258000E66E880EE66EE66A06EC05F0E552E55268
:10259000E552E552800EE66E0F0EE66E200EE66EF8
:1025A000E66A06EC05F0E552E552E552E552900E7A
:1025B000E66E010EE66E880EE66EE66A06EC05F043
:1025C000E552E552E552E552040EDF02F350040FE6
:1025D000E96EEA6AE9BEEA68010EE926010EEA221E
:1025E000EFCF14F0010E14C0DBFF020EDB6A030E06
:1025F000DB6A040EDB6AD950010FE96EDACFEAFF1D
:10260000EF50EE6AEFCFF4FFEE6EEF50F4CFEEFF37
:10261000EF6E040EDF02F350030FE96EEA6AE9BEC3
:10262000EA68010EE926010EEA22EFCF14F0156ADE
:10263000166A176AD950010FE96EDACFEAFFEE5039
:102640001412EE501512EE501612EE501712010E23
:1026500014C0DBFF020E15C0DBFF030E16C0DBFF4C
:10266000040E17C0DBFFD950010FE96EDACFEAFF85
:10267000040EE76ED890EF36010EEB36020EEB3605
:10268000030EEB36E706F6E1010EDBCF14F0020E87
:10269000DBCF15F0030EDBCF16F0040EDBCF17F007
:1026A000168A14C0E6FF15C0E6FF16C0E6FF17C085
:1026B000E6FF06EC05F0E552E552E552E552E66A22
:1026C000030EE66EEB0EE66EE66A06EC05F0E552EA
:1026D000E552E552E552960EE66E1B0EE66EBB0E17
:1026E000E66EE66A06EC05F0E552E552E552E55283
:1026F00050EC05F050EC05F0ACEC05F0610EE66E28
:10270000E70EE66EA80EE66EE66A06EC05F0E55208
:10271000E552E552E55250EC05F050EC05F07FC073
:10272000E6FF80C0E6FF86EC33F0E552E552610E2D
:10273000E66EE70EE66EA90EE66EE66A06EC05F0BA
:10274000E552E552E552E55250EC05F050EC05F04B
:102750005AEC05F050EC05F0DF2AF6D67FEC38F0A5
:10276000F56E050EE15C02E2E16AE552E16EF550BC
:08277000E552E7CFD9FF12008A
:08277800D9CFE6FFE1CFD9FF44
:10278000FE0EDBCFE6FF060EE66E3EEC36F0E552BF
:10279000E552010EE66E9FEC3EF0E552E552E7CFC2
:1027A000D9FF1200D9CFE6FFE1CFD9FF020EE12613
:1027B000FD0EDBCFDEFFDBCFDDFFE66A010EE66E4E
:1027C0003EEC36F0E552E552DFCFE6FF080EE66E4E
:1027D0003EEC36F0E552E552010EDBCFE6FF060E89
:1027E000E66E3EEC36F0E552E552E66A010EE66E24
:1027F0003EEC36F0E552E552010EE66E9FEC3EF0FF
:10280000E552F56E020EE15C02E2E16AE552E16E2C
:10281000F550E552E7CFD9FF1200D9CFE6FFE1CF5F
:10282000D9FF020EE12620EC36F0010EE66E3EECFA
:1028300037F0E552080EE66E3EEC37F0E552DF6EFB
:10284000060EE66E3EEC37F0E552E76E010EE7CF7E
:10285000DBFFE66E3EEC37F0E5522FEC36F0010E72
:10286000E66E9FEC3EF0E552DECF14F0DDCF15F0C2
:1028700014C0F3FF15C0F4FFF56E020EE15C02E236
:10288000E16AE552E16EF550E552E7CFD9FF12005B
:10289000D9CFE6FFE1CFD9FF020EE126EAEC37F00F
:1028A000E66A6ADFE552000EE66EE66A7BDFE55215
:1028B000E552060EE66E60DFE552060EE66E5CDF60
:1028C000E552060EE66E58DFE552060EE66E54DF60
:1028D000E552060EE66E50DFE552060EE66E4CDF60
:1028E000E552040EE66E48DFE55297DFF3CFDEFFD8
:1028F000F4CFDDFF7FEC38F0DECF14F0DDCF15F044
:1029000014C0F3FF15C0F4FFF56E020EE15C02E2A5
:10291000E16AE552E16EF550E552E7CFD9FF1200CA
:10292000D9CFE6FFE1CFD9FF0B0EE126030EF36E00
:10293000060EF3CFDBFF0101026B036B01013F0EBB
:10294000006F4C0EE96E010EEA6E01014851EE5C1B
:102950004951EE584A51EE584B51EE5803E20001EE
:10296000606B02D10001605127E1EAEC37F0000111
:10297000010E606FDE6ADE6ADE6ADD6ADD52DD52FC
:10298000D9CFE9FFDACFEAFF01014851EE5C4951A6
:10299000EE584A51EE584B51EE580EE2060EE66ED6
:1029A000EBDEE552D9CFE9FFDACFEAFFEE2A000EDF
:1029B000EE22EE22EE22E4D7480EE96E010EEA6E18
:1029C000EE5001014C5D146EEE504D59156EEE50F7
:1029D0004E59166EEE504F59176E142A000E1522DE
:1029E00016221722070E14C0DBFF080E15C0DBFFEE
:1029F000090E16C0DBFF0A0E17C0DBFF070EDBCF88
:102A000005F0080EDBCF06F0090EDBCF07F00A0E4B
:102A1000DBCF08F00834000E081809E6D8801E0E37
:102A20000554000E0654000E0754000E08540CE224
:102A30001E0EF36E070EF3CFDBFF080EDB6A090EE6
:102A4000DB6A0A0EDB6A02D00001606B070EDBCF87
:102A500004F0080EDBCF05F0090EDBCF06F00A0EFE
:102A6000DBCF07F0020E096E0A6A0B6A0C6AA7EC4C
:102A70003DF000C002F148C1DFFF010E49C1DBFF9C
:102A8000020E4AC1DBFF030E4BC1DBFFD950070F1B
:102A9000E96EDACFEAFF01014851EE24146E495184
:102AA000EE20156E4A51EE20166E4B51EE20176E39
:102AB000D9CFE9FFDACFEAFF1450EE5C1550EE589B
:102AC0001650EE581750EE5833E2040EE66E54DE00
:102AD000E552A3DE040EF3CFDBFF050EF4CFDBFFE0
:102AE000060EDBCFF3FFDB2AF350EA6A010FE96E33
:102AF000010EEA22040EDBCFEFFF060EDBCFF3FF61
:102B0000DB2AF350EA6A010FE96E010EEA22050E94
:102B1000DBCFEFFF060EE66E2FDEE552D9CFE9FFE1
:102B2000DACFEAFFEE2A000EEE22EE22EE22AED738
:102B30000101010E036FD950070FE96EDACFEAFFEA
:102B400001014851EE24486F4951EE20496F4A5126
:102B5000EE204A6F4B51EE204B6F0001605104E1B3
:102B60000101036B7FEC38F0F56E0B0EE15C02E2C5
:102B7000E16AE552E16EF550E552E7CFD9FF120068
:102B8000D9CFE6FFE1CFD9FF0B0EE126030EF36E9E
:102B9000060EF3CFDBFF0101026B036B01013F0E59
:102BA000006F4C0EE96E010EEA6E01014851EE5CB9
:102BB0004951EE584A51EE584B51EE5803E200018C
:102BC000616BE3D00001615127E1EAEC37F00001CD
:102BD000010E616FDE6ADE6ADE6ADD6ADD52DD5299
:102BE000D9CFE9FFDACFEAFF01014851EE5C495144
:102BF000EE584A51EE584B51EE580EE2060EE66E74
:102C0000BBDDE552D9CFE9FFDACFEAFFEE2A000EAD
:102C1000EE22EE22EE22E4D7480EE96E010EEA6EB5
:102C2000EE5001014C5D146EEE504D59156EEE5094
:102C30004E59166EEE504F59176E142A000E15227B
:102C400016221722070E14C0DBFF080E15C0DBFF8B
:102C5000090E16C0DBFF0A0E17C0DBFF070EDBCF25
:102C600005F0080EDBCF06F0090EDBCF07F00A0EE9
:102C7000DBCF08F00834000E081809E6D8803C0EB7
:102C80000554000E0654000E0754000E08540CE2C2
:102C90003C0EF36E070EF3CFDBFF080EDB6A090E66
:102CA000DB6A0A0EDB6A02D00001616B070EDBCF24
:102CB00002F148C1DFFF010E49C1DBFF020E4AC12C
:102CC000DBFF030E4BC1DBFFD950070FE96EDACFF4
:102CD000EAFF01014851EE24146E4951EE20156EB1
:102CE0004A51EE20166E4B51EE20176ED9CFE9FFF8
:102CF000DACFEAFF1450EE5C1550EE581650EE583D
:102D00001750EE5826E2050EE66E36DDE55285DDFB
:102D1000040EF3CFDBFF050EF4CFDBFF060EDBCF97
:102D2000F3FFDB2AF350EA6A010FE96E010EEA2293
:102D3000040EDBCFEFFF060EE66E1EDDE552D9CFA7
:102D4000E9FFDACFEAFFEE2A000EEE22EE22EE22B3
:102D5000BBD70101010E036FD950070FE96EDACF1F
:102D6000EAFF01014851EE24486F4951EE20496FB6
:102D70004A51EE204A6F4B51EE204B6F00016151DA
:102D800004E10101036B7FEC38F0F56E0B0EE15CA2
:102D900002E2E16AE552E16EF550E552E7CFD9FF74
:102DA0001200D9CFE6FFE1CFD9FF070EE126030ECF
:102DB000F36E040EF3CFDBFF0101080E026F036B0D
:102DC00001013F0E006FEAEC37F0E66AD5DCE55210
:102DD000000EE66EE66AE6DCE552E552DE6A200E9B
:102DE000DE6EDE6ADD6ADD52DD52D9CFE9FFDACF71
:102DF000EAFF01014851EE5C4951EE584A51EE5844
:102E00004B51EE580EE2060EE66EB6DCE552D9CF17
:102E1000E9FFDACFEAFFEE2A000EEE22EE22EE22E2
:102E2000E4D748C1DFFF010E49C1DBFF020E4AC1F2
:102E3000DBFF030E4BC1DBFFD9CFE9FFDACFEAFF9F
:102E4000EE5001014C5DEE504D59EE504E59EE5092
:102E50004F5932E3040EE66E8FDCE552DEDC050EE0
:102E6000F3CFDBFF060EF4CFDBFF040EDBCFF3FF67
:102E7000DB2AF350EA6A010FE96E010EEA22050E21
:102E8000DBCFEFFF040EDBCFF3FFDB2AF350EA6A60
:102E9000010FE96E010EEA22060EDBCFEFFFE66EB0
:102EA0006BDCE552D9CFE9FFDACFEAFFEE2A000E5C
:102EB000EE22EE22EE22C0D7040EDB50FD0F010100
:102EC000026F7FEC38F0F56E070EE15C02E2E16A1A
:102ED000E552E16EF550E552E7CFD9FF1200D1EF90
:102EE00016F0EAEC37F0000171512E0A01E1D8D05A
:102EF000030A01E1B0D0010A01E17ED0070A68E0CF
:102F0000010A01E1A8D0030A36E0010A01E02ED14E
:102F1000E66A32DCE552000EE66EE66A43DCE55214
:102F2000E552020EE66E28DCE552E6683F0EE66EDC
:102F300039DCE552E552090EE66E1EDCE552080E5C
:102F4000E66E1ADCE552000183517925146E845136
:102F50007A21156E14C0E6FFE66E86EC33F0E5527A
:102F6000E552020EE66EBCEC13F0E552E6683F0E49
:102F7000E66E18DC16D0090EE66EBCEC13F0E552D6
:102F8000080EE66EBCEC13F0E55200018351792582
:102F9000146E84517A21156E14C0E6FFE66E86EC3D
:102FA00033F0E552E5520B0EE66EBCEC13F0E55241
:102FB000080EE66EBCEC13F0E55200018351792552
:102FC000146E84517A21156E14C0E6FFE66E64D04B
:102FD000E66ABCEC13F0E552000EE66EE66AD2EC4F
:102FE00013F0E552E552020EE66EBCEC13F0E5522A
:102FF000E6683F0EE66E36D0E66ABCEC13F0E552AA
:10300000000EE66EE66AD2EC13F0E552E552090EC8
:10301000E66EBCEC13F0E552080EE66EBCEC13F065
:10302000E552030EE66EE66AC4EC33F0E552E55273
:10303000110EE66EBCEC13F0E5520B0EE66EBCEC26
:1030400013F0E552030EE66EE66AC4EC33F0E55287
:10305000E552110E87D0E66ABCEC13F0E552000E83
:10306000E66EE66AD2EC13F0E552E552090EE66E22
:10307000BCEC13F0E55283C0E6FF84C0E6FF86ECAB
:1030800033F0E552E5520B0EE66EBCEC13F0E55260
:1030900083C0E6FF84C0E6FF86EC33F0E55265D0DE
:1030A000020EE66EBCEC13F0E552E6683F0EE66EEB
:1030B000D2EC13F0E552E552010EE66EBCEC13F0D3
:1030C000E552070EE66EBCEC13F0E552080EE66E14
:1030D000BCEC13F0E552000183517925146E845144
:1030E0007A21156E14C0E6FFE66E86EC33F0E552E9
:1030F000E552010EE66EBCEC13F0E552070EE66EEB
:10310000BCEC13F0E552030EE66EBCEC13F0E55296
:10311000E6683F0EE66ED2EC13F0E552E552010E82
:10312000E66EBCEC13F0E552070EE66EBCEC13F055
:10313000E552080EE66EBCEC13F0E5520001835137
:103140007925146E84517A21156E14C0E6FFE66E5F
:1031500086EC33F0E552E552010EE66EBCEC13F05E
:10316000E552070EE66EBCEC13F0E5527FEF38F047
:10317000060EE66EBCEC13F0E552060EE66EBCECF5
:1031800013F0E552060EE66EBCEC13F0E552060EA7
:10319000E66EBCEC13F0E552060EE66EBCEC13F0E6
:1031A000E552060EE66EBCEC13F0E552060EE66E36
:1031B000BCEC13F0E5521200EAEC37F0000172515A
:1031C0002E0A01E179D0030A70E0010A3DE0070A06
:1031D00020E0010A0FE0030A0BE0010A01E0A6D09B
:1031E000E66ABCEC13F0E552000EE66EE66A6BD0C0
:1031F00078DE9CD0E66ABCEC13F0E552F00EE66E89
:103200003F0EE66ED2EC13F0E552E552B1DF1F0E31
:1032100041D0E66ABCEC13F0E552F00EE66E3F0ECC
:10322000E66ED2EC13F0E552E552A2DF020EE66E36
:10323000BCEC13F0E552E6683F0EE66ED2EC13F0FC
:10324000E552E552090E26D0090EE66EBCEC13F0ED
:10325000E55283C0E6FF84C0E6FF86EC33F0E5521A
:10326000E552E66ABCEC13F0E552000EE66EE66A43
:10327000D2EC13F0E552E552090EE66EBCEC13F009
:10328000E55283C0E6FF84C0E6FF86EC33F0E552EA
:10329000E5520B0EE66EBCEC13F0E55283C0E6FF80
:1032A00084C0E6FF86EC33F03FD0E66ABCEC13F056
:1032B000E552F00EE66E05D0E66ABCEC13F0E5527E
:1032C000E6683F0EE66ED2EC13F0E552E55250DFB1
:1032D000010EE66EBCEC13F0E552070EE66EBCEC98
:1032E00013F0E552080EE66EBCEC13F0E552000157
:1032F00083517925146E84517A21156E14C0E6FF2E
:10330000E66E86EC33F0E552E552010EE66EBCEC5B
:1033100013F0E552070EE66EBCEC13F0E552320EE8
:10332000E66EE66AC4EC33F0E552E5527FEF38F022
:10333000D9CFE6FFE1CFD9FF030EE12674C0DFFF4E
:103340004C0EE96E010EEA6E01014851EE5C4951E6
:10335000EE584A51EE584B51EE5803E20001626BB1
:1033600099D1030EF36E020EF3CFDBFF0001625121
:1033700001E07BD00001876B200E875D0EE2875154
:10338000E96EEA6AD890E936EA36500EE926010E6F
:10339000EA22EE6AED6A872BEFD7876BEAEC37F00B
:1033A0000001010E626F0101D26BD36BD46BD56B40
:1033B000DFCF18F0196A1A6A1B6A18AE03D01968B1
:1033C0001A681B6848C104F049C105F04AC106F0FB
:1033D0004BC107F018C009F019C00AF01AC00BF071
:1033E0001BC00CF00CEC3EF000500101485D146E67
:1033F00001504959156E02504A59166E03504B59E7
:10340000176E14500101D25D1550D3591650D4597E
:103410001750D5590CE2060EE66EBCEC13F0E552DF
:103420000101D22B000ED323D423D523C1D7DFCF64
:1034300014F0156A166A176A14AE03D01568166878
:10344000176848C104F049C105F04AC106F04BC1F4
:1034500007F014C009F015C00AF016C00BF017C031
:103460000CF00CEC3EF000C087F0D20EE96E010EBD
:10347000EA6EEE5001014C5DEE504D59EE504E5942
:10348000EE504F5901E2EED0030E01010225F36E1A
:10349000020EDBCFF4FFF350F45C01E3E3D0DF5026
:1034A0000001875D43E2030E01010225F36E020E67
:1034B000DBCFF4FFF350F45C39E2020EDB28E96E57
:1034C000EA6AE9BEEA68010EE926010EEA22EF5037
:1034D000176A176E166A020EDBCFE9FFEA6AE9BEC9
:1034E000EA68010EE926010EEA22EF5000011624D7
:1034F000146E000E1720156E00018751E96EEA6AFE
:10350000D890E936EA36500EE926010EEA2214C0B8
:10351000EEFF15C0EDFF872B020E146EDBCFE7FF29
:10352000E850E726020EE7CFDBFFB9D7DF500001F6
:10353000875D03E00101035198E10001876BDF50D3
:10354000875D24E2020EE66EBCEC13F0E55200014A
:103550008751E96EEA6AD890E936EA36500EE926D4
:10356000010EEA22EECFE6FFEFCFE6FFD2EC13F03A
:10357000E552E552DF040001875D05E2060EE66EC6
:10358000BCEC13F0E5520001872BD9D700016D5137
:103590002E0A3BE0030A2CE0010A1BE0070A17E0B1
:1035A000010A06E0030A04E0010A41E1180E21D0F5
:1035B000180EE66EBCEC13F0E55279C0E6FF7AC057
:1035C000E6FF86EC33F0E552E552170E2CD0080EDC
:1035D0001DD0180EE66EBCEC13F0E55279C0E6FF84
:1035E0007AC0E6FF86EC33F0E552E5520A0E1BD0B6
:1035F000080EE66EBCEC13F0E55279C0E6FF7AC027
:10360000E6FF86EC33F0E55211D0180EE66EBCEC06
:1036100013F0E55279C0E6FF7AC0E6FF86EC33F09E
:10362000E552E5520E0EE66EBCEC13F0E552060EC6
:10363000E66EBCEC13F0E552DFCF14F0156A166AA3
:10364000176A14AE03D01568166817681450010184
:10365000D2271550D3231650D4231750D523000159
:10366000876B03D7D20EE96E010EEA6EEE500101B0
:103670004C5DEE504D59EE504E59EE504F5903E30C
:103680000101035102E10001626B0001625102E19C
:103690007FEC38F0F56E030EE15C02E2E16AE55280
:1036A000E16EF550E552E7CFD9FF1200D9CFE6FF22
:1036B000E1CFD9FF030EE12675C0DFFF4C0EE96EA6
:1036C000010EEA6E01014851EE5C4951EE584A5133
:1036D000EE584B51EE5803E20001636B5DD1030ECF
:1036E000F36E020EF3CFDBFF0001635101E076D0F1
:1036F0000001876B200E875D09E28751EA6A500F4F
:10370000E96E010EEA22EF6A872BF4D7876BEAECA9
:1037100037F00001010E636F0101D66BD76BD86BD8
:10372000D96BDFCF18F0196A1A6A1B6A18AE03D07A
:1037300019681A681B6848C104F049C105F04AC1FC
:1037400006F04BC107F018C009F019C00AF01AC002
:103750000BF01BC00CF00CEC3EF000500101485D7A
:10376000146E01504959156E02504A59166E035095
:103770004B59176E14500101D65D1550D75916508C
:10378000D8591750D9590CE2060EE66EBCEC13F06E
:10379000E5520101D62B000ED723D823D923C1D758
:1037A000DFCF14F0156A166A176A14AE03D01568D5
:1037B0001668176848C104F049C105F04AC106F00F
:1037C0004BC107F014C009F015C00AF016C00BF089
:1037D00017C00CF00CEC3EF000C087F0D60EE96E7E
:1037E000010EEA6EEE5001014C5DEE504D59EE5067
:1037F0004E59EE504F5901E2B7D0030E0101022598
:10380000F36E020EDBCFF4FFF350F45C01E3ACD0B7
:10381000DF500001875D3DE2030E01010225F36EDA
:10382000020EDBCFF4FFF350F45C33E2020EDB2830
:10383000E96EEA6AE9BEEA68010EE926010EEA22AB
:10384000EF50176A176E166A020EDBCFE9FFEA6ABD
:10385000E9BEEA68010EE926010EEA22EF500001F6
:103860001624146E000E1720156E00018751EA6AA7
:10387000500FE96E010EEA2214C0EFFF872B020EF3
:10388000146EDBCFE7FFE850E726020EE7CFDBFF41
:10389000BFD7DF500001875D03E0010103519EE1C6
:1038A0000001876BDF50875D1FE2030EE66EBCEC04
:1038B00013F0E55200018751EA6A500FE96E010EDC
:1038C000EA22EF50E66EE66AD2EC13F0E552E552DA
:1038D000DF040001875D05E2060EE66EBCEC13F026
:1038E000E5520001872BDED700016E51290A0FE057
:1038F000010A1FE1080EE66EBCEC13F0E5527DC034
:10390000E6FF7EC0E6FF86EC33F0E55211D0180EDC
:10391000E66EBCEC13F0E55279C0E6FF7AC0E6FF34
:1039200086EC33F0E552E552170EE66EBCEC13F070
:10393000E552060EE66EBCEC13F0E552DFCF14F054
:10394000156A166A176A14AE03D0156816681768E8
:1039500014500101D6271550D7231650D8231750DD
:10396000D9230001876B3AD7D60EE96E010EEA6EB5
:10397000EE5001014C5DEE504D59EE504E59EE5057
:103980004F5903E30101035102E10001636B0001A0
:10399000635102E17FEC38F0F56E030EE15C02E268
:1039A000E16AE552E16EF550E552E7CFD9FF12002A
:1039B000D9CFE6FFE1CFD9FF060EE126030EF36E65
:1039C000DB6EEAEC37F0E66ABCEC13F0E552000E71
:1039D000E66EE66AD2EC13F0E552E552DE6A200E9E
:1039E000DD6EDECF14F0DDCF15F0166A176A010127
:1039F0004851145C495115584A5116584B511758A3
:103A00000AE2060EE66EBCEC13F0E552DF2A010E68
:103A1000E8E3DB2AE6D7DECF14F0DDCF15F0166A37
:103A2000176A145001014C5D15504D5916504E59EE
:103A300017504F5901E2CCD02A0E00016F5D12E100
:103A4000080EE66EBCEC13F0E55281C0E6FF82C0C2
:103A5000E6FF86EC33F0E552E552170EE66EBCEC5D
:103A600013F0E552010EF36E020EF3CFDBFFDBCF56
:103A700014F000017651D880145454E3030EDB286F
:103A8000E96EEA6AE9BEEA68010EE926010EEA2259
:103A9000EF50166E176A176E166A030EDBCFE9FF3A
:103AA000EA6AE9BEEA68010EE926010EEA22EF5051
:103AB00000011624146E000E1720156E040E14C09B
:103AC000DBFF050E15C0DBFF020E146E030EDBCF0D
:103AD000E7FF1450E726030EE7CFDBFF010EDE26DB
:103AE000000EDD22020EE66EBCEC13F0E552040E71
:103AF000DBCFE6FF050EDBCFE6FFD2EC13F0E5529D
:103B0000E55200017651F36E020EDBCFF4FFF35065
:103B1000F45C05E2060EE66EBCEC13F0E552020E14
:103B2000DB2AA5D76F512E0A3BE0030A2CE0010ADD
:103B30001BE0070A17E0010A06E0030A04E0010A95
:103B400041E1180E21D0180EE66EBCEC13F0E552E0
:103B500081C0E6FF82C0E6FF86EC33F0E552E55215
:103B6000170E2CD0080E1DD0180EE66EBCEC13F00C
:103B7000E55281C0E6FF82C0E6FF86EC33F0E552F5
:103B8000E5520A0E1BD0080EE66EBCEC13F0E552AF
:103B900081C0E6FF82C0E6FF86EC33F0E55211D02B
:103BA000180EE66EBCEC13F0E55281C0E6FF82C051
:103BB000E6FF86EC33F0E552E5520E0EE66EBCEC05
:103BC00013F0E552060EE66EBCEC13F0E55223D777
:103BD0007FEC38F0F56E060EE15C02E2E16AE55238
:103BE000E16EF550E552E7CFD9FF1200D9CFE6FFDD
:103BF000E1CFD9FF060EE126EAEC37F0030EF36EB3
:103C0000DB6EE66ABCEC13F0E552000EE66EE66A87
:103C1000D2EC13F0E552E552DE6A200EDD6EDECF07
:103C200014F0DDCF15F0166A176A01014851145CD3
:103C3000495115584A5116584B5117580AE2060E69
:103C4000E66EBCEC13F0E552DF2A010EE8E3DB2A56
:103C5000E6D7DECF14F0DDCF15F0166A176A1450E0
:103C600001014C5D15504D5916504E5917504F5982
:103C700001E2B8D0010EF36E020EF3CFDBFFDBCF13
:103C800014F000017751D880145454E3030EDB285C
:103C9000E96EEA6AE9BEEA68010EE926010EEA2247
:103CA000EF50166E176A176E166A030EDBCFE9FF28
:103CB000EA6AE9BEEA68010EE926010EEA22EF503F
:103CC00000011624146E000E1720156E040E14C089
:103CD000DBFF050E15C0DBFF020E146E030EDBCFFB
:103CE000E7FF1450E726030EE7CFDBFF010EDE26C9
:103CF000000EDD22020EE66EBCEC13F0E552040E5F
:103D0000DBCFE6FF050EDBCFE6FFD2EC13F0E5528A
:103D1000E55200017751F36E020EDBCFF4FFF35052
:103D2000F45C05E2060EE66EBCEC13F0E552020E02
:103D3000DB2AA5D770512E0A3DE0030A2EE0010AC6
:103D40001DE0070A19E0010A08E0030A04E0010A7D
:103D500043E1180E23D0080E21D0180EE66EBCECFD
:103D600013F0E5527FC0E6FF80C0E6FF86EC33F03B
:103D7000E552E552170E2CD0080E1DD0180EE66E37
:103D8000BCEC13F0E5527FC0E6FF80C0E6FF86EC96
:103D900033F0E552E5520A0E1BD0080EE66EBCEC7D
:103DA00013F0E5527FC0E6FF80C0E6FF86EC33F0FB
:103DB000E55211D0180EE66EBCEC13F0E5527FC050
:103DC000E6FF80C0E6FF86EC33F0E552E5520E0ECA
:103DD000E66EBCEC13F0E552060EE66EBCEC13F09A
:103DE000E55237D77FEC38F0F56E060EE15C02E263
:103DF000E16AE552E16EF550E552E7CFD9FF1200D6
:103E0000000EE66EE66AF4D8E552E5521200A60E00
:103E1000E66E9C0EE66EECD8E552E5521200A60E58
:103E2000E66E8E0EE66EE4D8E552E5521200D9CF6A
:103E3000E6FFE1CFD9FF040EE126D9CFE9FFDACFC3
:103E4000EAFFFB0EDBCFEEFFFC0EDBCFEEFFFD0E3D
:103E5000DBCFEEFFFE0EDBCFEEFF020EDB50146E6B
:103E6000156AE8500E0E151214C0E6FF15C0E6FFE5
:103E7000BFD8E552E552F80EE66E6E0EE66EB8D883
:103E8000E552E552010EDB50146E156AE8500E0E35
:103E9000151214C0E6FF15C0E6FFAAD8E552E55298
:103EA000F70EE66E6E0EE66EA3D8E552E552DF50D1
:103EB000146E156AE8500E0E151214C0E6FF15C0F8
:103EC000E6FF96D8E552E552F60EE66E6E0EE66E09
:103ED0008FD8E552E552F56E040EE15C02E2E16A2C
:103EE000E552E16EF550E552E7CFD9FF1200D9CF88
:103EF000E6FFE1CFD9FFFE0EDBCF14F0156A166A9C
:103F00003C0E1612176A16BE176814C0E6FF15C0DD
:103F1000E6FF16C0E6FF17C0E6FF89DFE552E5526F
:103F2000E552E552E552E7CFD9FF1200D9CFE6FFBF
:103F3000E1CFD9FFFE0EDBCFE6FF040EE66E3EECCE
:103F400036F0E552E552010EE66E9FEC3EF0E5528A
:103F5000E552E7CFD9FF1200D9CFE6FFE1CFD9FF75
:103F6000020EE126FD0EDBCFDEFFDBCFDDFFDFCF74
:103F7000E6FF080EE66E3EEC36F0E552E552010E25
:103F8000DBCFE6FF080EE66E3EEC36F0E552E5527A
:103F9000010EE66E9FEC3EF0E552F56E020EE15C1E
:103FA00002E2E16AE552E16EF550E552E7CFD9FF52
:103FB0001200D9CFE6FFE1CFD9FFE65220EC36F070
:103FC000080EE66E3EEC37F0E552080EE66E3EEC6B
:103FD00037F0E552DF6E2FEC36F0010EE66E9FEC07
:103FE0003EF0E552DF50E552E552E7CFD9FF12002F
:103FF000D9CFE6FFE1CFD9FFE66A98DFE552FD0EA3
:10400000DBCFE6FFFE0EDBCFE6FFA6DFE552E55293
:10401000E552E7CFD9FF1200D9CFE6FFE1CFD9FFB4
:104020000C0EE66E83DFE552FD0EDBCFE6FFFE0EE3
:10403000DBCFE6FF91DFE552E552E552E7CFD9FF4E
:104040001200D9CFE6FFE1CFD9FF0D0EE66E6EDF8D
:10405000E552FD0EDBCFE6FFFE0EDBCFE6FF7CDF99
:10406000E552E552E552E7CFD9FF1200D9CFE6FF7E
:10407000E1CFD9FF0F0EE66E59DFE552FD0EDBCF23
:10408000E6FFFE0EDBCFE6FF67DFE552E552E552C5
:10409000E7CFD9FF1200D9CFE6FFE1CFD9FFE65233
:1040A0009CEC35F0DF6ADFCF14F0030EE76E1418D6
:1040B000E8AE02D0E73402D0E750145C0DE28DEC9C
:1040C00035F0010EE66EE66A86EC33F0E552E55215
:1040D0007EEC35F0DF2AE7D78DEC35F0FD0EDBCF37
:1040E000E6FFFE0EDBCFE6FF86EC33F0E552E5524D
:1040F0007EEC35F0000EE66EE66A2EDFE552E55204
:10410000E552E552E7CFD9FF1200D9CFE6FFE1CF64
:10411000D9FF020EE126EAEC37F0FE0EE66EE66805
:104120003F0EE66EE66A83DEE552E552E552E55261
:10413000090EE66EFBDEE5523CDFDF6E090EE66E31
:10414000F5DEE55236DFE76E010EE7CFDBFF7FECF1
:1041500038F0DECF14F0DDCF15F014C0F3FF15C03A
:10416000F4FFF56E020EE15C02E2E16AE552E16EF7
:10417000F550E552E7CFD9FF1200D9CFE6FFE1CFE6
:10418000D9FF050EE126030EDF6E0101026B036B02
:1041900001013F0E006F4C0EE96E010EEA6E010147
:1041A0004851EE5C4951EE584A51EE584B51EE5889
:1041B00003E20001606BB1D00001605112E1EAEC52
:1041C00037F00001010E606F48C1E6FF49C1E6FF0C
:1041D0004AC1E6FF4BC1E6FF2ADEE552E552E55251
:1041E000E552480EE96E010EEA6EEE5001014C5D9B
:1041F000146EEE504D59156EEE504E59166EEE502F
:104200004F59176E142A000E152216221722010E7E
:1042100014C0DBFF020E15C0DBFF030E16C0DBFF70
:10422000040E17C0DBFF010EDBCF05F0020EDBCF63
:1042300006F0030EDBCF07F0040EDBCF08F00834E6
:10424000000E081809E6D8803C0E0554000E0654EE
:10425000000E0754000E08540CE23C0EF36E010EE3
:10426000F3CFDBFF020EDB6A030EDB6A040EDB6AB0
:1042700002D00001606B010EDBCF02F1030EDF6E96
:10428000DFCF14F0156A166A176A010EDBCF18F03B
:10429000020EDBCF19F0030EDBCF1AF0040EDBCFDA
:1042A0001BF0030E1826000E19221A221B2217508B
:1042B0001B18E8AE02D01B3408D01850145C1950FB
:1042C00015581A5016581B50175811E2090EE66E71
:1042D0002DDEE5526EDEE66EDF50EA6A010FE96E12
:1042E000010EEA22E552E750EF6EDF2AC9D701013D
:1042F000010E036FDB5001014827020EDB504923FA
:10430000030EDB504A23040EDB504B2300016051A7
:1043100004E10101036B7FEC38F0F56E050EE15C02
:1043200002E2E16AE552E16EF550E552E7CFD9FFCE
:104330001200D9CFE6FFE1CFD9FF0D0EE126030E23
:10434000DF6E0101026B036B01013F0E006F4C0E2B
:10435000E96E010EEA6E01014851EE5C4951EE58DA
:104360004A51EE584B51EE5803E20001616B0BD1FC
:10437000000161510DE1EAEC37F00001010E616FBF
:10438000A60EE66E9E0EE66E33DEE552E5523FDD8A
:10439000480EE96E010EEA6EEE5001014C5D146E9E
:1043A000EE504D59156EEE504E59166EEE504F5957
:1043B000176E142A000E152216221722010E14C0A1
:1043C000DBFF020E15C0DBFF030E16C0DBFF040E81
:1043D00017C0DBFF010EDBCF05F0020EDBCF06F0CE
:1043E000030EDBCF07F0040EDBCF08F00834000E1D
:1043F000081809E6D8803C0E0554000E0654000E3D
:104400000754000E08540CE23C0EF36E010EF3CF7D
:10441000DBFF020EDB6A030EDB6A040EDB6A02D0EE
:104420000001616B010EDBCF02F1030EDF6EDFCF07
:1044300014F0156A166A176A010EDBCF18F0020E27
:10444000DBCF19F0030EDBCF1AF0040EDBCF1BF02D
:10445000030E1826000E19221A221B2217501B18B1
:10446000E8AE02D01B3408D01850145C195015580F
:104470001A5016581B50175801E37BD0050E48C13F
:10448000DBFF060EDB6A070EDB6A080EDB6A090E2D
:1044900049C1DBFF0A0EDB6A0B0EDB6A0C0EDB6A1E
:1044A000050EDBCF14F0060EDBCF15F0070EDBCFC9
:1044B00016F0080EDBCF17F00E0E151214C0E6FF33
:1044C00015C0E6FF95DDE552E552A90EE66E6E0ECB
:1044D000E66E8EDDE552E552090EDBCF14F00A0ED2
:1044E000DBCF15F00B0EDBCF16F00C0EDBCF17F089
:1044F0000E0E151214C0E6FF15C0E6FF79DDE55279
:10450000E552AA0EE66E6E0EE66E72DDE552E552DB
:10451000A60EE66E800EE66E6BDDE552E552A80E45
:10452000E66E500EE66E64DDE552E552F50EE66E7F
:104530006E0EE66E5DDDE552E5523D0E0001735DE7
:1045400001E15EDC020EE66EF1DCE55232DDE66E84
:10455000DF50EA6A010FE96E010EEA22E552E750E8
:10456000EF6E0101482B000E49234A234B23DF2A1B
:104570005ED70101010E036F0001615104E10101E9
:10458000036B7FEC38F0F56E0D0EE15C02E2E16A40
:10459000E552E16EF550E552E7CFD9FF1200D1EFB9
:1045A00022F0D9CFE6FFE1CFD9FFE652EAEC37F0AF
:1045B00048C1E6FF49C1E6FF4AC1E6FF4BC1E6FF3D
:1045C00036DCE552E552E552E552DF6ADFCF14F002
:1045D000156A166A176A14AE03D01568166817684C
:1045E000480EE96E010EEA6EEE5001014C5D186E48
:1045F000EE504D59196EEE504E591A6EEE504F59FD
:104600001B6ED890183619361A361B361450185CA3
:104610001550195816501A5817501B5815E3090E03
:10462000E66E84DCE552C5DCE66E030EDF24E96E3F
:10463000EA6AE9BEEA68010EE926010EEA22E552BD
:10464000E750EF6EDF2AC2D77FEC38F0DFCF02F100
:104650000101036B01013F0E006FE552E552E7CF08
:10466000D9FF1200EAEC37F000017251400A3EE037
:104670007F0A28E0010A16E0030A03E0010A4BE181
:1046800009D00FEC1FF0A60EE66E8C0EE66EB0DCC5
:10469000E552E552040EE66E2ADCE552800EE66E27
:1046A000E66A36D0050EE66E22DCE5523F0EE66E77
:1046B000E66EB2DCE552E552040EE66E18DCE55219
:1046C0008F0E24D0050EE66E12DCE5520A0EE66E61
:1046D000010EE66EA1DCE552E552040EE66E77ECC3
:1046E0001FF0E5528A0EE66E010E11D0050EE66E41
:1046F00077EC1FF0E552E668E6688EDCE552E5529D
:10470000040EE66E77EC1FF0E552870EE66EE66E5D
:1047100083DCE552E55200EC1FF0E66A96EC1FF0F0
:10472000E55283C0E6FF84C0E6FF86EC33F0E55235
:10473000E552000EE66EE66A0FDCE552E5527FEFC9
:1047400038F032EF23F0D9CFE6FFE1CFD9FF030EE7
:10475000E12674C0DFFF4C0EE96E010EEA6E010126
:104760004851EE5C4951EE584A51EE584B51EE58C3
:1047700003E20001626B97D1030EF36E020EF3CFDA
:10478000DBFF0001625101E0B0D0010E626F000159
:10479000876B400E875D09E28751EA6A500FE96E28
:1047A000010EEA22EF6A872BF4D7876BEAEC37F029
:1047B000DFCF14F0156A166A176A14AE03D01568B5
:1047C0001668176848C104F049C105F04AC106F0EF
:1047D0004BC107F014C009F015C00AF016C00BF069
:1047E00017C00CF00CEC3EF000500101485D0101D7
:1047F000D26F0150010149590101D36F02500101EB
:104800004A590101D46F035001014B590101D56F81
:10481000DFCF14F0156A166A176A14AE03D0156854
:104820001668176848C104F049C105F04AC106F08E
:104830004BC107F014C009F015C00AF016C00BF008
:1048400017C00CF00CEC3EF000C087F000016D5179
:1048500002E13C0E6D6FEAEC37F000016D51400A49
:104860000AE07D0A08E0010A18E10FEC1FF0A60E2D
:10487000E66E8C0E0DD00FEC1FF0A60EE66E8C0EC1
:10488000E66EF8EC1FF0E552E552A60EE66E840ED9
:10489000E66EF8EC1FF0E552E552060EE66E77EC98
:1048A0001FF0E552000EE66EE66A0CEC20F0E552D1
:1048B000E55200016D51400A14E07F0A12E0010A3E
:1048C00005E0030A0EE0010A10E10BD007EC1FF02F
:1048D000A60EE66E840EE66EF8EC1FF0E552E55289
:1048E00004D00FEC1FF007EC1FF0D20EE96E010EA2
:1048F000EA6EEE5001014C5DEE504D59EE504E59AE
:10490000EE504F5901E2B5D0030E01010225F36EBE
:10491000020EDBCFF4FFF350F45C01E3AAD0DF50CA
:104920000001875D2BE2030E01010225F36E020EEA
:10493000DBCFF4FFF350F45C21E2020EDBCFE9FFA2
:10494000EA6AE9BEEA68010EE926010EEA22EF50A2
:10495000E66E00018751EA6A500FE96E010EEA2205
:10496000E552E750EF6E872B020E146EDBCFE7FFA8
:10497000E850E726020EE7CFDBFFD1D7DF5000017A
:10498000875D03E001010351B0E1D2C1E6FFD3C16D
:10499000E6FFD4C1E6FFD5C1E6FF17EC1FF0E552F4
:1049A000E552E552E5520001876BDF50875D4BE22F
:1049B000020EDF5C875D1DE28729EA6A500FE96E0F
:1049C000010EEA22EF50176A176E166A8751EA6ADB
:1049D000500FE96E010EEA22EF5000011624146E0A
:1049E000000E1720156E14C0E6FFE66E21EC20F0D5
:1049F00024D08729EA6A500FE96E010EEA22EF50AF
:104A0000176A176E166A8751EA6A500FE96E010E2F
:104A1000EA22EF5000011624146E000E1720156EC6
:104A200014C0E6FFE66E36EC20F0E552E55279C0A0
:104A3000E6FF7AC0E6FF4BEC20F0E552E552020EAD
:104A400000018727B2D7DFCF14F0156A166A176AFC
:104A500014AE03D015681668176814500101D227E8
:104A60001550D3231650D4231750D5230001876B3C
:104A70003CD7D20EE96E010EEA6EEE5001014C5D9C
:104A8000EE504D59EE504E59EE504F5903E301018F
:104A9000035102E10001626B0001625102E17FEC0F
:104AA00038F00101026BF56E030EE15C02E2E16A8F
:104AB000E552E16EF550E552E7CFD9FF1200D9CFAC
:104AC000E6FFE1CFD9FF030EE1260101DD51146EAF
:104AD000156A0E0E1512DDC1E6FF15C0E6FFF8ECF3
:104AE0001FF0E552E552A90EE66E6E0EE66EF8EC8A
:104AF0001FF0E552E5520101DE51146E156A1450A3
:104B00000E0E1512DEC1E6FF15C0E6FFF8EC1FF031
:104B1000E552E552AA0EE66E6E0EE66EF8EC1FF058
:104B2000E552E552FE0EDB50146E156AE8500E0E8B
:104B3000151214C0E6FF15C0E6FFF8EC1FF0E552B1
:104B4000E552A80EE66E6E0EE66EF8EC1FF0E5522A
:104B5000E552A60EE66E840EE66EF8EC1FF0E55206
:104B6000E552550EE66E0E0EE66EF8EC1FF0E552BD
:104B7000E552A70EE66E6E0EE66EF8EC1FF0E552FB
:104B8000E552AA0EE66E0E0EE66EF8EC1FF0E55248
:104B9000E552A70EE66E6E0EE66EF8EC1FF0E552DB
:104BA000E552A60EE66E820EE66EF8EC1FF0E552B8
:104BB000E5520A0EDF6E010EE66EE66AC4EC33F0D3
:104BC000E552E552DF06A60EE66E500EE66EF8ECF4
:104BD0001FF0E552E552F50EE66E6E0EE66EF8EC4D
:104BE0001FF0E552E552020EE66E96EC1FF0E5521C
:104BF000D9EC1FF0E66ED950010FE96EDACFEAFF6B
:104C0000E552E750EE6EED6ADFCF14F0000EE76E6E
:104C10001418E8AE02D0143403D0E750D8801454EE
:104C200010E2020EE76E010EDBCF15F0020EDBCFB5
:104C300016F0E7501516166A020E151801E1165007
:104C4000BAE0640EE66EE66A86EC33F0E552E552B1
:104C5000A60EE66E940EE66EF8EC1FF0E552E552F5
:104C6000F56E030EE15C02E2E16AE552E16EF55099
:104C7000E552E7CFD9FF1200D9CFE6FFE1CFD9FF48
:104C8000030EE1260101DD51146E156A0E0E151298
:104C9000DDC1E6FF15C0E6FFF8EC1FF0E552E55276
:104CA000A90EE66E6E0EE66EF8EC1FF0E552E552C8
:104CB0000101DE51146E156A14500E0E1512DEC17C
:104CC000E6FF15C0E6FFF8EC1FF0E552E552AA0E2C
:104CD000E66E6E0EE66EF8EC1FF0E552E552FE0E43
:104CE000DB50146E156AE8500E0E151214C0E6FF64
:104CF00015C0E6FFF8EC1FF0E552E552A80EE66E8F
:104D00006E0EE66EF8EC1FF0E552E552A60EE66E6A
:104D1000840EE66EF8EC1FF0E552E552A60EE66E44
:104D2000820EE66EF8EC1FF0E552E5520A0EDF6ED9
:104D3000010EE66EE66AC4EC33F0E552E552DF069A
:104D4000A60EE66E500EE66EF8EC1FF0E552E55248
:104D5000F50EE66E6E0EE66EF8EC1FF0E552E552CB
:104D600000EC1FF0020EE66E96EC1FF0E552D9EC57
:104D70001FF0E66ED950010FE96EDACFEAFFE55277
:104D8000E750EE6EED6ADFCF14F0000EE76E1418F8
:104D9000E8AE02D0143403D0E750D880145410E2A7
:104DA000020EE76E010EDBCF15F0020EDBCF16F020
:104DB000E7501516166A020E151801E11650B8E0F4
:104DC000640EE66EE66A86EC33F0E552E552A60E16
:104DD000E66E940EE66EF8EC1FF0E552E552F56EC5
:104DE000030EE15C02E2E16AE552E16EF550E55244
:104DF000E7CFD9FF1200D9CFE6FFE1CFD9FF0101FC
:104E0000DD51146E156A0E0E1512DDC1E6FF15C0D8
:104E1000E6FFF8EC1FF0E552E552A90EE66E6E0EC5
:104E2000E66EF8EC1FF0E552E552FE0EDB50146E14
:104E3000156AE8500E0E151214C0E6FF15C0E6FF05
:104E4000F8EC1FF0E552E552A80EE66E6E0EE66E27
:104E5000F8EC1FF0E552E552A60EE66E840EE66E03
:104E6000F8EC1FF0E552E552550EE66E0E0EE66EBA
:104E7000F8EC1FF0E552E552A70EE66E6E0EE66EF8
:104E8000F8EC1FF0E552E552AA0EE66E0E0EE66E45
:104E9000F8EC1FF0E552E552A70EE66E6E0EE66ED8
:104EA000F8EC1FF0E552E552A60EE66E820EE66EB5
:104EB000F8EC1FF0E552E55200EC1FF0E66A96ECC4
:104EC0001FF0E5527DC0E6FF7EC0E6FF86EC33F0C2
:104ED000E552E552000EE66EE66AACEC1FF0E552D4
:104EE000E552640EE66EE66A86EC33F0E552E55272
:104EF000A60EE66E940EE66EF8EC1FF0E552E55253
:104F0000E552E7CFD9FF1200D9CFE6FFE1CFD9FFB5
:104F1000020EE1264C0EE96E010EEA6E01014851C7
:104F2000EE5C4951EE584A51EE584B51EE5803E2AF
:104F30000001636B84D0DE52030EDD6E000163510D
:104F40001CE100016E5102E13C0E6E6FEAEC37F09D
:104F50000001010E636F48C1DDF149C1DEF14AC1B4
:104F6000DFF14BC1E0F1A60EE66E9E0EE66EF8ECA8
:104F70001FF0E552E55207EC1FF0DD0EE96E010E61
:104F8000EA6EEE5001014C5DEE504D59EE504E5917
:104F9000EE504F593CE3030E01010225F36E010E62
:104FA000DBCFF4FFF350F45C32E2010EDBCFE9FF1C
:104FB000EA6AE9BEEA68010EE926010EEA22EFCFAD
:104FC000DFFF00016E513E0A09E0030A03E0010A17
:104FD00009E108D0DFCFE6FF0EDF07D0DFCFE6FF25
:104FE0006EDD03D0DFCFE6FF47DEE552020E146E22
:104FF000010EDBCFE7FF1450E726010EE7CFDBFF02
:105000000101DD2B000EDE23DF23E023B6D7DD0E0A
:10501000E96E010EEA6EEE5001014C5DEE504D5905
:10502000EE504E59EE504F5903E30101035102E196
:105030000001636B0001635102E17FEC38F0F56E13
:10504000020EE15C02E2E16AE552E16EF550E552E2
:10505000E7CFD9FF120000016F5102E13C0E6F6FE4
:10506000EAEC37F00001000ED8806B55000E6C554D
:1050700016E20FEC1FF0A60EE66E8C0EE66EF8EC54
:105080001FF0E552E552060EE66E77EC1FF0E55292
:10509000000EE66EE66A0CEC20F0E552E5520001E7
:1050A0006F513E0A09E0030A02E0010A0FE10FEC2A
:1050B0001FF007EC1FF00AD007EC1FF0A60EE66EFB
:1050C000840EE66EF8EC1FF0E552E55248C1E6FFAB
:1050D00049C1E6FF4AC1E6FF4BC1E6FF17EC1FF0EE
:1050E000E552E552E552E55201010551176A05C145
:1050F00017F0166A045100011624146E000E1720D2
:10510000156E14C0E6FFE66E21EC20F0E552E55284
:1051100001010751176A07C117F0166A065100010D
:105120001624146E000E1720156E14C0E6FFE66EEE
:1051300021EC20F0E552E55201010951176A09C13D
:1051400017F0166A085100011624146E000E17207D
:10515000156E14C0E6FFE66E21EC20F0E552E55234
:1051600001010B51176A0BC117F0166A0A510001B1
:105170001624146E000E1720156E14C0E6FFE66E9E
:1051800036EC20F0E552E55281C0E6FF82C0E6FF32
:105190004BEC20F0E552E5527FEF38F0D9CFE6FF37
:1051A000E1CFD9FFFD0EDBCFE6FFFE0EDBCFE6FF42
:1051B00036EC20F0E552E5527FC0E6FF80C0E6FF06
:1051C0004BEC20F0E552E5523F0E0001705D08E126
:1051D00000EC1FF000EC1FF000EC1FF000EC1FF0E3
:1051E000DBC1E6FFDCC1E6FFF8EC1FF0E552E5525B
:1051F000F60EE66E6E0EE66EF8EC1FF0E552E55226
:105200000101DB2B000EDC23E552E7CFD9FF1200B2
:105210000001705102E13C0E706FEAEC37F00001C2
:1052200070513F0A15E0010A07E0030A11E0010A84
:1052300027E10FEC1FF008D0A60EE66E840EE66E96
:10524000F8EC1FF0E552E552A60EE66E8C0E13D078
:105250000FEC1FF0A60EE66E8C0EE66EF8EC1FF05B
:10526000E552E552E66AEF0EE66EF8EC1FF0E55205
:10527000E552E66AF80EE66EF8EC1FF0E552E552EC
:1052800048C1E6FF49C1E6FF4AC1E6FF4BC1E6FF60
:1052900017EC1FF0E552E552E552E5520101010E0F
:1052A000DB6F0E0EDC6F01010451E66EE66A76DFFD
:1052B000E552E55201010651156A06C115F0146A5E
:1052C00014C0E6FF06C1E6FF69DFE552E5520101C1
:1052D0000851E66EE66A62DFE552E55201010A51C5
:1052E000156A0AC115F0146A14C0E6FF0AC1E6FF88
:1052F00055DFE552E55201010C51E66EE66A4EDFDC
:10530000E552E55201010E51156A0EC115F0146AFD
:1053100014C0E6FF0EC1E6FF41DFE552E552010190
:105320001051E66EE66A3ADFE552E552010112518C
:10533000156A12C115F0146A14C0E6FF12C1E6FF27
:105340002DDFE552E55201011451E66EE66A26DFD3
:10535000E552E55201011651156A16C115F0146A9D
:1053600014C0E6FF16C1E6FF19DFE552E552010160
:105370001851E66EE66A12DFE552E55201011A5154
:10538000156A1AC115F0146A14C0E6FF1AC1E6FFC7
:1053900005DFE552E55201011C51E66EE66AFEDECC
:1053A000E552E55201011E51156A1EC115F0146A3D
:1053B00014C0E6FF1EC1E6FF36EC20F0E552E552D0
:1053C0007FC0E6FF80C0E6FF4BEC20F0E552E552DF
:1053D0003F0E0001705D08E100EC1FF000EC1FF0D3
:0C53E00000EC1FF000EC1FF07FEF38F035
:0453EC00D9CFE6FF30
:1053F000E1CFD9FFFE0EDBCFE6FF060EE66E3EECF8
:1054000036F0E552E552010EE66E9FEC3EF0E552B5
:10541000E552E7CFD9FF1200D9CFE6FFE1CFD9FFA0
:10542000E66A010EE66E3EEC36F0E552E552FD0E00
:10543000DBCFE6FF080EE66E3EEC36F0E552E552B5
:10544000FE0EDBCFE6FF040EE66E3EEC36F0E552D4
:10545000E552E66A030EE66E3EEC36F0E552E552A2
:10546000010EE66E9FEC3EF0E552E552E7CFD9FF24
:105470001200D9CFE6FFE1CFD9FF020EE12620ECE2
:1054800036F0010EE66E3EEC37F0E552080EE66EA1
:105490003EEC37F0E552DF6E040EE66E3EEC37F080
:1054A000E552E76E010EE7CFDBFF030EE66E3EEC42
:1054B00037F0E5522FEC36F0010EE66E9FEC3EF031
:1054C000E552DECF14F0DDCF15F014C0F3FF15C0A8
:1054D000F4FFF56E020EE15C02E2E16AE552E16E74
:1054E000F550E552E7CFD9FF1200F36AF46A1200D3
:1054F000D9CFE6FFE1CFD9FF0B0EE126030EF36E05
:10550000060EF3CFDBFF0101026B036B01013F0EBF
:10551000006F4C0EE96E010EEA6E01014851EE5C1F
:105520004951EE584A51EE584B51EE5803E20001F2
:10553000606B06D1000160512BE1EAEC37F0060EFA
:10554000E66E54DFE5520001010E606FDE6ADE6A2E
:10555000DE6ADD6ADD52DD52D9CFE9FFDACFEAFF3C
:1055600001014851EE5C4951EE584A51EE584B51F9
:10557000EE580EE2060EE66E39DFE552D9CFE9FFAE
:10558000DACFEAFFEE2A000EEE22EE22EE22E4D778
:10559000480EE96E010EEA6EEE5001014C5D146E8C
:1055A000EE504D59156EEE504E59166EEE504F5945
:1055B000176E142A000E152216221722070E14C089
:1055C000DBFF080E15C0DBFF090E16C0DBFF0A0E5D
:1055D00017C0DBFF070EDBCF05F0080EDBCF06F0B0
:1055E000090EDBCF07F00A0EDBCF08F00834000EFF
:1055F000081809E6D8801E0E0554000E0654000E49
:105600000754000E08540CE21E0EF36E070EF3CF83
:10561000DBFF080EDB6A090EDB6A0A0EDB6A02D0CA
:105620000001606B070EDBCF04F0080EDBCF05F046
:10563000090EDBCF06F00A0EDBCF07F0020E096E73
:105640000A6A0B6A0C6AA7EC3DF000C002F148C17F
:10565000DFFF010E49C1DBFF020E4AC1DBFF030E73
:105660004BC1DBFFD950070FE96EDACFEAFF01012A
:105670004851EE24146E4951EE20156E4A51EE2029
:10568000166E4B51EE20176ED9CFE9FFDACFEAFF45
:105690001450EE5C1550EE581650EE581750EE5858
:1056A00033E2040EE66EA2DEE552E3DE040EF3CF33
:1056B000DBFF050EF4CFDBFF060EDBCFF3FFDB2AAB
:1056C000F350EA6A010FE96E010EEA22040EDBCF05
:1056D000EFFF060EDBCFF3FFDB2AF350EA6A010F80
:1056E000E96E010EEA22050EDBCFEFFF060EE66E35
:1056F0007DDEE552D9CFE9FFDACFEAFFEE2A000ED0
:10570000EE22EE22EE22AED70101010E036FD95038
:10571000070FE96EDACFEAFF01014851EE24486F26
:105720004951EE20496F4A51EE204A6F4B51EE200D
:105730004B6F0001605104E10101036B7FEC38F015
:10574000F56E0B0EE15C02E2E16AE552E16EF550A6
:10575000E552E7CFD9FF120078EF2AF0D9CFE6FF64
:10576000E1CFD9FF070EE126030EF36E040EF3CF4F
:10577000DBFF0101080E026F036B01013F0E006F9A
:10578000EAEC37F0060EE66E31DEE552DE6ADE6ADE
:10579000DE6ADD6ADD52DD52D9CFE9FFDACFEAFFFA
:1057A00001014851EE5C4951EE584A51EE584B51B7
:1057B000EE580EE2060EE66E19DEE552D9CFE9FF8D
:1057C000DACFEAFFEE2A000EEE22EE22EE22E4D736
:1057D00048C1DFFF010E49C1DBFF020E4AC1DBFFFA
:1057E000030E4BC1DBFFD9CFE9FFDACFEAFFEE5062
:1057F00001014C5DEE504D59EE504E59EE504F594F
:1058000032E3040EE66EF2DDE55233DE050EF3CF31
:10581000DBFF060EF4CFDBFF040EDBCFF3FFDB2A4A
:10582000F350EA6A010FE96E010EEA22050EDBCFA2
:10583000EFFF040EDBCFF3FFDB2AF350EA6A010F20
:10584000E96E010EEA22060EDBCFEFFFE66ECEDD3B
:10585000E552D9CFE9FFDACFEAFFEE2A000EEE22B9
:10586000EE22EE22C0D7040EDB50FD0F0101026FC5
:105870007FEC38F0F56E070EE15C02E2E16AE5527A
:10588000E16EF550E552E7CFD9FF1200D9CFE6FF20
:10589000E1CFD9FF030EE126DF6E0101020E026F98
:1058A000036B01013F0E006FEAEC37F0040EE66E69
:1058B0009DDDE552DEDDDE52F3CFDEFFF4CFDDFF0E
:1058C000DD52DF50DF2AEA6A010FE96E010EEA229B
:1058D000010EDBCFEFFFDF50DF2AEA6A010FE96E2E
:1058E000010EEA22020EDBCFEFFF030EDF5C0101A7
:1058F000026F7FEC38F0F56E030EE15C02E2E16AC4
:10590000E552E16EF550E552E7CFD9FF1200EAEC1F
:1059100037F0090EE66E6ADDE55200018351792504
:10592000146E84517A21156E14C0E6FFE66E86EC83
:1059300033F0E552E5527FEF38F0D9CFE6FFE1CF03
:10594000D9FF080EE126EAEC37F0060EE66E4EDDD2
:10595000E552FF0E00016711146E68C015F0010ECC
:105960001426000E1522040E14C0DBFF050E15C010
:10597000DBFF060EDB6A070EDB6ADE6ADE6ADE6AC2
:10598000DD6ADD52DD52040EDBCF14F0050EDBCFF5
:1059900015F0060EDBCF16F0070EDBCF17F0D9CFD0
:1059A000E9FFDACFEAFF030EEB501718E8AE02D09A
:1059B000173408D01450EE5C1550EE581650EE58BF
:1059C0001750EE580EE2060EE66E10DDE552D9CF06
:1059D000E9FFDACFEAFFEE2A000EEE22EE22EE22F7
:1059E000D2D7090EE66E02DDE5520001835179251A
:1059F000146E84517A21156E14C0E6FFE66E86ECB3
:105A000033F0E552E5527FEC38F0F56E080EE15CBC
:105A100002E2E16AE552E16EF550E552E7CFD9FFC7
:105A20001200D9CFE6FFE1CFD9FF040EE1264C0EDC
:105A3000E96E010EEA6E01014851EE5C4951EE58E3
:105A40004A51EE584B51EE5803E20001626BA5D06B
:105A5000DE52030EDD6E0001625127E1EAEC37F001
:105A6000060EE66EC3DCE5520001010E626F010115
:105A7000D26BD36BD46BD56BD20EE96E010EEA6E8E
:105A800001014851EE5C4951EE584A51EE584B51D4
:105A9000EE580BE2060EE66EA9DCE5520101D22BB0
:105AA000000ED323D423D523E7D7D20EE96E010EFF
:105AB000EA6EEE5001014C5DEE504D59EE504E59DC
:105AC000EE504F5952E3030E01010225F36E010E11
:105AD000DBCFF4FFF350F45C48E2010EDBCFF3FFC1
:105AE000DB2AF350E96EEA6AE9BEEA68010EE926AC
:105AF000010EEA22020EEFCFDBFF010EDBCFF3FF38
:105B0000DB2AF350E96EEA6AE9BEEA68010EE9268B
:105B1000010EEA22030EEFCFDBFF020EE66E66DC1B
:105B2000E552020EDBCFE6FF030EDBCFE6FF74DCAF
:105B3000E552E552080EE66E59DCE55279C0E6FF03
:105B40007AC0E6FF86EC33F0E552E5520E0EE66EC3
:105B50004DDCE552060EE66E49DCE5520101D22B22
:105B6000000ED323D423D523A0D7D20EE96E010E85
:105B7000EA6EEE5001014C5DEE504D59EE504E591B
:105B8000EE504F5903E30101035102E10001626B42
:105B90000001625102E17FEC38F0F56E040EE15C29
:105BA00002E2E16AE552E16EF550E552E7CFD9FF36
:105BB000120011EF2DF011EF2DF0D9CFE6FFE1CF5C
:105BC000D9FF020EE126EAEC37F004C1DFFF010E37
:105BD00005C1DBFF020EE66E09DCE552DECFE6FF13
:105BE000DDCFE6FF19DCE552E552080EE66EF6EC75
:105BF00029F0E5527FC0E6FF80C0E6FF86EC33F077
:105C0000E552E5520E0EE66EF6EC29F0E5527FEC19
:105C100038F0F56E020EE15C02E2E16AE552E16EF7
:0A5C2000F550E552E7CFD9FF12005E
:065C2A008A9093908B921A
:105C30009492FA0E891692160101010EE16FFBECA7
:105C400035F001010E0EE26F476B47C146F147C1C7
:105C500045F147C144F147C143F147C142F147C152
:105C600041F10001280E666F0101FD910101CD0E89
:105C7000FE6F0101CB0EFF6F92829286050EC26EFF
:105C80000B0EC16E3B0EC06EC08E24EC32F08A80CB
:105C9000FA0EE66EE66AC4EC33F0E552E5528B820A
:105CA000FA0EE66EE66AC4EC33F0E552E5528A90ED
:105CB000FA0EE66EE66AC4EC33F0E552E5528B92DA
:105CC0001200060E0101F95D05E36D50020B01E0C3
:105CD000120001D81200D9CFE6FFE1CFD9FF070E9D
:105CE000E126400EE66E010EE66E010EE66EC9EC90
:105CF0003CF0E552E552E552000901E181D2010193
:105D0000006B01010151FF0A01E154D28C0A01E14B
:105D10004BD2010A01E141D2030A01E139D2010A61
:105D200001E131D2130A01E129D2010A01E121D2B4
:105D3000030A01E119D2010A01E111D2340A01E199
:105D40000CD2070A01E107D2010A01E102D2030ADB
:105D500001E1FDD1140A01E1F7D1010A01E1F1D11C
:105D6000140A01E1CAD1120A01E195D1030A01E145
:105D700048D1010A01E133D17F0A01E125D1010AAD
:105D800001E116D1050A01E1D6D0070A01E1C7D029
:105D9000060A01E1B2D0030A01E1A5D0010A01E13E
:105DA00093D0050A01E188D07E0A39E0740A2AE01E
:105DB000060A0CE0310A01E011D201010F0E036F57
:105DC0000101046B0101040E006F09D20101010EF3
:105DD000006F0101025102E18A8013D00101020526
:105DE00002E18B820ED0040E0101025D02E18A9075
:105DF00008D0050E0101025D02E18B9202D0010183
:105E0000006BEDD10101FDB102D020EC32F0C3CF27
:105E100002F1C4CF03F10101030E006FE0D188C08D
:105E200089F002C18AF0030E0101031500018B6F96
:105E30000001000ED8808A55000E8B5504E2000147
:105E4000010E886F02D00001886B800E01010315DE
:105E5000800803E10001020E886F400E0101031566
:105E6000400803E10001030E886F050E8AC0DBFFC6
:105E7000060E8BC0DBFFD950050FE96EDACFEAFFC3
:105E8000020E0F0B06E0EC52D890ED32EF32E8062E
:105E9000FAE10001880507E1050EDBCFE6FF2DECF6
:105EA00032F0E55205D00001890502E155EC32F0EF
:105EB0000101010E006F93D1C6EC37F00101026FB2
:105EC0000101020E006F8BD10101010E006F010173
:105ED000FDB185D10101025103E1050EC26E02D070
:105EE0000D0EC26E7CD10101010E006F02C1BEFF1A
:105EF00002C18DF003C18CF072D10101010E006F5F
:105F0000BAEC35F08B80FE0E9312C10E941292887B
:105F1000929A898A02C1E1F1FBEC35F060D101016E
:105F2000010E006F0101025103E120EC36F002D0B6
:105F30002FEC36F054D10101010E006F0101020572
:105F400003E1EAEC35F033D0100E0101025D03E10C
:105F5000D9EC35F02CD0020E0101025D03E1CBEC4F
:105F600035F025D0200E0101025D03E1BAEC35F0D9
:105F70001ED0040E0101025D03E1ABEC35F017D039
:105F8000400E0101025D03E19CEC35F010D0080EDB
:105F90000101025D03E18DEC35F009D0800E0101B5
:105FA000025D03E17EEC35F002D00101006B17D1F8
:105FB0000101010E006F03C1E6FF02C1E6FF3EECE6
:105FC00036F0E552E5520BD10101020E006F02C11D
:105FD000E6FF3EEC37F0E5520101026F00D101010E
:105FE000010E006F02C1E2F1120E0101E25D02E159
:105FF0000101026B210E0101E25D02E10101026B70
:10600000EED00101010E006F01C164F002C165F024
:1060100003C166F004C167F005C168F006C169F00C
:1060200007C16AF008C16BF009C16CF00AC16DF0DC
:106030000BC16EF00CC16FF00DC170F00EC171F0AC
:106040000FC172F010C173F011C174F012C175F07C
:1060500013C176F014C177F015C178F016C179F04C
:1060600017C17AF018C17BF019C17CF01AC17DF01C
:106070001BC17EF01CC17FF01DC180F01EC181F0EC
:106080001FC182F020C183F021C184F022C185F0BC
:1060900023C186F0A4D00101010E006F01014B6BFA
:1060A00004C14AF103C149F102C148F107C14CF1F1
:1060B00001014D6B4E6B4F6B4EC14FF14DC14EF117
:1060C0004CC14DF101014C6B0101065101014C1312
:1060D000000E4D134E134F134EC14FF14DC14EF1F3
:1060E0004CC14DF101014C6B0101055101014C13F3
:1060F000000E4D134E134F1372D00101030E006FAB
:10610000020E0101025D03E10101050E006F8AD854
:10611000030EF3CFDBFF040EF4CFDBFF030EDBCF68
:1061200002F1040EDBCF03F1030EEDC1DBFF040E21
:10613000EEC1DBFF030EDBCF04F1040EDBCF05F174
:106140004ED0BEEC34F04BD007EC35F048D081D8BF
:1061500046D096D844D0ABD842D0C0D840D0010168
:10616000010E006FD2D83BD00101010E006FE4D8C0
:1061700036D00101010E006FF6D831D00101010EB9
:10618000006F08D92CD00101010E006F1AD927D059
:106190000101010E006F2CD922D00101020E006F07
:1061A0003ED90101026F1BD00101030E006F83EC89
:1061B00034F015D06D96010EDB6A020EDB6A010E1B
:1061C000DB06DBCF14F0020E01E2DB06DBCF15F0BD
:1061D0001450151001E0F3D7FF0001D000D00101E9
:1061E00000510EE004010CBF0BD000C1E6FF010E10
:1061F000E66E010EE66E8FEC3CF0E552E552E5529C
:10620000030E0001885D02E108EC33F0F56E070E25
:10621000E15C02E2E16AE552E16EF550E552E7CF5A
:10622000D9FF12000101E2511E0A11E00F0A0DE030
:10623000010A09E01E0A05E0020A01E0120075EFFA
:106240002AF048EF14F085EF20F05FEF3EF034EFD6
:1062500006F00101E2511E0A11E00F0A0DE0010AE9
:1062600009E01E0A05E0020A01E0120078EF2AF0B8
:1062700090EF14F0BDEF20F061EF3EF0B6EF06F0C6
:106280000101E2511E0A11E00F0A0DE0010A09E0C6
:106290001E0A05E0020A01E01200ACEF2BF0C0EF8D
:1062A00015F099EF21F063EF3EF056EF09F0010190
:1062B000E2511E0A11E00F0A0DE0010A09E01E0A70
:1062C00005E0020A01E01200AEEF2BF0D1EF16F06C
