:020000040000FA
:0600000090EF3EF012003B
:0608000090EF3EF0120033
:060808007FEF38F0120042
:060818007FEF38F0120032
:06082A0001004E7D0000FC
:0808300060000000330000002D
:08083800D9CFE6FFE1CFD9FFA3
:10084000FE0EDBCFE6FF040EE66E64EC33F0E552FD
:10085000E552010EE66E9CEC3EF0E552E552E7CF24
:10086000D9FF1200D9CFE6FFE1CFD9FFFE0EDBCFD3
:10087000E6FF040EE66EEBEC33F0E552E552010EB6
:10088000E66E9CEC3EF0E552E552E7CFD9FF120050
:10089000D9CFE6FFE1CFD9FFFB0EDBCFE6FF080E95
:1008A000E66E64EC33F0E552E552FC0EDBCFE6FF7A
:1008B000080EE66E64EC33F0E552E552FD0EDBCF38
:1008C000E6FF080EE66E64EC33F0E552E552010EE9
:1008D000E66E9CEC3EF0E552E552E7CFD9FF120000
:1008E000D9CFE6FFE1CFD9FFFB0EDBCFE6FF080E45
:1008F000E66EEBEC33F0E552E552FC0EDBCFE6FFA3
:10090000080EE66EEBEC33F0E552E552FD0EDBCF60
:10091000E6FF080EE66EEBEC33F0E552E552010E11
:10092000E66E9CEC3EF0E552E552E7CFD9FF1200AF
:10093000D9CFE6FFE1CFD9FF020EE12646EC33F036
:10094000080EE66E64EC34F0E552080EE66E64ECD8
:1009500034F0E552DF6E080EE66E64EC34F0E552DA
:10096000E76E010EE7CFDBFF55EC33F0010EE66ECC
:100970009CEC3EF0E552DECF14F0DDCF15F014C054
:10098000F3FF15C0F4FFF56E020EE15C02E2E16ACE
:10099000E552E16EF550E552E7CFD9FF1200D9CF0D
:1009A000E6FFE1CFD9FF020EE12646EC33F0080E58
:1009B000E66EA8EC34F0E552080EE66EA8EC34F0D2
:1009C000E552DF6E080EE66EA8EC34F0E552E76EF5
:1009D000010EE7CFDBFF55EC33F0010EE66E9CEC29
:1009E0003EF0E552DECF14F0DDCF15F014C0F3FF7A
:1009F00015C0F4FFF56E020EE15C02E2E16AE55219
:100A0000E16EF550E552E7CFD9FF1200D9CFE6FFEE
:100A1000E1CFD9FF040EE126D9CFE9FFDACFEAFF13
:100A2000FB0EDBCFEEFFFC0EDBCFEEFFFD0EDBCFD0
:100A3000EEFFFE0EDBCFEEFF0001920511E1E66A4C
:100A400011DFE552D9CFE9FFDACFEAFFEECFE6FFBB
:100A5000EECFE6FFEECFE6FFEFCFE6FF41DF10D0AF
:100A6000E66AEADEE552D9CFE9FFDACFEAFFEECF58
:100A7000E6FFEECFE6FFEECFE6FFEFCFE6FF08DFC3
:100A8000E552E552E552E552F56E040EE15C02E2F4
:100A9000E16AE552E16EF550E552E7CFD9FF120069
:100AA000E66AE66AE66AE66AB1DFE552E552E552D1
:100AB000E5521200E66A010EE66E040EE66EE66A84
:100AC000A5DFE552E552E552E5521200E66A020E54
:100AD000E66E040EE66EE66A99DFE552E552E552EF
:100AE000E5521200B60EE66E1B0EE66EBA0EE66E0C
:100AF000E66A8CDFE552E552E552E5521200B60E89
:100B0000E66E1B0EE66EBB0EE66EE66A7FDFE55212
:100B1000E552E552E5521200D9CFE6FFE1CFD9FF09
:100B2000FE0EDBCF14F0156A166A148A3C0E1512FD
:100B3000880E1612176A14C0E6FF15C0E6FF16C02D
:100B4000E6FF17C0E6FF62DFE552E552E552E552E7
:100B5000E552E7CFD9FF1200580EE66E050EE66E9D
:100B6000200EE66EE66A52DFE552E552E552E552A6
:100B7000380EE66E3B0EE66E880EE66EE66A46DFDF
:100B8000E552E552E552E552A90EE66E0A0EE66E12
:100B9000200EE66EE66A3ADFE552E552E552E5528E
:100BA000390EE66E3B0EE66E880EE66EE66A2EDFC6
:100BB000E552E552E552E5521200610EE66EE70E8F
:100BC000E66EA80EE66EE66A21DFE552E552E552D2
:100BD000E55266DF65DF020EE66EE66AC1EC37F0CD
:100BE000E552E5525DDF5CDF610EE66EE70EE66E14
:100BF000A90EE66EE66A0ADFE552E552E552E552D5
:100C00004FDF50EF05F0D9CFE6FFE1CFD9FF020E5D
:100C1000E1260001920506E1010EE66E23DEE552B3
:100C2000BEDE05D0010EE66E07DEE55281DEF3CFB3
:100C3000DEFFF4CFDDFFDECF14F0DDCF15F014C002
:100C4000F3FF15C0F4FFF56E020EE15C02E2E16A0B
:100C5000E552E16EF550E552E7CFD9FF120020DFF3
:100C60001FDF28DF50EF05F0D9CFE6FFE1CFD9FF36
:100C7000020EE12610EC35F0F2DFF00EE66E0F0EFC
:100C8000E66E200EE66EE66AC1DEE552E552E552FA
:100C9000E552900EE66E010EE66E880EE66EE66A8E
:100CA000B5DEE552E552E552E552E66A030EE66E20
:100CB000EB0EE66EE66AAADEE552E552E552E55233
:100CC000800EE66E030EE66EEB0EE66EE66A9EDEC4
:100CD000E552E552E552E552B60EE66E0B0EE66EB3
:100CE000BA0EE66EE66A92DEE552E552E552E5524C
:100CF000D7DED6DEE66A10DFE552D2DE84DFF3CF40
:100D0000DEFFF4CFDDFFCCDED5DECADEB60EE66E4A
:100D10000B0EE66EBA0EE66EE66A78DEE552E55236
:100D2000E552E552BDDEBCDEE66AF6DEE552B8DE2F
:100D30006ADFF3CFEDF1F4CFEEF1B2DEBBDEB0DE71
:100D40009DEC35F0DECF14F0DDCF15F014C0F3FFCD
:100D500015C0F4FFF56E020EE15C02E2E16AE552B5
:100D6000E16EF550E552E7CFD9FF1200D9CFE6FF8B
:100D7000E1CFD9FF130EE126030EF36E080EF3CF79
:100D8000DBFF0101510E016F026B036B01013F0E8E
:100D9000006F4C0EE96E010EEA6E01014851EE5CE7
:100DA0004951EE584A51EE584B51EE5803E20001BA
:100DB000606B7BD20001605101E08CD010EC35F00B
:100DC0000001010E606F166A176A48C1DFFF49C152
:100DD000DBFF020E16C0DBFF030E17C0DBFFD9CF0F
:100DE000E9FFDACFEAFFEECF14F0EECF15F0EECF49
:100DF00016F0EFCF17F0040E1F0B07E0D890143653
:100E0000153616361736E806F9E14AC116F0146AA7
:100E1000156A176A040E14C0DBFF050E15C0DBFF50
:100E2000060E4AC1DBFF070E17C0DBFFD950040FC7
:100E3000E96EDACFEAFF0C0EE76ED890030EEB32C4
:100E4000020EEB32010EEB32EF32E706F6E107DF7E
:100E5000040EDBCF14F0050EDBCF15F0060EDBCF52
:100E600016F0070EDBCF17F0168A14C0E6FF15C088
:100E7000E6FF16C0E6FF17C0E6FFC8DDE552E55203
:100E8000E552E552900EE66E010EE66E880EE66EB5
:100E9000E66ABCDDE552E552E552E552D9CFE9FFFD
:100EA000DACFEAFFEECF14F0EECF15F0EECF16F06A
:100EB000EFCF17F0060E1412168A14C0E6FF15C005
:100EC000E6FF16C0E6FF17C0E6FFA0DDE552E552DB
:100ED000E552E552480EE96E010EEA6EEE50010150
:100EE0004C5D146EEE504D59156EEE504E59166E07
:100EF000EE504F59176E020E1426000E15221622C0
:100F00001722030E096E0A6A0B6A0C6A14C004F0F9
:100F100015C005F016C006F017C007F0BAEC3DF09A
:100F200000C014F001C015F002C016F003C017F0A5
:100F3000D8901732163215321432090E14C0DBFF66
:100F40000A0E15C0DBFF0B0E16C0DBFF0C0E17C020
:100F5000DBFF090EDBCF05F00A0EDBCF06F00B0E30
:100F6000DBCF07F00C0EDBCF08F00834000E0818BA
:100F700009E6D8803C0E0554000E0654000E0754B6
:100F8000000E08540CE23C0EF36E090EF3CFDBFFAB
:100F90000A0EDB6A0B0EDB6A0C0EDB6A02D0000164
:100FA000606B090EDBCF02F1030EF36E080EF3CF78
:100FB000DBFF080EDBCF14F0156A166A176A090EFC
:100FC000DBCF18F00A0EDBCF19F00B0EDBCF1AF0D7
:100FD0000C0EDBCF1BF0030E1826000E19221A226E
:100FE0001B220C0E185E000E195A1A5A1B5A1B505F
:100FF0001718E8AE02D0173408D01450185C1550FA
:10100000195816501A5817501B5801E244D1800E37
:10101000E66E030EE66EEB0EE66EE66AF7DCE55270
:10102000E552E552E5523CDD960EE66E1B0EE66E8D
:10103000BA0EE66EE66AEADCE552E552E552E552A2
:101040002FDD2EDDB60EE66EDB0EE66EBA0EE66E18
:10105000E66ADCDCE552E552E552E55221DD20DDB1
:10106000D60EE66EDB0EE66EBA0EE66EE66ACEDCF5
:10107000E552E552E552E55213DD12DD33DD10DDB8
:101080000FDD960EE66E1B0EE66EBA0EE66EE66A93
:10109000BDDCE552E552E552E55202DD01DDB60E5A
:1010A000E66EDB0EE66EBA0EE66EE66AAFDCE55281
:1010B000E552E552E552F4DCF3DCD60EE66EDB0ECB
:1010C000E66EBA0EE66EE66AA1DCE552E552E5523E
:1010D000E552E6DCE5DC06DDE3DCE2DCE66A1CDDAD
:1010E000E552DEDC90DD0D0EF3CFDBFF0E0EF4CF0C
:1010F000DBFFD6DC010EE66E0FDDE552D1DC83DDD1
:101100000F0EF3CFDBFF100EF4CFDBFFC9DC020EB6
:10111000E66E02DDE552C4DC76DD110EF3CFDBFFB7
:10112000120EF4CFDBFFBCDC080EDB50EA6A010FC5
:10113000E96E010EEA220D0EDBCFEFFF080EDB2A6F
:10114000DB50EA6A010FE96E010EEA220E0EDBCFD8
:10115000EFFF080EDB2ADB50EA6A010FE96E010E91
:10116000EA220F0EDBCFEFFF080EDB2ADB50EA6A24
:10117000010FE96E010EEA22110EDBCFEFFF080E20
:10118000DB2ADB50EA6A010FE96E010EEA22120E39
:10119000DBCFEFFF080EDB2ADB50EA6A010FE96EB6
:1011A000010EEA22100EDBCFEFFF080EDB2A030E42
:1011B000E66EB2DCE55274DC26DD0D0EF3CFDBFF0C
:1011C0000E0EF4CFDBFF6CDC040EE66EA5DCE55200
:1011D00067DC19DD0F0EF3CFDBFF100EF4CFDBFF62
:1011E0005FDC050EE66E98DCE5525ADC0CDD110E74
:1011F000F3CFDBFF120EF4CFDBFF52DC080EDB5027
:10120000EA6A010FE96E010EEA220D0EDBCFEFFF55
:10121000080EDB2ADB50EA6A010FE96E010EEA22B2
:101220000E0EDBCFEFFF080EDB2ADB50EA6A010F60
:10123000E96E010EEA220F0EDBCFEFFF080EDB2A6C
:10124000DB50EA6A010FE96E010EEA22110EDBCFD4
:10125000EFFF080EDB2ADB50EA6A010FE96E010E90
:10126000EA22120EDBCFEFFF080EDB2ADB50EA6A20
:10127000010FE96E010EEA22100EDBCFEFFF080E20
:10128000DB2A18DC0DDC080E01014827000E49237B
:101290004A234B238ED60101010E036F00016051DA
:1012A00004E10101036B9DEC35F0F56E130EE15C7A
:1012B00002E2E16AE552E16EF550E552E7CFD9FF6F
:1012C0001200D9CFE6FFE1CFD9FF0B0EE126030EC6
:1012D000DF6E0101026B036B01013F0E006F4C0ECC
:1012E000E96E010EEA6E01014851EE5C4951EE587B
:1012F0004A51EE584B51EE5803E20001616BA7D101
:101300000001615160E148C114F049C115F0166A4D
:10131000176A050E48C1DBFF060E49C1DBFF070E49
:1013200016C0DBFF080E17C0DBFFD950050FE96EB2
:10133000DACFEAFF040EE76ED890EF36010EEB36F7
:10134000020EEB36030EEB36E706F6E110EC35F055
:101350000001010E616F83DCF00EE66E070EE66E93
:10136000200EE66EE66A06EC05F0E552E552E5521F
:10137000E552900EE66E010EE66E880EE66EE66AA7
:1013800006EC05F0E552E552E552E552050EDBCFDD
:1013900014F0060EDBCF15F0070EDBCF16F0080EAB
:1013A000DBCF17F0060E1412168A14C0E6FF15C024
:1013B000E6FF16C0E6FF17C0E6FF06EC05F0E552B3
:1013C000E552E552E552480EE96E010EEA6EEE5026
:1013D00001014C5D146EEE504D59156EEE504E5994
:1013E000166EEE504F59176E142A000E1522162253
:1013F0001722010E14C0DBFF020E15C0DBFF030E27
:1014000016C0DBFF040E17C0DBFF010EDBCF05F0BB
:10141000020EDBCF06F0030EDBCF07F0040EDBCFAE
:1014200008F00834000E081809E6D880380E055474
:10143000000E0654000E0754000E08540CE2380E3D
:10144000F36E010EF3CFDBFF020EDB6A030EDB6AE5
:10145000040EDB6A02D00001616B010EDBCF02F1EA
:10146000030EDF6EDFCF14F0156A166A176A010EDD
:10147000DBCF18F0020EDBCF19F0030EDBCF1AF032
:10148000040EDBCF1BF0050E185E000E195A1A5A17
:101490001B5A1B501718E8AE02D0173408D014504E
:1014A000185C1550195816501A5817501B5801E25D
:1014B000C4D0800EE66E030EE66EEB0EE66EE66AB4
:1014C00006EC05F0E552E552E552E55272EC05F006
:1014D00050EC05F050EC05F072EC05F050EC05F026
:1014E00050EC05F072EC05F050EC05F050EC05F016
:1014F00072EC05F050EC05F050EC05F0E66A8CEC6F
:1015000005F0E55250EC05F003EC06F0090EF3CFC0
:10151000DBFF0A0EF4CFDBFFDF50EA6A010FE96E52
:10152000010EEA22090EDBCFEFFFDF2ADF50EA6A65
:10153000010FE96E010EEA220A0EDBCFEFFFDF2A70
:1015400050EC05F0010EE66E8CEC05F0E55250EC27
:1015500005F003EC06F0090EF3CFDBFF0A0EF4CF23
:10156000DBFFDF50EA6A010FE96E010EEA22090E85
:10157000DBCFEFFFDF2ADF50EA6A010FE96E010ED1
:10158000EA220A0EDBCFEFFFDF2A50EC05F0020E55
:10159000E66E8CEC05F0E55250EC05F003EC06F03D
:1015A000090EF3CFDBFF0A0EF4CFDBFFDF50EA6A50
:1015B000010FE96E010EEA22090EDBCFEFFFDF2AF1
:1015C000DF50EA6A010FE96E010EEA220A0EDBCF54
:1015D000EFFFDF2A50EC05F0030EE66E8CEC05F011
:1015E000E55250EC05F003EC06F0090EF3CFDBFFFB
:1015F0000A0EF4CFDBFFDF50EA6A010FE96E010E3D
:10160000EA22090EDBCFEFFFDF2ADF50EA6A010F83
:10161000E96E010EEA220A0EDBCFEFFFDF2A50EC63
:1016200005F05AEC05F050EC05F0080E01014827D2
:10163000000E49234A234B2315D70101010E036FE6
:101640000001615104E10101036B9DEC35F0F56E81
:101650000B0EE15C02E2E16AE552E16EF550E55203
:10166000E7CFD9FF1200B6EC06F00101530E016F6F
:101670001200D9CFE6FFE1CFD9FF030EE12610EC2F
:1016800035F02FEC06F0800EE66E0F0EE66E200EA3
:10169000E66EE66A06EC05F0E552E552E552E552E3
:1016A000900EE66E010EE66E880EE66EE66A06ECB9
:1016B00005F0E552E552E552E552E66A030EE66EA4
:1016C000EB0EE66EE66A06EC05F0E552E552E552F1
:1016D000E552800EE66E030EE66EEB0EE66EE66AEF
:1016E00006EC05F0E552E552E552E552020EDB6AE2
:1016F000DBCF14F0070EE76E1418E8AE02D0E73423
:1017000002D0E750145C61E2B60EE66E0B0EE66E98
:10171000BA0EE66EE66A06EC05F0E552E552E552D1
:10172000E55250EC05F050EC05F0E66A8CEC05F063
:10173000E55250EC05F003EC06F0F3CFDEFFF4CFFA
:10174000DDFF020EDB50040DF350030FE96EEA6A71
:10175000E9BEEA68010EE926010EEA22DFCFEFFFBB
:10176000020EDB50040DF350040FE96EEA6AE9BE85
:10177000EA68010EE926010EEA22010EDBCFEFFF37
:10178000020EDB50040DF350050FE96EEA6AE9BE64
:10179000EA68010EE926010EEA22EF6A020EDB502A
:1017A000040DF350060FE96EEA6AE9BEEA68010E1D
:1017B000E926010EEA22EF6A50EC05F05AEC05F03A
:1017C00050EC05F0020EDB2A93D79DEC35F0020EAB
:1017D000DB50040DF3CF02F10101036B01013F0E59
:1017E000006FF56E030EE15C02E2E16AE552E16E24
:1017F000F550E552E7CFD9FF1200FFEF0BF010ECE8
:1018000035F02FEC06F0510E0001725D5CE18A0E9E
:10181000E66EE66A240EE66EE66A06EC05F0E55230
:10182000E552E552E5520A0EE66E3B0EE66E880E74
:10183000E66EE66A06EC05F0E552E552E552E55241
:10184000800EE66E0F0EE66E200EE66EE66A06EC81
:1018500005F0E552E552E552E552900EE66E010EB6
:10186000E66E880EE66EE66A06EC05F0E552E55295
:10187000E552E552670EE66EE66A200EE66EE66A0F
:1018800006EC05F0E552E552E552E552E66A030E34
:10189000E66EEB0EE66EE66A06EC05F0E552E55202
:1018A000E552E552860EE66E1B0EE66EBB0EE66E48
:1018B000E66A06EC05F0E552E552E552E552ACEC7D
:1018C00005F0DDEC05F0FA0EE66E070EE66E240E6E
:1018D000E66EE66A06EC05F0E552E552E552E552A1
:1018E0000A0EE66E3B0EE66E880EE66EE66A06ECC3
:1018F00005F0E552E552E552E552ACEC05F0DDECC1
:1019000005F09DEF35F000018751E96EEA6AD89045
:10191000E936EA36500EE926010EEA22EECFE3F16F
:10192000EFCFE4F10101E56B0001872B8751E96EF0
:10193000EA6AD890E936EA36500EE926010EEA2224
:10194000EECFE6F1EFCFE7F10101E86B0001872B65
:101950008751E96EEA6AD890E936EA36500EE926F0
:10196000010EEA22EECFE9F1EFCFEAF10101EB6BD4
:101970000001872B8751E96EEA6AD890E936EA368A
:10198000500EE926010EEA22EECF14F014C015F035
:10199000146A166A14500101E6131550E713165025
:1019A000E8130001872B120050EC05F0B60EE66E2E
:1019B0000B0EE66EBB0EE66EE66A06EC05F0E5522F
:1019C000E552E552E55250EC05F050EC05F0B60E4C
:1019D000E66EDB0EE66EBB0EE66EE66A06EC05F022
:1019E000E552E552E552E55250EC05F050EC05F0B9
:1019F000B60EE66EEB0EE66EBB0EE66EE66A06EC23
:101A000005F0E552E552E552E55250EC05F050EC98
:101A100005F07FEC05F050EF05F0D9CFE6FFE1CF00
:101A2000D9FF0A0EE126400EDF6E0101600E016F44
:101A30004C0EE96E010EEA6E01014851EE5C49510F
:101A4000EE584A51EE584B51EE5803E20001626BDA
:101A50007BD20101030EEC6F0001625168E1010EBF
:101A6000626F0001876B400E875D0EE28751E96E61
:101A7000EA6AD890E936EA36500EE926010EEA22E3
:101A8000EE6AED6A872BEFD7876B10EC35F0DFCF6E
:101A900014F0156A166A176A14AE03D01568166832
:101AA000176848C104F049C105F04AC106F04BC1AE
:101AB00007F014C009F015C00AF016C00BF017C0EB
:101AC0000CF01FEC3EF000500101485D0101D26FA7
:101AD0000150010149590101D36F025001014A59D6
:101AE0000101D46F035001014B590101D56FDFCFC4
:101AF00014F0156A166A176A14AE03D015681668D2
:101B0000176848C104F049C105F04AC106F04BC14D
:101B100007F014C009F015C00AF016C00BF017C08A
:101B20000CF01FEC3EF000C087F02FEC06F0D20E58
:101B3000E96E010EEA6EEE5001014C5DEE504D591A
:101B4000EE504E59EE504F5901E2E4D1030E01011F
:101B500002250101EC5D01E3DDD1DF500001875D6D
:101B600037E2030E010102250101EC5D31E2EC29AF
:101B7000E96EEA6AE9BEEA68010EE926010EEA2288
:101B8000EF50176A176E166AECC1E9FFEA6AE9BE00
:101B9000EA68010EE926010EEA22EF500001162440
:101BA000146E000E1720156E00018751E96EEA6A67
:101BB000D890E936EA36500EE926010EEA2214C022
:101BC000EEFF15C0EDFF872B020E0101EC27C5D7F4
:101BD000DF500001875D03E001010351A8E11A0E07
:101BE000E66EE66A240EE66EE66A06EC05F0E5525D
:101BF000E552E552E5520A0EE66E3B0EE66E880EA1
:101C0000E66EE66A06EC05F0E552E552E552E5526D
:101C10000001876B010EDB6ADBCF14F0070EE76E65
:101C20001418E8AE02D0143403D0E750D88014540E
:101C300001E265D1166A176A020ED2C1DBFF030EFC
:101C4000D3C1DBFF040E16C0DBFF050E17C0DBFFA0
:101C5000D950020FE96EDACFEAFF040EE76ED89092
:101C6000EF36010EEB36020EEB36030EEB36E706CF
:101C7000F6E1146A156A176A060E14C0DBFF070E38
:101C800015C0DBFF080ED4C1DBFF090E17C0DBFF58
:101C9000D950060FE96EDACFEAFF0C0EE76ED89046
:101CA000030EEB32020EEB32010EEB32EF32E7069F
:101CB000F6E1060EDBCF14F0070EDBCF15F0080EB1
:101CC000DBCF16F0090EDBCF17F0168A14C0E6FF43
:101CD00015C0E6FF16C0E6FF17C0E6FF06EC05F0EC
:101CE000E552E552E552E552900EE66E010EE66EC3
:101CF000880EE66EE66A06EC05F0E552E552E5521E
:101D0000E552020EDBCF14F0030EDBCF15F0040E0C
:101D1000DBCF16F0050EDBCF17F0070E1412168A74
:101D200014C0E6FF15C0E6FF16C0E6FF17C0E6FFC9
:101D300006EC05F0E552E552E552E55250EC05F0AF
:101D400050EC05F0E0DD040E1F0BE3C114F0E4C11C
:101D500015F0E5C116F006E0D890143615361636A3
:101D6000E806FAE1168A176A14C0E6FF15C0E6FF16
:101D700016C0E6FF17C0E6FF06EC05F0E552E55297
:101D8000E552E552040E1F0BE6C114F0E7C115F051
:101D9000E8C116F006E0D890143615361636E80677
:101DA000FAE11480168A176A14C0E6FF15C0E6FF30
:101DB00016C0E6FF17C0E6FF06EC05F0E552E55257
:101DC000E552E552040E1F0BE9C114F0EAC115F00B
:101DD000EBC116F006E0D890143615361636E80634
:101DE000FAE11482168A176A14C0E6FF15C0E6FFEE
:101DF00016C0E6FF17C0E6FF06EC05F0E552E55217
:101E0000E552E55280DD040E1F0BE3C114F0E4C17E
:101E100015F0E5C116F006E0D890143615361636E2
:101E2000E806FAE1030E1412168A176A14C0E6FFD8
:101E300015C0E6FF16C0E6FF17C0E6FF06EC05F08A
:101E4000E552E552E552E552040E1F0BE6C114F0CF
:101E5000E7C115F0E8C116F006E0D8901436153643
:101E60001636E806FAE11484168A176A14C0E6FFEB
:101E700015C0E6FF16C0E6FF17C0E6FF06EC05F04A
:101E8000E552E552E552E552040E1F0BE9C114F08C
:101E9000EAC115F0EBC116F006E0D89014361536FD
:101EA0001636E806FAE1050E1412168A176A14C0EF
:101EB000E6FF15C0E6FF16C0E6FF17C0E6FF06EC1A
:101EC00005F0E552E552E552E552E66A030EE66E8C
:101ED000EB0EE66EE66A06EC05F0E552E552E552D9
:101EE000E55262DD61DD50EC05F0080E0101D227FC
:101EF000000ED323D423D523010EDB2A8DD6ACECE0
:101F000005F0DDEC05F05AEC05F050EC05F00001B1
:101F1000876B0DD6D20EE96E010EEA6EEE5001010E
:101F20004C5DEE504D59EE504E59EE504F5903E373
:101F30000101035102E10001626B0001625102E103
:101F40009DEC35F00101026BF56E0A0EE15C02E2D8
:101F5000E16AE552E16EF550E552E7CFD9FF120094
:101F6000D9CFE6FFE1CFD9FF0C0EE126100EDF6ED0
:101F70004C0EE96E010EEA6E01014851EE5C4951CA
:101F8000EE584A51EE584B51EE5803E20001636B94
:101F9000A2D20101030EEC6F0001635124E1010E96
:101FA000636F0001876B400E875D0EE28751E96E1B
:101FB000EA6AD890E936EA36500EE926010EEA229E
:101FC000EE6AED6A872BEFD7876B10EC35F048C1CE
:101FD000DDF149C1DEF14AC1DFF14BC1E0F10001A1
:101FE000876B2FEC06F0DD0EE96E010EEA6EEE5007
:101FF00001014C5DEE504D59EE504E59EE504F5987
:1020000001E24FD2030E010102250101EC5D01E363
:1020100048D2DF500001875D4CE2030E010102252A
:102020000101EC5D46E2EC29E96EEA6AE9BEEA6884
:10203000010EE926010EEA22EF50E66E00018751FB
:10204000E96EEA6AD890E936EA36500EE926010EC2
:10205000EA22E552E750EE6EED6A8751E96EEA6AD0
:10206000D890E936EA36500EE926010EEA22EE5003
:10207000ED6EEF6AECC1E9FFEA6AE9BEEA68010EBB
:10208000E926010EEA22EF50146E156A8751E96EB7
:10209000EA6AD890E936EA36500EE926010EEA22BD
:1020A0001450EE121550ED12872B040E0101EC278F
:1020B000B0D7DF500001875D03E00101035193E1D8
:1020C0005A0EE66EE66A240EE66EE66A06EC05F047
:1020D000E552E552E552E5520A0EE66E3B0EE66E1B
:1020E000880EE66EE66A06EC05F0E552E552E5522A
:1020F000E552060EDB6A070EDB6A010EDB6ADBCFF8
:1021000014F0030EE76E1418E8AE02D0143403D0B6
:10211000E750D880145401E2B9D1020EDDC1DBFFD3
:10212000030EDEC1DBFF040EDB6A050EDB6AD9504D
:10213000020FE96EDACFEAFF040EE76ED890EF36B1
:10214000010EEB36020EEB36030EEB36E706F6E138
:10215000F00EE66E070EE66E200EE66EE66A06EC00
:1021600005F0E552E552E552E552900EE66E010E9D
:10217000E66E880EE66EE66A06EC05F0E552E5527C
:10218000E552E552020EDBCF14F0030EDBCF15F063
:10219000040EDBCF16F0050EDBCF17F0070E14127E
:1021A000168A14C0E6FF15C0E6FF16C0E6FF17C08A
:1021B000E6FF06EC05F0E552E552E552E552060E63
:1021C000DBCFE9FF070EDBCFEAFF010ED890E9363F
:1021D000EA36E806FBE1500EE926010EEA22EECFD0
:1021E00014F0EFCF15F0080E14C0DBFF090E15C078
:1021F000DBFF0A0EDB6A0B0EDB6A040E186ED95089
:10220000080FE96EDACFEAFF18501F0BEECF14F07B
:10221000EECF15F0EECF16F0EECF17F007E0D89026
:102220001436153616361736E806F9E1168A14C044
:10223000E6FF15C0E6FF16C0E6FF17C0E6FF06EC96
:1022400005F0E552E552E552E552010EE76E060E45
:10225000DBCFE9FF070EDBCFEAFFE750E926000EF0
:10226000EA22010ED890E936EA36E806FBE1500E84
:10227000E926010EEA22EECF14F0EFCF15F0080E9A
:1022800014C0DBFF090E15C0DBFF0A0EDB6A0B0E64
:10229000DB6A040E186ED950080FE96EDACFEAFF38
:1022A00018501F0BEECF14F0EECF15F0EECF16F056
:1022B000EECF17F007E0D8901436153616361736DD
:1022C000E806F9E11480168A14C0E6FF15C0E6FF9F
:1022D00016C0E6FF17C0E6FF06EC05F0E552E55232
:1022E000E552E552020EE76E060EDBCFE9FF070E60
:1022F000DBCFEAFFE750E926000EEA22010ED89074
:10230000E936EA36E806FBE1500EE926010EEA223C
:10231000EECF14F0EFCF15F0080E14C0DBFF090E5E
:1023200015C0DBFF0A0EDB6A0B0EDB6A040E186EAB
:10233000D950080FE96EDACFEAFF18501F0BEECF25
:1023400014F0EECF15F0EECF16F0EECF17F007E059
:10235000D8901436153616361736E806F9E1148289
:10236000168A14C0E6FF15C0E6FF16C0E6FF17C0C8
:10237000E6FF06EC05F0E552E552E552E552030EA4
:10238000E76E060EDBCFE9FF070EDBCFEAFFE75073
:10239000E926000EEA22010ED890E936EA36E80670
:1023A000FBE1500EE926010EEA22EECF14F0EFCF4A
:1023B00015F0080E14C0DBFF090E15C0DBFF0A0E76
:1023C000DB6A0B0EDB6A040E186ED950080FE96E3B
:1023D000DACFEAFF18501F0BEECF14F0EECF15F056
:1023E000EECF16F0EECF17F007E0D8901436153682
:1023F00016361736E806F9E1030E1412168A14C0D1
:10240000E6FF15C0E6FF16C0E6FF17C0E6FF06ECC4
:1024100005F0E552E552E552E552D950060FE96E56
:10242000DACFEAFF040EEE26000EED22E66A030E76
:10243000E66EEB0EE66EE66A06EC05F0E552E55256
:10244000E552E55250EC05F07FEC05F050EC05F05C
:1024500050EC05F07FEC05F050EC05F050EC05F089
:102460007FEC05F050EC05F050EC05F07FEC05F04A
:1024700050EC05F050EC05F0080E0101DD27000ED0
:10248000DE23DF23E023010EDB2A39D6ACEC05F096
:10249000DDEC05F05AEC05F050EC05F00001876B1F
:1024A000A2D5DD0EE96E010EEA6EEE5001014C5D23
:1024B000EE504D59EE504E59EE504F5903E3010185
:1024C000035102E10001636B0001635102E19DECE5
:1024D00035F00101026BF56E0C0EE15C02E2E16A7F
:1024E000E552E16EF550E552E7CFD9FF120010EC4E
:1024F00035F02FEC06F02A0EE66E070EE66E240E7F
:10250000E66EE66A06EC05F0E552E552E552E55264
:102510000A0EE66E3B0EE66E880EE66EE66A06EC86
:1025200005F0E552E552E552E552ACEC05F0DDEC84
:1025300005F09DEC35F00DEC0DF00101620E016F20
:102540001200D9CFE6FFE1CFD9FF050EE12610EC4E
:1025500035F02FEC06F0070EE66EE66A200EE66E0A
:10256000E66A06EC05F0E552E552E552E552DF6A0F
:10257000DFCF14F0070EE76E1418E8AE02D0E73490
:1025800002D0E750145C01E3FDD08A0EE66EE66AE5
:10259000240EE66EE66A06EC05F0E552E552E552D9
:1025A000E5520A0EE66E3B0EE66E880EE66EE66AB1
:1025B00006EC05F0E552E552E552E552800EE66E76
:1025C0000F0EE66E200EE66EE66A06EC05F0E552AA
:1025D000E552E552E552900EE66E010EE66E880E6B
:1025E000E66EE66A06EC05F0E552E552E552E55284
:1025F000040EDF02F350040FE96EEA6AE9BEEA68EE
:10260000010EE926010EEA22EFCF14F0010E14C0EC
:10261000DBFF020EDB6A030EDB6A040EDB6AD950B5
:10262000010FE96EDACFEAFFEF50EE6AEFCFF4FF69
:10263000EE6EEF50F4CFEEFFEF6E040EDF02F350BC
:10264000030FE96EEA6AE9BEEA68010EE926010EA7
:10265000EA22EFCF14F0156A166A176AD950010FF3
:10266000E96EDACFEAFFEE501412EE501512EE507A
:102670001612EE501712010E14C0DBFF020E15C029
:10268000DBFF030E16C0DBFF040E17C0DBFFD950C3
:10269000010FE96EDACFEAFF040EE76ED890EF364D
:1026A000010EEB36020EEB36030EEB36E706F6E1D3
:1026B000010EDBCF14F0020EDBCF15F0030EDBCFE3
:1026C00016F0040EDBCF17F0168A14C0E6FF15C013
:1026D000E6FF16C0E6FF17C0E6FF06EC05F0E55280
:1026E000E552E552E552E66A030EE66EEB0EE66E43
:1026F000E66A06EC05F0E552E552E552E552960E23
:10270000E66E1B0EE66EBB0EE66EE66A06EC05F0A4
:10271000E552E552E552E55250EC05F050EC05F07B
:10272000ACEC05F0610EE66EE70EE66EA80EE66E06
:10273000E66A06EC05F0E552E552E552E55250EC4A
:1027400005F050EC05F07FC0E6FF80C0E6FF83ECAB
:1027500037F0E552E552610EE66EE70EE66EA90E21
:10276000E66EE66A06EC05F0E552E552E552E55202
:1027700050EC05F050EC05F05AEC05F050EC05F08B
:10278000DF2AF6D69DEC35F0F56E050EE15C02E22F
:10279000E16AE552E16EF550E552E7CFD9FF12004C
:1027A000D9CFE6FFE1CFD9FFFE0EDBCFE6FF060E65
:1027B000E66E64EC33F0E552E552010EE66E9CECF9
:1027C0003EF0E552E552E7CFD9FF1200D9CFE6FF40
:1027D000E1CFD9FF020EE126FD0EDBCFDEFFDBCF1E
:1027E000DDFFE66A010EE66E64EC33F0E552E55279
:1027F000DFCFE6FF080EE66E64EC33F0E552E552FB
:10280000010EDBCFE6FF060EE66E64EC33F0E55218
:10281000E552E66A010EE66E64EC33F0E552E552ED
:10282000010EE66E9CEC3EF0E552F56E020EE15CA8
:1028300002E2E16AE552E16EF550E552E7CFD9FFD9
:102840001200D9CFE6FFE1CFD9FF020EE12646EC18
:1028500033F0010EE66E64EC34F0E552080EE66EDD
:1028600064EC34F0E552DF6E060EE66E64EC34F094
:10287000E552E76E010EE7CFDBFFE66E64EC34F065
:10288000E55255EC33F0010EE66E9CEC3EF0E5525D
:10289000DECF14F0DDCF15F014C0F3FF15C0F4FF48
:1028A000F56E020EE15C02E2E16AE552E16EF5507E
:1028B000E552E7CFD9FF1200D9CFE6FFE1CFD9FF2C
:1028C000020EE12610EC35F0E66A6ADFE552000EF2
:1028D000E66EE66A7BDFE552E552060EE66E60DFE5
:1028E000E552060EE66E5CDFE552060EE66E58DF38
:1028F000E552060EE66E54DFE552060EE66E50DF38
:10290000E552060EE66E4CDFE552040EE66E48DF39
:10291000E55297DFF3CFDEFFF4CFDDFF9DEC35F01E
:10292000DECF14F0DDCF15F014C0F3FF15C0F4FFB7
:10293000F56E020EE15C02E2E16AE552E16EF550ED
:10294000E552E7CFD9FF1200D9CFE6FFE1CFD9FF9B
:102950000B0EE126030EF36E060EF3CFDBFF010133
:10296000026B036B01013F0E006F4C0EE96E010E0E
:10297000EA6E01014851EE5C4951EE584A51EE5859
:102980004B51EE5803E20001606BFED00001605134
:1029900027E110EC35F00001010E606FDE6ADE6A9F
:1029A000DE6ADD6ADD52DD52D9CFE9FFDACFEAFF18
:1029B00001014851EE5C4951EE584A51EE584B51D5
:1029C000EE580EE2060EE66EEBDEE552D9CFE9FFD9
:1029D000DACFEAFFEE2A000EEE22EE22EE22E4D754
:1029E000480EE96E010EEA6EEE5001014C5D146E68
:1029F000EE504D59156EEE504E59166EEE504F5921
:102A0000176E142A000E152216221722070E14C064
:102A1000DBFF080E15C0DBFF090E16C0DBFF0A0E38
:102A200017C0DBFF070EDBCF05F0080EDBCF06F08B
:102A3000090EDBCF07F00A0EDBCF08F00834000EDA
:102A4000081809E6D8801E0E0554000E0654000E24
:102A50000754000E08540CE21E0EF36E070EF3CF5F
:102A6000DBFF080EDB6A090EDB6A0A0EDB6A02D0A6
:102A70000001606B070EDBCF04F0080EDBCF05F022
:102A8000090EDBCF06F00A0EDBCF07F0020E096E4F
:102A90000A6A0B6A0C6ABAEC3DF000C002F148C148
:102AA000DFFF010E49C1DBFF020E4AC1DBFF030E4F
:102AB0004BC1DBFFD950070FE96EDACFEAFF010106
:102AC0004851EE24146E4951EE20156E4A51EE2005
:102AD000166E4B51EE20176ED9CFE9FFDACFEAFF21
:102AE0001450EE5C1550EE581650EE581750EE5834
:102AF0002FE2040EE66E54DEE552A3DE040EF3CFA1
:102B0000DBFF050EF4CFDBFF060EDB50EA6A010F98
:102B1000E96E010EEA22040EDBCFEFFF060EDB2A80
:102B2000DB50EA6A010FE96E010EEA22050EDBCFE7
:102B3000EFFF060EDB2AE66E33DEE552D9CFE9FF62
:102B4000DACFEAFFEE2A000EEE22EE22EE22B2D714
:102B50000101010E036FD950070FE96EDACFEAFFCA
:102B600001014851EE24486F4951EE20496F4A5106
:102B7000EE204A6F4B51EE204B6F0001605104E193
:102B80000101036B9DEC35F0F56E0B0EE15C02E28A
:102B9000E16AE552E16EF550E552E7CFD9FF120048
:102BA000D9CFE6FFE1CFD9FF0B0EE126030EF36E7E
:102BB000060EF3CFDBFF0101520E016F026B036BB8
:102BC00001013F0E006F4C0EE96E010EEA6E01012D
:102BD0004851EE5C4951EE584A51EE584B51EE586F
:102BE00003E20001616BE1D00001615127E110ECCB
:102BF00035F00001010E616FDE6ADE6ADE6ADD6AB1
:102C0000DD52DD52D9CFE9FFDACFEAFF01014851A9
:102C1000EE5C4951EE584A51EE584B51EE580EE2D7
:102C2000060EE66EBDDDE552D9CFE9FFDACFEAFF49
:102C3000EE2A000EEE22EE22EE22E4D7480EE96ED6
:102C4000010EEA6EEE5001014C5D146EEE504D59CE
:102C5000156EEE504E59166EEE504F59176E142ADF
:102C6000000E152216221722070E14C0DBFF080ED5
:102C700015C0DBFF090E16C0DBFF0A0E17C0DBFF15
:102C8000070EDBCF05F0080EDBCF06F0090EDBCF19
:102C900007F00A0EDBCF08F00834000E081809E62A
:102CA000D8803C0E0554000E0654000E0754000E4A
:102CB00008540CE23C0EF36E070EF3CFDBFF080E58
:102CC000DB6A090EDB6A0A0EDB6A02D00001616B67
:102CD000070EDBCF02F148C1DFFF010E49C1DBFF68
:102CE000020E4AC1DBFF030E4BC1DBFFD950070FB9
:102CF000E96EDACFEAFF01014851EE24146E495122
:102D0000EE20156E4A51EE20166E4B51EE20176ED6
:102D1000D9CFE9FFDACFEAFF1450EE5C1550EE5838
:102D20001650EE581750EE5824E2050EE66E38DDC8
:102D3000E55287DD040EF3CFDBFF050EF4CFDBFF9A
:102D4000060EDB50EA6A010FE96E010EEA22040E5C
:102D5000DBCFEFFF060EDB2AE66E22DDE552D9CF90
:102D6000E9FFDACFEAFFEE2A000EEE22EE22EE2293
:102D7000BDD70101010E036FD950070FE96EDACFFD
:102D8000EAFF01014851EE24486F4951EE20496F96
:102D90004A51EE204A6F4B51EE204B6F00016151BA
:102DA00004E10101036B9DEC35F0F56E0B0EE15C67
:102DB00002E2E16AE552E16EF550E552E7CFD9FF54
:102DC0001200D9CFE6FFE1CFD9FF070EE126030EAF
:102DD000F36E040EF3CFDBFF0101080E026F036BED
:102DE00001013F0E006F10EC35F0E66AD9DCE552C8
:102DF000000EE66EE66AEADCE552E552DE6A200E77
:102E0000DE6EDE6ADD6ADD52DD52D9CFE9FFDACF50
:102E1000EAFF01014851EE5C4951EE584A51EE5823
:102E20004B51EE580EE2060EE66EBADCE552D9CFF3
:102E3000E9FFDACFEAFFEE2A000EEE22EE22EE22C2
:102E4000E4D748C1DFFF010E49C1DBFF020E4AC1D2
:102E5000DBFF030E4BC1DBFFD9CFE9FFDACFEAFF7F
:102E6000EE5001014C5DEE504D59EE504E59EE5072
:102E70004F5930E3040EE66E93DCE552E2DC050EBA
:102E8000F3CFDBFF060EF4CFDBFF040EDB50EA6A64
:102E9000010FE96E010EEA22050EDBCFEFFF040EF3
:102EA000DB2ADB50EA6A010FE96E010EEA22060E08
:102EB000DBCFEFFF040EDB2A060EE66E71DCE55277
:102EC000D9CFE9FFDACFEAFFEE2A000EEE22EE229A
:102ED000EE22C2D7040EDB50FD0F0101026F9DEC04
:102EE00035F0F56E070EE15C02E2E16AE552E16E53
:102EF000F550E552E7CFD9FF1200E1EF16F010ECE4
:102F000035F0000171512E0A01E1D7D0030A01E129
:102F1000AFD0010A01E17DD0070A67E0010A01E1B3
:102F2000A7D0030A35E0010A01E02DD1E66A38DCBA
:102F3000E552000EE66EE66A49DCE552E552020E05
:102F4000E66E2EDCE552E6683F0EE66E3FDCE552AB
:102F5000E552090EE66E24DCE552080EE66E20DC32
:102F6000E552000183517925146E84517A21156E42
:102F700014C0E6FFE66E83EC37F0E552E552020E30
:102F8000E66E0EDCE552E6683F0EE66E1FDC16D0FC
:102F9000090EE66ED0EC13F0E552080EE66ED0ECAA
:102FA00013F0E552000183517925146E84517A2182
:102FB000156E14C0E6FFE66E83EC37F0E552E5527D
:102FC0000B0EE66ED0EC13F0E552080EE66ED0EC78
:102FD00013F0E552000183517925146E84517A2152
:102FE000156E14C0E6FFE66E64D0E66AD0EC13F00E
:102FF000E552000EE66EE66AE6EC13F0E552E552A5
:10300000020EE66ED0EC13F0E552E6683F0EE66E77
:1030100036D0E66AD0EC13F0E552000EE66EE66AB2
:10302000E6EC13F0E552E552090EE66ED0EC13F033
:10303000E552080EE66ED0EC13F0E552030EE66E94
:10304000E66AC1EC37F0E552E552110EE66ED0ECBF
:1030500013F0E5520B0EE66ED0EC13F0E552030EC2
:10306000E66EE66AC1EC37F0E552E552110E87D004
:10307000E66AD0EC13F0E552000EE66EE66AE6EC86
:1030800013F0E552E552090EE66ED0EC13F0E5526E
:1030900083C0E6FF84C0E6FF83EC37F0E552E552DB
:1030A0000B0EE66ED0EC13F0E55283C0E6FF84C051
:1030B000E6FF83EC37F0E55265D0020EE66ED0EC09
:1030C00013F0E552E6683F0EE66EE6EC13F0E552CB
:1030D000E552010EE66ED0EC13F0E552070EE66EF7
:1030E000D0EC13F0E552080EE66ED0EC13F0E5528A
:1030F000000183517925146E84517A21156E14C014
:10310000E6FFE66E83EC37F0E552E552010EE66E1F
:10311000D0EC13F0E552070EE66ED0EC13F0E5525A
:10312000030EE66ED0EC13F0E552E6683F0EE66E55
:10313000E6EC13F0E552E552010EE66ED0EC13F02A
:10314000E552070EE66ED0EC13F0E552080EE66E7F
:10315000D0EC13F0E552000183517925146E8451AF
:103160007A21156E14C0E6FFE66E83EC37F0E55267
:10317000E552010EE66ED0EC13F0E552070EE66E56
:10318000D0EC13F0E5529DEF35F0060EE66ED0EC74
:1031900013F0E552060EE66ED0EC13F0E552060E83
:1031A000E66ED0EC13F0E552060EE66ED0EC13F0AE
:1031B000E552060EE66ED0EC13F0E552060EE66E12
:1031C000D0EC13F0E552060EE66ED0EC13F0E552AB
:1031D000120010EC35F0000172512E0A01E179D095
:1031E000030A70E0010A3DE0070A20E0010A0FE04F
:1031F000030A0BE0010A01E0A6D0E66AD0EC13F066
:10320000E552000EE66EE66A6BD079DE9CD0E66A87
:10321000D0EC13F0E552F00EE66E3F0EE66EE6ECF3
:1032200013F0E552E552B1DF1F0E41D0E66AD0EC53
:1032300013F0E552F00EE66E3F0EE66EE6EC13F08C
:10324000E552E552A2DF020EE66ED0EC13F0E55235
:10325000E6683F0EE66EE6EC13F0E552E552090E25
:1032600026D0090EE66ED0EC13F0E55283C0E6FFDF
:1032700084C0E6FF83EC37F0E552E552E66AD0EC15
:1032800013F0E552000EE66EE66AE6EC13F0E55246
:10329000E552090EE66ED0EC13F0E55283C0E6FF6E
:1032A00084C0E6FF83EC37F0E552E5520B0EE66E84
:1032B000D0EC13F0E55283C0E6FF84C0E6FF83EC58
:1032C00037F03FD0E66AD0EC13F0E552F00EE66E30
:1032D00005D0E66AD0EC13F0E552E6683F0EE66EE4
:1032E000E6EC13F0E552E55250DF010EE66ED0EC4D
:1032F00013F0E552070EE66ED0EC13F0E552080E1F
:10330000E66ED0EC13F0E552000183517925146E7E
:1033100084517A21156E14C0E6FFE66E83EC37F017
:10332000E552E552010EE66ED0EC13F0E552070EC1
:10333000E66ED0EC13F0E552320EE66EE66AC1ECB2
:1033400037F0E552E5529DEF35F0D9CFE6FFE1CFFA
:10335000D9FF030EE12674C0DFFF4C0EE96E010EAB
:10336000EA6E01014851EE5C4951EE584A51EE585F
:103370004B51EE5803E20001626B9FD1030EF36ED6
:10338000020EF3CFDBFF0001625101E07BD00001B0
:10339000876B200E875D0EE28751E96EEA6AD8904E
:1033A000E936EA36500EE926010EEA22EE6AED6AA7
:1033B000872BEFD7876B10EC35F00001010E626FA1
:1033C0000101D26BD36BD46BD56BDFCF18F0196AC8
:1033D0001A6A1B6A18AE03D019681A681B6848C1BC
:1033E00004F049C105F04AC106F04BC107F018C00E
:1033F00009F019C00AF01AC00BF01BC00CF01FEC4A
:103400003EF000500101485D146E01504959156E9F
:1034100002504A59166E03504B59176E1450010151
:10342000D25D1550D3591650D4591750D5590CE2C6
:10343000060EE66ED0EC13F0E5520101D22B000E21
:10344000D323D423D523C1D7DFCF14F0156A166A4E
:10345000176A14AE03D015681668176848C104F0DF
:1034600049C105F04AC106F04BC107F014C009F08C
:1034700015C00AF016C00BF017C00CF01FEC3EF0A0
:1034800000C087F0D20EE96E010EEA6EEE50010127
:103490004C5DEE504D59EE504E59EE504F5901E2F1
:1034A000F4D0030E01010225F36E020EDBCFF4FF10
:1034B000F350F45C01E3E9D0DF500001875D43E2A3
:1034C000030E01010225F36E020EDBCFF4FFF35071
:1034D000F45C39E2020EDB28E96EEA6AE9BEEA68CA
:1034E000010EE926010EEA22EF50176A176E166ADE
:1034F000020EDBCFE9FFEA6AE9BEEA68010EE926BF
:10350000010EEA22EF5000011624146E000E17205F
:10351000156E00018751E96EEA6AD890E936EA36FD
:10352000500EE926010EEA2214C0EEFF15C0EDFF91
:10353000872B020E146EDBCFE7FFE850E726020E62
:10354000E7CFDBFFB9D7DF500001875D03E0010162
:10355000035198E10001876BDF50875D24E2020E82
:10356000E66ED0EC13F0E55200018751E96EEA6A8D
:10357000D890E936EA36500EE926010EEA22EECF5F
:10358000E6FFEFCFE6FFE6EC13F0E552E552DF048D
:103590000001875D05E2060EE66ED0EC13F0E55201
:1035A0000001872BD9D700016D512E0A3BE0030A99
:1035B0002CE0010A1BE0070A17E0010A06E0030AF3
:1035C00004E0010A41E1180E21D0180EE66ED0EC9D
:1035D00013F0E55279C0E6FF7AC0E6FF83EC37F0DE
:1035E000E552E552170E2CD0080E1DD0180EE66ECF
:1035F000D0EC13F0E55279C0E6FF7AC0E6FF83EC29
:1036000037F0E552E5520A0E1BD0080EE66ED0ECFC
:1036100013F0E55279C0E6FF7AC0E6FF83EC37F09D
:10362000E55211D0180EE66ED0EC13F0E55279C0D9
:10363000E6FF7AC0E6FF83EC37F0E552E5520E0E66
:10364000E66ED0EC13F0E552060EE66ED0EC13F009
:10365000E552DFCF14F0156A166A176A14AE03D06C
:1036600015681668176814500101D2271550D32326
:103670001650D4231750D5230001876B000188050D
:1036800001E000D7F7EC35F0FDD6D20EE96E010E61
:10369000EA6EEE5001014C5DEE504D59EE504E5920
:1036A000EE504F5903E30101035102E10001626B47
:1036B0000001625102E19DEC35F0F56E030EE15C14
:1036C00002E2E16AE552E16EF550E552E7CFD9FF3B
:1036D0001200D9CFE6FFE1CFD9FF030EE12675C076
:1036E000DFFF4C0EE96E010EEA6E01014851EE5CFF
:1036F0004951EE584A51EE584B51EE5803E2000141
:10370000636B63D1030EF36E020EF3CFDBFF000198
:10371000635101E076D00001876B200E875D09E2DE
:103720008751EA6A500FE96E010EEA22EF6A872B91
:10373000F4D7876B10EC35F00001010E636F0101C7
:10374000D66BD76BD86BD96BDFCF18F0196A1A6AB2
:103750001B6A18AE03D019681A681B6848C104F0C8
:1037600049C105F04AC106F04BC107F018C009F085
:1037700019C00AF01AC00BF01BC00CF01FEC3EF091
:1037800000500101485D146E01504959156E0250F8
:103790004A59166E03504B59176E14500101D65DED
:1037A0001550D7591650D8591750D9590CE2060E52
:1037B000E66ED0EC13F0E5520101D62B000ED723B4
:1037C000D823D923C1D7DFCF14F0156A166A176A38
:1037D00014AE03D015681668176848C104F049C1D3
:1037E00005F04AC106F04BC107F014C009F015C03E
:1037F0000AF016C00BF017C00CF01FEC3EF000C032
:1038000087F0D60EE96E010EEA6EEE5001014C5DB6
:10381000EE504D59EE504E59EE504F5901E2BDD089
:10382000030E01010225F36E020EDBCFF4FFF3500D
:10383000F45C01E3B2D0DF500001875D3DE2030E8E
:1038400001010225F36E020EDBCFF4FFF350F45CAE
:1038500033E2020EDB28E96EEA6AE9BEEA68010E8D
:10386000E926010EEA22EF50176A176E166A020E59
:10387000DBCFE9FFEA6AE9BEEA68010EE926010E3C
:10388000EA22EF5000011624146E000E1720156E68
:1038900000018751EA6A500FE96E010EEA2214C056
:1038A000EFFF872B020E146EDBCFE7FFE850E72611
:1038B000020EE7CFDBFFBFD7DF500001875D03E0DB
:1038C000010103519EE10001876BDF50875D1FE21C
:1038D000030EE66ED0EC13F0E55200018751EA6A60
:1038E000500FE96E010EEA22EF50E66EE66AE6EC52
:1038F00013F0E552E552DF040001875D05E2060E94
:10390000E66ED0EC13F0E5520001872BDED7000104
:103910006E51290A0FE0010A1FE1080EE66ED0EC95
:1039200013F0E5527DC0E6FF7EC0E6FF83EC37F082
:10393000E55211D0180EE66ED0EC13F0E55279C0C6
:10394000E6FF7AC0E6FF83EC37F0E552E552170E4A
:10395000E66ED0EC13F0E552060EE66ED0EC13F0F6
:10396000E552DFCF14F0156A166A176A14AE03D059
:1039700015681668176814500101D6271550D7230B
:103980001650D8231750D9230001876B00018805F2
:1039900001E037D7F7EC35F034D7D60EE96E010EDB
:1039A000EA6EEE5001014C5DEE504D59EE504E590D
:1039B000EE504F5903E30101035102E10001636B33
:1039C0000001635102E19DEC35F0F56E030EE15C00
:1039D00002E2E16AE552E16EF550E552E7CFD9FF28
:1039E0001200D9CFE6FFE1CFD9FF060EE126030E84
:1039F000F36EDB6E10EC35F0E66AD0EC13F0E552B6
:103A0000000EE66EE66AE6EC13F0E552E552DE6A79
:103A1000200EDD6EDECF14F0DDCF15F0166A176ACA
:103A200001014851145C495115584A5116584B51DF
:103A300017580AE2060EE66ED0EC13F0E552DF2AC4
:103A4000010EE8E3DB2AE6D7DECF14F0DDCF15F078
:103A5000166A176A145001014C5D15504D591650E5
:103A60004E5917504F5901E2D2D02A0E00016F5D16
:103A700012E1080EE66ED0EC13F0E55281C0E6FFCD
:103A800082C0E6FF83EC37F0E552E552170EE66E92
:103A9000D0EC13F0E552010EF36E020EF3CFDBFF14
:103AA000DBCF14F000017651D880145454E3030E98
:103AB000DB28E96EEA6AE9BEEA68010EE926010E32
:103AC000EA22EF50166E176A176E166A030EDBCFE6
:103AD000E9FFEA6AE9BEEA68010EE926010EEA2278
:103AE000EF5000011624146E000E1720156E040E00
:103AF00014C0DBFF050E15C0DBFF020E146E030EB3
:103B0000DBCFE7FF1450E726030EE7CFDBFF010E04
:103B1000DE26000EDD22020EE66ED0EC13F0E5523A
:103B2000040EDBCFE6FF050EDBCFE6FFE6EC13F07D
:103B3000E552E55200017651F36E020EDBCFF4FF41
:103B4000F350F45C05E2060EE66ED0EC13F0E5529D
:103B5000020EDB2AA5D76F512E0A3BE0030A2CE0A8
:103B6000010A1BE0070A17E0010A06E0030A04E065
:103B7000010A41E1180E21D0180EE66ED0EC13F0C8
:103B8000E55281C0E6FF82C0E6FF83EC37F0E552E4
:103B9000E552170E2CD0080E1DD0180EE66ED0EC94
:103BA00013F0E55281C0E6FF82C0E6FF83EC37F0F8
:103BB000E552E5520A0E1BD0080EE66ED0EC13F06B
:103BC000E55281C0E6FF82C0E6FF83EC37F0E552A4
:103BD00011D0180EE66ED0EC13F0E55281C0E6FF6E
:103BE00082C0E6FF83EC37F0E552E5520E0EE66E3A
:103BF000D0EC13F0E552060EE66ED0EC13F0E55271
:103C00000001880501E020D7F7EC35F01DD79DECC9
:103C100035F0F56E060EE15C02E2E16AE552E16E16
:103C2000F550E552E7CFD9FF1200D9CFE6FFE1CF3B
:103C3000D9FF060EE12610EC35F0030EF36EDB6EB5
:103C4000E66AD0EC13F0E552000EE66EE66AE6ECAA
:103C500013F0E552E552DE6A200EDD6EDECF14F081
:103C6000DDCF15F0166A176A01014851145C4951FD
:103C700015584A5116584B5117580AE2060EE66E6F
:103C8000D0EC13F0E552DF2A010EE8E3DB2AE6D799
:103C9000DECF14F0DDCF15F0166A176A145001015B
:103CA0004C5D15504D5916504E5917504F5901E261
:103CB000BED0010EF36E020EF3CFDBFFDBCF14F0AC
:103CC00000017751D880145454E3030EDB28E96EC9
:103CD000EA6AE9BEEA68010EE926010EEA22EF501F
:103CE000166E176A176E166A030EDBCFE9FFEA6AD3
:103CF000E9BEEA68010EE926010EEA22EF50000152
:103D00001624146E000E1720156E040E14C0DBFF6F
:103D1000050E15C0DBFF020E146E030EDBCFE7FFAE
:103D20001450E726030EE7CFDBFF010EDE26000E60
:103D3000DD22020EE66ED0EC13F0E552040EDBCF6E
:103D4000E6FF050EDBCFE6FFE6EC13F0E552E552A9
:103D500000017751F36E020EDBCFF4FFF350F45CF9
:103D600005E2060EE66ED0EC13F0E552020EDB2AF9
:103D7000A5D770512E0A3DE0030A2EE0010A1DE08E
:103D8000070A19E0010A08E0030A04E0010A43E116
:103D9000180E23D0080E21D0180EE66ED0EC13F0CA
:103DA000E5527FC0E6FF80C0E6FF83EC37F0E552C6
:103DB000E552170E2CD0080E1DD0180EE66ED0EC72
:103DC00013F0E5527FC0E6FF80C0E6FF83EC37F0DA
:103DD000E552E5520A0E1BD0080EE66ED0EC13F049
:103DE000E5527FC0E6FF80C0E6FF83EC37F0E55286
:103DF00011D0180EE66ED0EC13F0E5527FC0E6FF4E
:103E000080C0E6FF83EC37F0E552E5520E0EE66E19
:103E1000D0EC13F0E552060EE66ED0EC13F0E5524E
:103E20000001880501E034D7F7EC35F031D79DEC7F
:103E300035F0F56E060EE15C02E2E16AE552E16EF4
:0A3E4000F550E552E7CFD9FF12005C
:063E4A00000EE66EE66AC0
:103E5000F4D8E552E5521200A60EE66E9C0EE66E10
:103E6000ECD8E552E5521200A60EE66E8E0EE66E16
:103E7000E4D8E552E5521200D9CFE6FFE1CFD9FFF1
:103E8000040EE126D9CFE9FFDACFEAFFFB0EDBCF44
:103E9000EEFFFC0EDBCFEEFFFD0EDBCFEEFFFE0EE6
:103EA000DBCFEEFF020EDB50146E156AE8500E0EEB
:103EB000151214C0E6FF15C0E6FFBFD8E552E55263
:103EC000F80EE66E6E0EE66EB8D8E552E552010EBB
:103ED000DB50146E156AE8500E0E151214C0E6FF82
:103EE00015C0E6FFAAD8E552E552F70EE66E6E0E53
:103EF000E66EA3D8E552E552DF50146E156AE8501D
:103F00000E0E151214C0E6FF15C0E6FF96D8E55256
:103F1000E552F60EE66E6E0EE66E8FD8E552E5526D
:103F2000F56E040EE15C02E2E16AE552E16EF550E5
:103F3000E552E7CFD9FF1200D9CFE6FFE1CFD9FF95
:103F4000FE0EDBCF14F0156A166A3C0E1612176AC5
:103F500016BE176814C0E6FF15C0E6FF16C0E6FFE0
:103F600017C0E6FF89DFE552E552E552E552E5521A
:103F7000E7CFD9FF1200D9CFE6FFE1CFD9FFFE0E80
:103F8000DBCFE6FF040EE66E64EC33F0E552E5525B
:103F9000010EE66E9CEC3EF0E552E552E7CFD9FF0C
:103FA0001200D9CFE6FFE1CFD9FF020EE126FD0EC8
:103FB000DBCFDEFFDBCFDDFFDFCFE6FF080EE66EF7
:103FC00064EC33F0E552E552010EDBCFE6FF080E5C
:103FD000E66E64EC33F0E552E552010EE66E9CECC1
:103FE0003EF0E552F56E020EE15C02E2E16AE55256
:103FF000E16EF550E552E7CFD9FF1200D9CFE6FFC9
:10400000E1CFD9FFE65246EC33F0080EE66E64ECE1
:1040100034F0E552080EE66E64EC34F0E552DF6EE3
:1040200055EC33F0010EE66E9CEC3EF0E552DF50AD
:10403000E552E552E7CFD9FF1200D9CFE6FFE1CF35
:10404000D9FFE66A98DFE552FD0EDBCFE6FFFE0EF4
:10405000DBCFE6FFA6DFE552E552E552E7CFD9FF19
:104060001200D9CFE6FFE1CFD9FF0C0EE66E83DF59
:10407000E552FD0EDBCFE6FFFE0EDBCFE6FF91DF64
:10408000E552E552E552E7CFD9FF1200D9CFE6FF5E
:10409000E1CFD9FF0D0EE66E6EDFE552FD0EDBCFF0
:1040A000E6FFFE0EDBCFE6FF7CDFE552E552E55290
:1040B000E7CFD9FF1200D9CFE6FFE1CFD9FF0F0E2E
:1040C000E66E59DFE552FD0EDBCFE6FFFE0EDBCFDD
:1040D000E6FF67DFE552E552E552E7CFD9FF120070
:1040E000D9CFE6FFE1CFD9FFE652C2EC32F0DF6A6A
:1040F000DFCF14F0030EE76E1418E8AE02D0E734F9
:1041000002D0E750145C0DE2B3EC32F0010EE66E23
:10411000E66A83EC37F0E552E552A4EC32F0DF2A90
:10412000E7D7B3EC32F0FD0EDBCFE6FFFE0EDBCFC0
:10413000E6FF83EC37F0E552E552A4EC32F0000ED6
:10414000E66EE66A2EDFE552E5520001880502E1DF
:10415000F7EC35F0E552E552E7CFD9FF1200D9CFA1
:10416000E6FFE1CFD9FF060EE12610EC35F0FE0E9A
:10417000E66EE6683F0EE66EE66A7EDEE552E552E2
:10418000E552E552090EE66EF6DEE55237DFE66EE1
:10419000D950020FE96EDACFEAFFE552E750EE6E32
:1041A000ED6A090EE66EE7DEE55228DFE66ED950CD
:1041B000040FE96EDACFEAFFE552E750EE6EED6AE2
:1041C0009DEC35F0040EDBCF16F0050EDBCF17F0BB
:1041D00016C017F0166A020EDB501624146E030E7A
:1041E000DB501720156E14C0DEFFDD6EDECF14F03D
:1041F000DDCF15F014C0F3FF15C0F4FFF56E060E09
:10420000E15C02E2E16AE552E16EF550E552E7CF8A
:10421000D9FF1200D9CFE6FFE1CFD9FF050EE12685
:10422000030EDF6E0101026B036B01013F0E006F95
:104230004C0EE96E010EEA6E01014851EE5C4951E7
:10424000EE584A51EE584B51EE5803E20001606BB4
:10425000B1D00001605112E110EC35F00001010E07
:10426000606F48C1E6FF49C1E6FF4AC1E6FF4BC1A6
:10427000E6FF02DEE552E552E552E552480EE96EF0
:10428000010EEA6EEE5001014C5D146EEE504D5978
:10429000156EEE504E59166EEE504F59176E142A89
:1042A000000E152216221722010E14C0DBFF020E8B
:1042B00015C0DBFF030E16C0DBFF040E17C0DBFFCB
:1042C000010EDBCF05F0020EDBCF06F0030EDBCFD5
:1042D00007F0040EDBCF08F00834000E081809E6DA
:1042E000D8803C0E0554000E0654000E0754000EF4
:1042F00008540CE23C0EF36E010EF3CFDBFF020E0E
:10430000DB6A030EDB6A040EDB6A02D00001606B1D
:10431000010EDBCF02F1030EDF6EDFCF14F0156A62
:10432000166A176A010EDBCF18F0020EDBCF19F008
:10433000030EDBCF1AF0040EDBCF1BF0030E1826A2
:10434000000E19221A221B2217501B18E8AE02D0A9
:104350001B3408D01850145C195015581A501658B0
:104360001B50175811E2090EE66E05DEE55246DED7
:10437000E66EDF50EA6A010FE96E010EEA22E552AD
:10438000E750EF6EDF2AC9D70101010E036FDB5042
:1043900001014827020EDB504923030EDB504A235C
:1043A000040EDB504B230001605104E10101036B5B
:1043B0009DEC35F0F56E050EE15C02E2E16AE55236
:1043C000E16EF550E552E7CFD9FF1200D9CFE6FFF5
:1043D000E1CFD9FF0D0EE126030EDF6E0101026B66
:1043E000036B01013F0E006F4C0EE96E010EEA6E89
:1043F00001014851EE5C4951EE584A51EE584B517B
:10440000EE5803E20001616B20D1000161510DE122
:1044100010EC35F00001010E616FA60EE66E9E0EE7
:10442000E66E0BDEE552E55217DD480EE96E010E31
:10443000EA6EEE5001014C5D146EEE504D59156E52
:10444000EE504E59166EEE504F59176E142A000E4C
:10445000152216221722010E14C0DBFF020E15C012
:10446000DBFF030E16C0DBFF040E17C0DBFF010EDF
:10447000DBCF05F0020EDBCF06F0030EDBCF07F03B
:10448000040EDBCF08F00834000E081809E6D880C7
:104490003C0E0554000E0654000E0754000E08543E
:1044A0000CE23C0EF36E010EF3CFDBFF020EDB6A73
:1044B000030EDB6A040EDB6A02D00001616B010EA1
:1044C000DBCF02F1030EDF6EDFCF14F0156A166A40
:1044D000176A010EDBCF18F0020EDBCF19F0030EC6
:1044E000DBCF1AF0040EDBCF1BF0030E1826000EF4
:1044F00019221A221B2217501B18E8AE02D01B34B7
:1045000008D01850145C195015581A5016581B50E2
:10451000175801E390D0156A166A176A050E48C14C
:10452000DBFF060E15C0DBFF070E16C0DBFF080E13
:1045300017C0DBFF49C115F0146A166A176AD890D4
:104540001732163215321432E806F9E1090E14C09A
:10455000DBFF0A0E15C0DBFF0B0E16C0DBFF0C0ED7
:1045600017C0DBFF050EDBCF14F0060EDBCF15F016
:10457000070EDBCF16F0080EDBCF17F00E0E15126C
:1045800014C0E6FF15C0E6FF58DDE552E552A90E5E
:10459000E66E6E0EE66E51DDE552E552090EDBCF9A
:1045A00014F00A0EDBCF15F00B0EDBCF16F00C0E5D
:1045B000DBCF17F00E0E151214C0E6FF15C0E6FF94
:1045C0003CDDE552E552AA0EE66E6E0EE66E35DD76
:1045D000E552E552A60EE66E800EE66E2EDDE55241
:1045E000E552A80EE66E500EE66E27DDE552E55266
:1045F000F50EE66E6E0EE66E20DDE552E5523D0EDE
:104600000001735D01E121DC020EE66EB4DCE552CF
:10461000F5DCE66EDF50EA6A010FE96E010EEA2270
:10462000E552E750EF6E0101482B000E49234A2363
:104630004B23DF2A49D70101010E036F00016151AD
:1046400004E10101036B9DEC35F0F56E0D0EE15CAC
:1046500002E2E16AE552E16EF550E552E7CFD9FF9B
:10466000120033EF23F0D9CFE6FFE1CFD9FFE652B6
:1046700010EC35F048C1E6FF49C1E6FF4AC1E6FF4C
:104680004BC1E6FF3CEC1FF0E552E552E552E55226
:10469000DF6ADFCF14F0156A166A176A14AE03D00A
:1046A000156816681768480EE96E010EEA6EEE503E
:1046B00001014C5D186EEE504D59196EEE504E5979
:1046C0001A6EEE504F591B6ED890183619361A369E
:1046D0001B361450185C1550195816501A5817509C
:1046E0001B5815E3090EE66E46DCE55287DCE66EE4
:1046F000030EDF24E96EEA6AE9BEEA68010EE926E4
:10470000010EEA22E552E750EF6EDF2AC2D79DEC98
:1047100035F0DFCF02F10101036B01013F0E006FA5
:10472000E552E552E7CFD9FF120010EC35F0000159
:104730007251400A42E07F0A2BE0010A17E0030AA7
:1047400003E0010A4FE109D034EC1FF0A60EE66E3B
:104750008C0EE66E72DCE552E552040EE66E9CECC1
:104760001FF0E552800EE66EE66A39D0050EE66E61
:104770009CEC1FF0E5523F0EE66EE66E72DCE552F1
:10478000E552040EE66E9CEC1FF0E5528F0E25D02C
:10479000050EE66E9CEC1FF0E5520A0EE66E010E69
:1047A000E66E5FDCE552E552040EE66E9CEC1FF00F
:1047B000E5528A0EE66E010E11D0050EE66E9CECF7
:1047C0001FF0E552E668E6684CDCE552E552040E5F
:1047D000E66E9CEC1FF0E552870EE66EE66E41DC5D
:1047E000E552E55225EC1FF0E66ABBEC1FF0E552FE
:1047F00083C0E6FF84C0E6FF83EC37F0E552E55264
:10480000000EE66EE66AD1EC1FF0E552E5529DEF30
:1048100035F095EF23F0D9CFE6FFE1CFD9FF030EB6
:10482000E12674C0DFFF4C0EE96E010EEA6E010155
:104830004851EE5C4951EE584A51EE584B51EE58F2
:1048400003E20001626B96D1030EF36E020EF3CF0A
:10485000DBFF0001625101E0AFD0010E626F000189
:10486000876B400E875D09E28751EA6A500FE96E57
:10487000010EEA22EF6A872BF4D7876B10EC35F034
:10488000DFCF14F0156A166A176A14AE03D01568E4
:104890001668176848C104F049C105F04AC106F01E
:1048A0004BC107F014C009F015C00AF016C00BF098
:1048B00017C00CF01FEC3EF000500101485D0101F3
:1048C000D26F0150010149590101D36F025001011A
:1048D0004A590101D46F035001014B590101D56FB1
:1048E000DFCF14F0156A166A176A14AE03D0156884
:1048F0001668176848C104F049C105F04AC106F0BE
:104900004BC107F014C009F015C00AF016C00BF037
:1049100017C00CF01FEC3EF000C087F000016D5195
:1049200002E13C0E6D6F10EC35F000016D51400A54
:104930000AE07D0A08E0010A18E134EC1FF0A60E37
:10494000E66E8C0E0DD034EC1FF0A60EE66E8C0ECB
:10495000E66E1DEC20F0E552E552A60EE66E840EE2
:10496000E66E1DEC20F0E552E552060EE66E9CEC7C
:104970001FF0E552000EE66EE66A31EC20F0E552DB
:10498000E55200016D513E0A0DE07E0A06E07F0A05
:1049900004E0020A02E0010A0FE134EC1FF02CEC03
:1049A0001FF00AD02CEC1FF0A60EE66E840EE66E09
:1049B0001DEC20F0E552E552D20EE96E010EEA6ED2
:1049C000EE5001014C5DEE504D59EE504E59EE50F7
:1049D0004F5901E2B5D0030E01010225F36E020E1C
:1049E000DBCFF4FFF350F45C01E3AAD0DF50000109
:1049F000875D2BE2030E01010225F36E020EDBCF71
:104A0000F4FFF350F45C21E2020EDBCFE9FFEA6A27
:104A1000E9BEEA68010EE926010EEA22EF50E66ED1
:104A200000018751EA6A500FE96E010EEA22E55251
:104A3000E750EF6E872B020E146EDBCFE7FFE850D6
:104A4000E726020EE7CFDBFFD1D7DF500001875DFD
:104A500003E001010351B0E1D2C1E6FFD3C1E6FF9B
:104A6000D4C1E6FFD5C1E6FF3CEC1FF0E552E552AC
:104A7000E552E5520001876BDF50875D4BE2020E85
:104A8000DF5C875D1DE28729EA6A500FE96E010E3F
:104A9000EA22EF50176A176E166A8751EA6A500FBA
:104AA000E96E010EEA22EF5000011624146E000E8A
:104AB0001720156E14C0E6FFE66E46EC20F024D0F9
:104AC0008729EA6A500FE96E010EEA22EF50176A51
:104AD000176E166A8751EA6A500FE96E010EEA22D4
:104AE000EF5000011624146E000E1720156E14C02E
:104AF000E6FFE66E5BEC20F0E552E55279C0E6FF9A
:104B00007AC0E6FF70EC20F0E552E552020E00019B
:104B10008727B2D7DFCF14F0156A166A176A14AE6A
:104B200003D015681668176814500101D227155074
:104B3000D3231650D4231750D5230001876B3CD7BD
:104B4000D20EE96E010EEA6EEE5001014C5DEE50A0
:104B50004D59EE504E59EE504F5903E301010351A8
:104B600002E10001626B0001625102E19DEC35F04F
:104B70000101026BF56E030EE15C02E2E16AE552AF
:104B8000E16EF550E552E7CFD9FF1200D9CFE6FF2D
:104B9000E1CFD9FF030EE1260101DD51146E156A44
:104BA0000E0E1512DDC1E6FF15C0E6FF1DEC20F06C
:104BB000E552E552A90EE66E6E0EE66E1DEC20F093
:104BC000E552E5520101DE51146E156A14500E0EC5
:104BD0001512DEC1E6FF15C0E6FF1DEC20F0E55220
:104BE000E552AA0EE66E6E0EE66E1DEC20F0E55262
:104BF000E552FE0EDB50146E156AE8500E0E1512CB
:104C000014C0E6FF15C0E6FF1DEC20F0E552E552AA
:104C1000A80EE66E6E0EE66E1DEC20F0E552E55233
:104C2000A60EE66E840EE66E1DEC20F0E552E5520F
:104C3000550EE66E0E0EE66E1DEC20F0E552E552C6
:104C4000A70EE66E6E0EE66E1DEC20F0E552E55204
:104C5000AA0EE66E0E0EE66E1DEC20F0E552E55251
:104C6000A70EE66E6E0EE66E1DEC20F0E552E552E4
:104C7000A60EE66E820EE66E1DEC20F0E552E552C1
:104C80000A0EDF6E010EE66EE66AC1EC37F0E55201
:104C9000E552DF06A60EE66E500EE66E1DEC20F025
:104CA000E552E552F50EE66E6E0EE66E1DEC20F056
:104CB000E552E552020EE66EBBEC1FF0E552FEEC4B
:104CC0001FF0E66ED950010FE96EDACFEAFFE55228
:104CD000E750EE6EED6ADFCF14F0000EE76E1418A9
:104CE000E8AE02D0143403D0E750D880145410E258
:104CF000020EE76E010EDBCF15F0020EDBCF16F0D1
:104D0000E7501516166A020E151801E11650BAE0A2
:104D1000640EE66EE66A83EC37F0E552E552A60EC5
:104D2000E66E940EE66E1DEC20F0E552E5520001B1
:104D3000880502E1F7EC35F0F56E030EE15C02E266
:104D4000E16AE552E16EF550E552E7CFD9FF120076
:104D5000D9CFE6FFE1CFD9FF030EE1260101DD51F6
:104D6000146E156A0E0E1512DDC1E6FF15C0E6FFC2
:104D70001DEC20F0E552E552A90EE66E6E0EE66ED1
:104D80001DEC20F0E552E5520101DE51146E156A6A
:104D900014500E0E1512DEC1E6FF15C0E6FF1DEC25
:104DA00020F0E552E552AA0EE66E6E0EE66E1DECA0
:104DB00020F0E552E552FE0EDB50146E156AE85005
:104DC0000E0E151214C0E6FF15C0E6FF1DEC20F014
:104DD000E552E552A80EE66E6E0EE66E1DEC20F072
:104DE000E552E552A60EE66E840EE66E1DEC20F04E
:104DF000E552E552A60EE66E820EE66E1DEC20F040
:104E0000E552E5520A0EDF6E010EE66EE66AC1EC6F
:104E100037F0E552E552DF06A60EE66E500EE66E5E
:104E20001DEC20F0E552E552F50EE66E6E0EE66ED4
:104E30001DEC20F0E552E55225EC1FF0020EE66E67
:104E4000BBEC1FF0E552FEEC1FF0E66ED950010FEF
:104E5000E96EDACFEAFFE552E750EE6EED6ADFCF9A
:104E600014F0000EE76E1418E8AE02D0143403D02C
:104E7000E750D880145410E2020EE76E010EDBCF2B
:104E800015F0020EDBCF16F0E7501516166A020E6B
:104E9000151801E11650B8E0640EE66EE66A83EC80
:104EA00037F0E552E552A60EE66E940EE66E1DEC66
:104EB00020F0E552E5520001880502E1F7EC35F0FB
:104EC000F56E030EE15C02E2E16AE552E16EF55037
:104ED000E552E7CFD9FF1200D9CFE6FFE1CFD9FFE6
:104EE0000101DD51146E156A0E0E1512DDC1E6FFCB
:104EF00015C0E6FF1DEC20F0E552E552A90EE66E66
:104F00006E0EE66E1DEC20F0E552E552FE0EDB5013
:104F1000146E156AE8500E0E151214C0E6FF15C087
:104F2000E6FF1DEC20F0E552E552A80EE66E6E0E8F
:104F3000E66E1DEC20F0E552E552A60EE66E840EFC
:104F4000E66E1DEC20F0E552E552550EE66E0E0EB3
:104F5000E66E1DEC20F0E552E552A70EE66E6E0EF1
:104F6000E66E1DEC20F0E552E552AA0EE66E0E0E3E
:104F7000E66E1DEC20F0E552E552A70EE66E6E0ED1
:104F8000E66E1DEC20F0E552E552A60EE66E820EAE
:104F9000E66E1DEC20F0E552E55225EC1FF0E66AC6
:104FA000BBEC1FF0E5527DC0E6FF7EC0E6FF83EC60
:104FB00037F0E552E552000EE66EE66AD1EC1FF0DE
:104FC000E552E552640EE66EE66A83EC37F0E55290
:104FD000E552A60EE66E940EE66E1DEC20F0E5524C
:104FE000E5520001880502E1F7EC35F0E552E7CF24
:104FF000D9FF1200D9CFE6FFE1CFD9FF020EE1269B
:105000004C0EE96E010EEA6E01014851EE5C495109
:10501000EE584A51EE584B51EE5803E20001636BD3
:1050200084D0DE52030EDD6E000163511CE10001ED
:105030006E5102E13C0E6E6F10EC35F00001010E76
:10504000636F48C1DDF149C1DEF14AC1DFF14BC1F7
:10505000E0F1A60EE66E9E0EE66E1DEC20F0E55227
:10506000E5522CEC1FF0DD0EE96E010EEA6EEE50FB
:1050700001014C5DEE504D59EE504E59EE504F59D6
:105080003CE3030E01010225F36E010EDBCFF4FFBA
:10509000F350F45C32E2010EDBCFE9FFEA6AE9BECD
:1050A000EA68010EE926010EEA22EFCFDFFF0001D8
:1050B0006E513E0A09E0030A03E0010A09E108D043
:1050C000DFCFE6FF09DF07D0DFCFE6FF5FDD03D0EC
:1050D000DFCFE6FF3DDEE552020E146E010EDBCFA0
:1050E000E7FF1450E726010EE7CFDBFF0101DD2BC0
:1050F000000EDE23DF23E023B6D7DD0EE96E010EBE
:10510000EA6EEE5001014C5DEE504D59EE504E5995
:10511000EE504F5903E30101035102E10001636BBB
:105120000001635102E19DEC35F0F56E020EE15C89
:1051300002E2E16AE552E16EF550E552E7CFD9FFB0
:10514000120000016F5102E13C0E6F6F10EC35F060
:105150000001000ED8806B55000E6C5516E234EC41
:105160001FF0A60EE66E8C0EE66E1DEC20F0E552EA
:10517000E552060EE66E9CEC1FF0E552000EE66E60
:10518000E66A31EC20F0E552E55200016F513E0A2B
:1051900009E0030A02E0010A0FE134EC1FF02CECF5
:1051A0001FF00AD02CEC1FF0A60EE66E840EE66E01
:1051B0001DEC20F0E552E55248C1E6FF49C1E6FF8B
:1051C0004AC1E6FF4BC1E6FF3CEC1FF0E552E55259
:1051D000E552E55201010551176A05C117F0166A3B
:1051E000045100011624146E000E1720156E14C011
:1051F000E6FFE66E46EC20F0E552E552010107516C
:10520000176A07C117F0166A065100011624146EBA
:10521000000E1720156E14C0E6FFE66E46EC20F077
:10522000E552E55201010951176A09C117F0166AE2
:10523000085100011624146E000E1720156E14C0BC
:10524000E6FFE66E46EC20F0E552E55201010B5117
:10525000176A0BC117F0166A0A5100011624146E62
:10526000000E1720156E14C0E6FFE66E5BEC20F012
:10527000E552E55281C0E6FF82C0E6FF70EC20F007
:10528000E552E5529DEF35F0D9CFE6FFE1CFD9FFEA
:10529000FD0EDBCFE6FFFE0EDBCFE6FF5BEC20F082
:1052A000E552E5527FC0E6FF80C0E6FF70EC20F0DB
:1052B000E552E5523F0E0001705D08E125EC1FF05C
:1052C00025EC1FF025EC1FF025EC1FF0DBC1E6FFFD
:1052D000DCC1E6FF1DEC20F0E552E552F60EE66E6D
:1052E0006E0EE66E1DEC20F0E552E5520101DB2B5F
:1052F000000EDC23E552E7CFD9FF12000001705108
:1053000002E13C0E706F10EC35F0000170513F0A65
:1053100015E0010A07E0030A11E0010A27E134EC75
:105320001FF008D0A60EE66E840EE66E1DEC20F08F
:10533000E552E552A60EE66E8C0E13D034EC1FF04B
:10534000A60EE66E8C0EE66E1DEC20F0E552E552E0
:10535000E66AEF0EE66E1DEC20F0E552E552E66AD5
:10536000F80EE66E1DEC20F0E552E55248C1E6FF6E
:1053700049C1E6FF4AC1E6FF4BC1E6FF3CEC1FF026
:10538000E552E552E552E5520101010EDB6F0E0ECA
:10539000DC6F01010451E66EE66A76DFE552E55204
:1053A00001010651156A06C115F0146A14C0E6FF22
:1053B00006C1E6FF69DFE552E55201010851E66EDC
:1053C000E66A62DFE552E55201010A51156A0AC137
:1053D00015F0146A14C0E6FF0AC1E6FF55DFE55276
:1053E000E55201010C51E66EE66A4EDFE552E552E8
:1053F00001010E51156A0EC115F0146A14C0E6FFC2
:105400000EC1E6FF41DFE552E55201011051E66EA3
:10541000E66A3ADFE552E55201011251156A12C1FE
:1054200015F0146A14C0E6FF12C1E6FF2DDFE55245
:10543000E55201011451E66EE66A26DFE552E552B7
:1054400001011651156A16C115F0146A14C0E6FF61
:1054500016C1E6FF19DFE552E55201011851E66E6B
:10546000E66A12DFE552E55201011A51156A1AC1C6
:1054700015F0146A14C0E6FF1AC1E6FF05DFE55215
:10548000E55201011C51E66EE66AFEDEE552E55288
:1054900001011E51156A1EC115F0146A14C0E6FF01
:1054A0001EC1E6FF5BEC20F0E552E5527FC0E6FF4F
:1054B00080C0E6FF70EC20F0E552E5523F0E00019F
:1054C000705D08E125EC1FF025EC1FF025EC1FF0C6
:0854D00025EC1FF09DEF35F003
:0854D800D9CFE6FFE1CFD9FFB7
:1054E000FE0EDBCFE6FF060EE66E64EC33F0E5520F
:1054F000E552010EE66E9CEC3EF0E552E552E7CF38
:10550000D9FF1200D9CFE6FFE1CFD9FFE66A010E3D
:10551000E66E64EC33F0E552E552FD0EDBCFE6FFBC
:10552000080EE66E64EC33F0E552E552FE0EDBCF7A
:10553000E6FF040EE66E64EC33F0E552E552E66AEF
:10554000030EE66E64EC33F0E552E552010EE66EB2
:105550009CEC3EF0E552E552E7CFD9FF1200D9CFDF
:10556000E6FFE1CFD9FF040EE12646EC33F0010E51
:10557000E66E64EC34F0E552DE6EDD6A080EE66E2F
:1055800064EC34F0E552E76E020EE7CFDBFF040E69
:10559000E66E64EC34F0E552E76E030EE7CFDBFF16
:1055A000E66E64EC34F0E552DE6EDD6A030EDB502D
:1055B000166E176A176E166A020EDB50000116246B
:1055C000146E000E1720156E14C0DEFFDD6E55EC54
:1055D00033F0010EE66E9CEC3EF0E552DECF14F0A7
:1055E000DDCF15F014C0F3FF15C0F4FFF56E040E07
:1055F000E15C02E2E16AE552E16EF550E552E7CF87
:10560000D9FF1200F36AF46A1200D9CFE6FFE1CFA6
:10561000D9FF0B0EE126030EF36E060EF3CFDBFF70
:105620000101026B036B01013F0E006F4C0EE96E2E
:10563000010EEA6E01014851EE5C4951EE584A51A3
:10564000EE584B51EE5803E20001606B02D10001AD
:1056500060512BE110EC35F0060EE66E3DDFE552B1
:105660000001010E606FDE6ADE6ADE6ADD6ADD520D
:10567000DD52D9CFE9FFDACFEAFF01014851EE5CF4
:105680004951EE584A51EE584B51EE580EE2060E73
:10569000E66E22DFE552D9CFE9FFDACFEAFFEE2A44
:1056A000000EEE22EE22EE22E4D7480EE96E010E45
:1056B000EA6EEE5001014C5D146EEE504D59156EC0
:1056C000EE504E59166EEE504F59176E142A000EBA
:1056D000152216221722070E14C0DBFF080E15C074
:1056E000DBFF090E16C0DBFF0A0E17C0DBFF070E3B
:1056F000DBCF05F0080EDBCF06F0090EDBCF07F09D
:105700000A0EDBCF08F00834000E081809E6D8802E
:105710001E0E0554000E0654000E0754000E0854C9
:105720000CE21E0EF36E070EF3CFDBFF080EDB6AF2
:10573000090EDB6A0A0EDB6A02D00001606B070EFD
:10574000DBCF04F0080EDBCF05F0090EDBCF06F04F
:105750000A0EDBCF07F0020E096E0A6A0B6A0C6AAA
:10576000BAEC3DF000C002F148C1DFFF010E49C1B3
:10577000DBFF020E4AC1DBFF030E4BC1DBFFD9503A
:10578000070FE96EDACFEAFF01014851EE24146EEB
:105790004951EE20156E4A51EE20166E4B51EE2007
:1057A000176ED9CFE9FFDACFEAFF1450EE5C15503F
:1057B000EE581650EE581750EE582FE2040EE66ED3
:1057C0008BDEE552CCDE040EF3CFDBFF050EF4CF0B
:1057D000DBFF060EDB50EA6A010FE96E010EEA22DA
:1057E000040EDBCFEFFF060EDB2ADB50EA6A010F67
:1057F000E96E010EEA22050EDBCFEFFF060EDB2A73
:10580000E66E6ADEE552D9CFE9FFDACFEAFFEE2A8B
:10581000000EEE22EE22EE22B2D70101010E036F3E
:10582000D950070FE96EDACFEAFF01014851EE24A3
:10583000486F4951EE20496F4A51EE204A6F4B5153
:10584000EE204B6F0001605104E10101036B9DEC00
:1058500035F0F56E0B0EE15C02E2E16AE552E16EB5
:10586000F550E552E7CFD9FF120005EF2BF0D9CF65
:10587000E6FFE1CFD9FF070EE126030EF36E040E1B
:10588000F3CFDBFF0101080E026F036B01013F0E36
:10589000006F10EC35F0060EE66E1EDEE552DE6A95
:1058A000DE6ADE6ADD6ADD52DD52D9CFE9FFDACF8A
:1058B000EAFF01014851EE5C4951EE584A51EE5859
:1058C0004B51EE580EE2060EE66E06DEE552D9CFDB
:1058D000E9FFDACFEAFFEE2A000EEE22EE22EE22F8
:1058E000E4D748C1DFFF010E49C1DBFF020E4AC108
:1058F000DBFF030E4BC1DBFFD9CFE9FFDACFEAFFB5
:10590000EE5001014C5DEE504D59EE504E59EE50A7
:105910004F5930E3040EE66EDFDDE55220DE050E62
:10592000F3CFDBFF060EF4CFDBFF040EDB50EA6A99
:10593000010FE96E010EEA22050EDBCFEFFF040E28
:10594000DB2ADB50EA6A010FE96E010EEA22060E3D
:10595000DBCFEFFF040EDB2A060EE66EBDDDE5525F
:10596000D9CFE9FFDACFEAFFEE2A000EEE22EE22CF
:10597000EE22C2D7040EDB50FD0F0101026F9DEC39
:1059800035F0F56E070EE15C02E2E16AE552E16E88
:10599000F550E552E7CFD9FF1200D9CFE6FFE1CFAE
:1059A000D9FF030EE126DF6E0101020E026F036BC9
:1059B00001013F0E006F10EC35F0040EE66E8CDD39
:1059C000E552CDDDDE52F3CFDEFFF4CFDDFFDD5259
:1059D000DF50EA6A010FE96E010EEA22010EDBCF09
:1059E000EFFFDF2ADF50EA6A010FE96E010EEA22BB
:1059F000020EDBCFEFFFDF2A030EDF5C0101026F37
:105A00009DEC35F0F56E030EE15C02E2E16AE552D1
:105A1000E16EF550E552E7CFD9FF120010EC35F0FA
:105A2000090EE66E59DDE552000183517925146EA9
:105A300084517A21156E14C0E6FFE66E83EC37F0D0
:105A4000E552E5529DEF35F0D9CFE6FFE1CFD9FF22
:105A5000080EE12610EC35F0060EE66E3DDDE5524F
:105A6000FF0E00016711146E68C015F0010E1426B8
:105A7000000E1522040E14C0DBFF050E15C0DBFF5F
:105A8000060EDB6A070EDB6ADE6ADE6ADE6ADD6A44
:105A9000DD52DD52040EDBCF14F0050EDBCF15F026
:105AA000060EDBCF16F0070EDBCF17F0D9CFE9FFDC
:105AB000DACFEAFF030EEB501718E8AE02D0173426
:105AC00008D01450EE5C1550EE581650EE58175092
:105AD000EE580EE2060EE66EFFDCE552D9CFE9FF86
:105AE000DACFEAFFEE2A000EEE22EE22EE22D2D725
:105AF000090EE66EF1DCE552000183517925146E42
:105B000084517A21156E14C0E6FFE66E83EC37F0FF
:105B1000E552E5529DEC35F0F56E080EE15C02E2CF
:105B2000E16AE552E16EF550E552E7CFD9FF120088
:105B3000D9CFE6FFE1CFD9FF040EE1264C0EE96E86
:105B4000010EEA6E01014851EE5C4951EE584A518E
:105B5000EE584B51EE5803E20001626BA9D0DE52C1
:105B6000030EDD6E0001625127E110EC35F0060EE8
:105B7000E66EB2DCE5520001010E626F0101D26BEC
:105B8000D36BD46BD56BD20EE96E010EEA6E0101B8
:105B90004851EE5C4951EE584A51EE584B51EE587F
:105BA0000BE2060EE66E98DCE5520101D22B000EE8
:105BB000D323D423D523E7D7D20EE96E010EEA6EA4
:105BC000EE5001014C5DEE504D59EE504E59EE50E5
:105BD0004F5956E3030E01010225F36E010EDBCF90
:105BE000F4FFF350F45C4CE2010EDBCFE9FFEA6A0C
:105BF000E9BEEA68010EE926010EEA22020EEFCFA5
:105C0000DBFF010EDB28E96EEA6AE9BEEA68010EF5
:105C1000E926010EEA22030EEFCFDBFF020E146E1F
:105C2000010EDBCFE7FF1450E726010EE7CFDBFFC5
:105C3000020EE66E51DCE552020EDBCFE6FF030EEC
:105C4000DBCFE6FF5FDCE552E552080EE66E44DC92
:105C5000E55279C0E6FF7AC0E6FF83EC37F0E55203
:105C6000E5520E0EE66E38DCE552060EE66E34DCCA
:105C7000E5520101D22B000ED323D423D5239CD788
:105C8000D20EE96E010EEA6EEE5001014C5DEE504F
:105C90004D59EE504E59EE504F5903E30101035157
:105CA00002E10001626B0001625102E19DEC35F0FE
:105CB000F56E040EE15C02E2E16AE552E16EF55038
:105CC000E552E7CFD9FF120098EF2DF098EF2DF0B5
:105CD000D9CFE6FFE1CFD9FF020EE12610EC35F077
:105CE00004C1DFFF010E05C1DBFF020EE66E6CECA6
:105CF0002AF0E552DECFE6FFDDCFE6FF82EC2AF0A8
:105D0000E552E552080EE66E6CEC2AF0E5527FC0D3
:105D1000E6FF80C0E6FF83EC37F0E552E5520E0E59
:105D2000E66E6CEC2AF0E5529DEC35F0F56E020E55
:105D3000E15C02E2E16AE552E16EF550E552E7CF3F
:045D4000D9FF120075
:0C5D44008A9093908B929492FA0E89162C
:105D500092160101010EE16F21EC33F001010E0EEC
:105D6000E26F476B47C146F147C145F147C144F176
:105D700047C143F147C142F147C141F10001280E3B
:105D8000666F0101FD910101CD0EFE6F0101CB0E89
:105D9000FF6F92829286050EC26E0B0EC16E3B0E95
:105DA000C06EC08EB1EC35F08A80FA0EE66EE66AFF
:105DB000C1EC37F0E552E5528B82FA0EE66EE66AE8
:105DC000C1EC37F0E552E5528A90FA0EE66EE66ACB
:105DD000C1EC37F0E552E5528B921200060E01013C
:105DE000F95D05E36D50020B01E0120001D81200CD
:105DF000D9CFE6FFE1CFD9FF070EE126400EE66ED0
:105E0000010EE66E010EE66EDCEC3CF0E552E5526A
:105E1000E552000901E1A5D20101006B0101015128
:105E2000FF0A01E178D28D0A01E16ED2030A01E195
:105E300066D2010A01E15ED2130A01E156D2010ADB
:105E400001E14ED2030A01E146D2010A01E13ED24C
:105E5000340A01E139D2070A01E134D2010A01E131
:105E60002FD2030A01E12AD2140A01E124D2010A45
:105E700001E11ED2140A01E1F7D1120A01E1A4D115
:105E8000030A01E157D1010A01E142D17F0A01E190
:105E900034D1010A01E125D1050A01E1E5D0070A63
:105EA00001E1D6D0060A01E1C1D0030A01E1B4D074
:105EB000010A01E1A5D0050A01E19AD07E0A4BE072
:105EC000740A2AE0060A0CE0310A01E038D2010126
:105ED0000D0E036F0101046B0101040E006F30D23F
:105EE0000101010E006F0101025102E18A8013D00D
:105EF0000101020502E18B820ED0040E0101025D58
:105F000002E18A9008D0050E0101025D02E18B9248
:105F100002D00101006B14D2010E146EFD0EE96E69
:105F2000010EEA6EEF50010B1410F36EF350010BEB
:105F3000F36EF46EFE0EEF14F310EF6EF4500009E2
:105F400002E0ADEC35F0C3CF02F1C4CF03F10101A3
:105F5000030E006FF5D188C089F002C18AF0030EEC
:105F60000101031500018B6F0001000ED8808A55D6
:105F7000000E8B5504E20001010E886F02D0000173
:105F8000886B800E01010315800803E10001020EF9
:105F9000886F400E01010315400803E10001030E64
:105FA000886F050E8AC0DBFF060E8BC0DBFFD95061
:105FB000050FE96EDACFEAFF020E0F0B06E0EC5296
:105FC000D890ED32EF32E806FAE10001880507E1EA
:105FD000050EDBCFE6FFBFEC35F0E55205D0000142
:105FE000890502E1E7EC35F00101010E006FA8D14F
:105FF000ECEC34F00101026F0101020E006FA0D140
:106000000101010E006F0101025103E1050EC26E94
:1060100002D00D0EC26E94D10101010E006F02C1BB
:10602000BEFF02C18DF003C18CF08AD10101010EC7
:10603000006FE0EC32F08B80FE0E9312C10E9412D2
:106040009288929A898A02C1E1F121EC33F078D1E9
:106050000101010E006F0101025103E146EC33F032
:1060600002D055EC33F06CD10101010E006F01013B
:10607000020503E110EC33F033D0100E0101025D94
:1060800003E1FFEC32F02CD0020E0101025D03E1CE
:10609000F1EC32F025D0200E0101025D03E1E0ECCD
:1060A00032F01ED0040E0101025D03E1D1EC32F0AA
:1060B00017D0400E0101025D03E1C2EC32F010D0B6
:1060C000080E0101025D03E1B3EC32F009D0800E4D
:1060D0000101025D03E1A4EC32F002D00101006B8A
:1060E0002FD10101010E006F03C1E6FF02C1E6FFDF
:1060F00064EC33F0E552E55223D10101020E006F4A
:1061000002C1E6FF64EC34F0E5520101026F18D1E0
:106110000101010E006F02C1E2F1120E0101E25D08
:1061200002E10101026B210E0101E25D02E10101C8
:10613000026B06D10101010E006F01C164F002C1C2
:1061400065F003C166F004C167F005C168F006C1DF
:1061500069F007C16AF008C16BF009C16CF00AC1AF
:106160006DF00BC16EF00CC16FF00DC170F00EC17F
:1061700071F00FC172F010C173F011C174F012C14F
:1061800075F013C176F014C177F015C178F016C11F
:1061900079F017C17AF018C17BF019C17CF01AC1EF
:1061A0007DF01BC17EF01CC17FF01DC180F01EC1BF
:1061B00081F01FC182F020C183F021C184F022C18F
:1061C00085F023C186F0BCD00101010E006F04C12F
:1061D00048F10101496B4A6B4B6B4AC14BF149C114
:1061E0004AF148C149F10101486B01010351010124
:1061F0004813000E49134A134B134AC14BF149C1CE
:106200004AF148C149F10101486B01010251010104
:106210004813000E49134A134B1307C14CF10101F7
:106220004D6B4E6B4F6B4EC14FF14DC14EF14CC19A
:106230004DF101014C6B0101065101014C13000E9F
:106240004D134E134F134EC14FF14DC14EF14CC182
:106250004DF101014C6B0101055101014C13000E80
:106260004D134E134F136CD00101030E006F020E3D
:106270000101025D03E10101050E006F84D8030EE8
:10628000F3CFDBFF040EF4CFDBFF030EDBCF02F115
:10629000040EDBCF03F1030EEDC1DBFF040EEEC1F4
:1062A000DBFF030EDBCF04F1040EDBCF05F148D09A
:1062B000E7EC37F045D02FEC38F042D077D840D01B
:1062C00088D83ED099D83CD0AAD83AD00101010E46
